{
	"contracts/Exchange.sol": {
		"Exchange": {
			"abi": [
				{
					"inputs": [
						{
							"internalType": "address",
							"name": "_token",
							"type": "address"
						}
					],
					"stateMutability": "nonpayable",
					"type": "constructor"
				},
				{
					"inputs": [
						{
							"internalType": "address",
							"name": "spender",
							"type": "address"
						},
						{
							"internalType": "uint256",
							"name": "currentAllowance",
							"type": "uint256"
						},
						{
							"internalType": "uint256",
							"name": "requestedDecrease",
							"type": "uint256"
						}
					],
					"name": "ERC20FailedDecreaseAllowance",
					"type": "error"
				},
				{
					"inputs": [
						{
							"internalType": "address",
							"name": "spender",
							"type": "address"
						},
						{
							"internalType": "uint256",
							"name": "allowance",
							"type": "uint256"
						},
						{
							"internalType": "uint256",
							"name": "needed",
							"type": "uint256"
						}
					],
					"name": "ERC20InsufficientAllowance",
					"type": "error"
				},
				{
					"inputs": [
						{
							"internalType": "address",
							"name": "sender",
							"type": "address"
						},
						{
							"internalType": "uint256",
							"name": "balance",
							"type": "uint256"
						},
						{
							"internalType": "uint256",
							"name": "needed",
							"type": "uint256"
						}
					],
					"name": "ERC20InsufficientBalance",
					"type": "error"
				},
				{
					"inputs": [
						{
							"internalType": "address",
							"name": "approver",
							"type": "address"
						}
					],
					"name": "ERC20InvalidApprover",
					"type": "error"
				},
				{
					"inputs": [
						{
							"internalType": "address",
							"name": "receiver",
							"type": "address"
						}
					],
					"name": "ERC20InvalidReceiver",
					"type": "error"
				},
				{
					"inputs": [
						{
							"internalType": "address",
							"name": "sender",
							"type": "address"
						}
					],
					"name": "ERC20InvalidSender",
					"type": "error"
				},
				{
					"inputs": [
						{
							"internalType": "address",
							"name": "spender",
							"type": "address"
						}
					],
					"name": "ERC20InvalidSpender",
					"type": "error"
				},
				{
					"anonymous": false,
					"inputs": [
						{
							"indexed": true,
							"internalType": "address",
							"name": "owner",
							"type": "address"
						},
						{
							"indexed": true,
							"internalType": "address",
							"name": "spender",
							"type": "address"
						},
						{
							"indexed": false,
							"internalType": "uint256",
							"name": "value",
							"type": "uint256"
						}
					],
					"name": "Approval",
					"type": "event"
				},
				{
					"anonymous": false,
					"inputs": [
						{
							"indexed": true,
							"internalType": "address",
							"name": "from",
							"type": "address"
						},
						{
							"indexed": true,
							"internalType": "address",
							"name": "to",
							"type": "address"
						},
						{
							"indexed": false,
							"internalType": "uint256",
							"name": "value",
							"type": "uint256"
						}
					],
					"name": "Transfer",
					"type": "event"
				},
				{
					"inputs": [
						{
							"internalType": "uint256",
							"name": "_tokenAmount",
							"type": "uint256"
						}
					],
					"name": "addLiquidity",
					"outputs": [],
					"stateMutability": "payable",
					"type": "function"
				},
				{
					"inputs": [
						{
							"internalType": "address",
							"name": "owner",
							"type": "address"
						},
						{
							"internalType": "address",
							"name": "spender",
							"type": "address"
						}
					],
					"name": "allowance",
					"outputs": [
						{
							"internalType": "uint256",
							"name": "",
							"type": "uint256"
						}
					],
					"stateMutability": "view",
					"type": "function"
				},
				{
					"inputs": [
						{
							"internalType": "address",
							"name": "spender",
							"type": "address"
						},
						{
							"internalType": "uint256",
							"name": "amount",
							"type": "uint256"
						}
					],
					"name": "approve",
					"outputs": [
						{
							"internalType": "bool",
							"name": "",
							"type": "bool"
						}
					],
					"stateMutability": "nonpayable",
					"type": "function"
				},
				{
					"inputs": [
						{
							"internalType": "address",
							"name": "account",
							"type": "address"
						}
					],
					"name": "balanceOf",
					"outputs": [
						{
							"internalType": "uint256",
							"name": "",
							"type": "uint256"
						}
					],
					"stateMutability": "view",
					"type": "function"
				},
				{
					"inputs": [],
					"name": "decimals",
					"outputs": [
						{
							"internalType": "uint8",
							"name": "",
							"type": "uint8"
						}
					],
					"stateMutability": "view",
					"type": "function"
				},
				{
					"inputs": [
						{
							"internalType": "address",
							"name": "spender",
							"type": "address"
						},
						{
							"internalType": "uint256",
							"name": "requestedDecrease",
							"type": "uint256"
						}
					],
					"name": "decreaseAllowance",
					"outputs": [
						{
							"internalType": "bool",
							"name": "",
							"type": "bool"
						}
					],
					"stateMutability": "nonpayable",
					"type": "function"
				},
				{
					"inputs": [
						{
							"internalType": "uint256",
							"name": "_minTokens",
							"type": "uint256"
						}
					],
					"name": "ethToTokenSwap",
					"outputs": [
						{
							"internalType": "uint256",
							"name": "",
							"type": "uint256"
						}
					],
					"stateMutability": "payable",
					"type": "function"
				},
				{
					"inputs": [],
					"name": "factoryAddress",
					"outputs": [
						{
							"internalType": "address",
							"name": "",
							"type": "address"
						}
					],
					"stateMutability": "view",
					"type": "function"
				},
				{
					"inputs": [
						{
							"internalType": "uint256",
							"name": "_tokenSold",
							"type": "uint256"
						}
					],
					"name": "getEthAmount",
					"outputs": [
						{
							"internalType": "uint256",
							"name": "",
							"type": "uint256"
						}
					],
					"stateMutability": "view",
					"type": "function"
				},
				{
					"inputs": [],
					"name": "getReserve",
					"outputs": [
						{
							"internalType": "uint256",
							"name": "",
							"type": "uint256"
						}
					],
					"stateMutability": "view",
					"type": "function"
				},
				{
					"inputs": [
						{
							"internalType": "uint256",
							"name": "_ethSold",
							"type": "uint256"
						}
					],
					"name": "getTokenAmount",
					"outputs": [
						{
							"internalType": "uint256",
							"name": "",
							"type": "uint256"
						}
					],
					"stateMutability": "view",
					"type": "function"
				},
				{
					"inputs": [
						{
							"internalType": "address",
							"name": "spender",
							"type": "address"
						},
						{
							"internalType": "uint256",
							"name": "addedValue",
							"type": "uint256"
						}
					],
					"name": "increaseAllowance",
					"outputs": [
						{
							"internalType": "bool",
							"name": "",
							"type": "bool"
						}
					],
					"stateMutability": "nonpayable",
					"type": "function"
				},
				{
					"inputs": [],
					"name": "name",
					"outputs": [
						{
							"internalType": "string",
							"name": "",
							"type": "string"
						}
					],
					"stateMutability": "view",
					"type": "function"
				},
				{
					"inputs": [
						{
							"internalType": "uint256",
							"name": "_amountWithrawn",
							"type": "uint256"
						}
					],
					"name": "removeLiquidity",
					"outputs": [],
					"stateMutability": "payable",
					"type": "function"
				},
				{
					"inputs": [],
					"name": "symbol",
					"outputs": [
						{
							"internalType": "string",
							"name": "",
							"type": "string"
						}
					],
					"stateMutability": "view",
					"type": "function"
				},
				{
					"inputs": [],
					"name": "tokenAddress",
					"outputs": [
						{
							"internalType": "address",
							"name": "",
							"type": "address"
						}
					],
					"stateMutability": "view",
					"type": "function"
				},
				{
					"inputs": [
						{
							"internalType": "uint256",
							"name": "_tokenSold",
							"type": "uint256"
						},
						{
							"internalType": "uint256",
							"name": "_minEth",
							"type": "uint256"
						}
					],
					"name": "tokenToEthSwap",
					"outputs": [
						{
							"internalType": "uint256",
							"name": "",
							"type": "uint256"
						}
					],
					"stateMutability": "payable",
					"type": "function"
				},
				{
					"inputs": [
						{
							"internalType": "uint256",
							"name": "_tokenSold",
							"type": "uint256"
						},
						{
							"internalType": "uint256",
							"name": "_minTokensBought",
							"type": "uint256"
						},
						{
							"internalType": "address",
							"name": "_tokenAddress",
							"type": "address"
						}
					],
					"name": "tokenToTokenSwap",
					"outputs": [],
					"stateMutability": "payable",
					"type": "function"
				},
				{
					"inputs": [],
					"name": "totalSupply",
					"outputs": [
						{
							"internalType": "uint256",
							"name": "",
							"type": "uint256"
						}
					],
					"stateMutability": "view",
					"type": "function"
				},
				{
					"inputs": [
						{
							"internalType": "address",
							"name": "to",
							"type": "address"
						},
						{
							"internalType": "uint256",
							"name": "amount",
							"type": "uint256"
						}
					],
					"name": "transfer",
					"outputs": [
						{
							"internalType": "bool",
							"name": "",
							"type": "bool"
						}
					],
					"stateMutability": "nonpayable",
					"type": "function"
				},
				{
					"inputs": [
						{
							"internalType": "address",
							"name": "from",
							"type": "address"
						},
						{
							"internalType": "address",
							"name": "to",
							"type": "address"
						},
						{
							"internalType": "uint256",
							"name": "amount",
							"type": "uint256"
						}
					],
					"name": "transferFrom",
					"outputs": [
						{
							"internalType": "bool",
							"name": "",
							"type": "bool"
						}
					],
					"stateMutability": "nonpayable",
					"type": "function"
				}
			],
			"devdoc": {
				"errors": {
					"ERC20FailedDecreaseAllowance(address,uint256,uint256)": [
						{
							"details": "Indicates a failed `decreaseAllowance` request."
						}
					],
					"ERC20InsufficientAllowance(address,uint256,uint256)": [
						{
							"details": "Indicates a failure with the `spender`’s `allowance`. Used in transfers.",
							"params": {
								"allowance": "Amount of tokens a `spender` is allowed to operate with.",
								"needed": "Minimum amount required to perform a transfer.",
								"spender": "Address that may be allowed to operate on tokens without being their owner."
							}
						}
					],
					"ERC20InsufficientBalance(address,uint256,uint256)": [
						{
							"details": "Indicates an error related to the current `balance` of a `sender`. Used in transfers.",
							"params": {
								"balance": "Current balance for the interacting account.",
								"needed": "Minimum amount required to perform a transfer.",
								"sender": "Address whose tokens are being transferred."
							}
						}
					],
					"ERC20InvalidApprover(address)": [
						{
							"details": "Indicates a failure with the `approver` of a token to be approved. Used in approvals.",
							"params": {
								"approver": "Address initiating an approval operation."
							}
						}
					],
					"ERC20InvalidReceiver(address)": [
						{
							"details": "Indicates a failure with the token `receiver`. Used in transfers.",
							"params": {
								"receiver": "Address to which tokens are being transferred."
							}
						}
					],
					"ERC20InvalidSender(address)": [
						{
							"details": "Indicates a failure with the token `sender`. Used in transfers.",
							"params": {
								"sender": "Address whose tokens are being transferred."
							}
						}
					],
					"ERC20InvalidSpender(address)": [
						{
							"details": "Indicates a failure with the `spender` to be approved. Used in approvals.",
							"params": {
								"spender": "Address that may be allowed to operate on tokens without being their owner."
							}
						}
					]
				},
				"events": {
					"Approval(address,address,uint256)": {
						"details": "Emitted when the allowance of a `spender` for an `owner` is set by a call to {approve}. `value` is the new allowance."
					},
					"Transfer(address,address,uint256)": {
						"details": "Emitted when `value` tokens are moved from one account (`from`) to another (`to`). Note that `value` may be zero."
					}
				},
				"kind": "dev",
				"methods": {
					"allowance(address,address)": {
						"details": "See {IERC20-allowance}."
					},
					"approve(address,uint256)": {
						"details": "See {IERC20-approve}. NOTE: If `amount` is the maximum `uint256`, the allowance is not updated on `transferFrom`. This is semantically equivalent to an infinite approval. Requirements: - `spender` cannot be the zero address."
					},
					"balanceOf(address)": {
						"details": "See {IERC20-balanceOf}."
					},
					"decimals()": {
						"details": "Returns the number of decimals used to get its user representation. For example, if `decimals` equals `2`, a balance of `505` tokens should be displayed to a user as `5.05` (`505 / 10 ** 2`). Tokens usually opt for a value of 18, imitating the relationship between Ether and Wei. This is the default value returned by this function, unless it's overridden. NOTE: This information is only used for _display_ purposes: it in no way affects any of the arithmetic of the contract, including {IERC20-balanceOf} and {IERC20-transfer}."
					},
					"decreaseAllowance(address,uint256)": {
						"details": "Atomically decreases the allowance granted to `spender` by the caller. This is an alternative to {approve} that can be used as a mitigation for problems described in {IERC20-approve}. Emits an {Approval} event indicating the updated allowance. Requirements: - `spender` cannot be the zero address. - `spender` must have allowance for the caller of at least `requestedDecrease`."
					},
					"increaseAllowance(address,uint256)": {
						"details": "Atomically increases the allowance granted to `spender` by the caller. This is an alternative to {approve} that can be used as a mitigation for problems described in {IERC20-approve}. Emits an {Approval} event indicating the updated allowance. Requirements: - `spender` cannot be the zero address."
					},
					"name()": {
						"details": "Returns the name of the token."
					},
					"symbol()": {
						"details": "Returns the symbol of the token, usually a shorter version of the name."
					},
					"totalSupply()": {
						"details": "See {IERC20-totalSupply}."
					},
					"transfer(address,uint256)": {
						"details": "See {IERC20-transfer}. Requirements: - `to` cannot be the zero address. - the caller must have a balance of at least `amount`."
					},
					"transferFrom(address,address,uint256)": {
						"details": "See {IERC20-transferFrom}. Emits an {Approval} event indicating the updated allowance. This is not required by the EIP. See the note at the beginning of {ERC20}. NOTE: Does not update the allowance if the current allowance is the maximum `uint256`. Requirements: - `from` and `to` cannot be the zero address. - `from` must have a balance of at least `amount`. - the caller must have allowance for ``from``'s tokens of at least `amount`."
					}
				},
				"version": 1
			},
			"evm": {
				"assembly": "    /* \"contracts/Exchange.sol\":346:5178  contract Exchange is ERC20, IExchange {... */\n  mstore(0x40, 0x80)\n    /* \"contracts/Exchange.sol\":463:668  constructor(address _token) ERC20(\"Muniswap-V1\", \"MUNI-V1\") {... */\n  callvalue\n  dup1\n  iszero\n  tag_1\n  jumpi\n  0x00\n  dup1\n  revert\ntag_1:\n  pop\n  mload(0x40)\n  sub(codesize, bytecodeSize)\n  dup1\n  bytecodeSize\n  dup4\n  codecopy\n  dup2\n  dup2\n  add\n  0x40\n  mstore\n  dup2\n  add\n  swap1\n  tag_2\n  swap2\n  swap1\n  tag_3\n  jump\t// in\ntag_2:\n    /* \"https://github.com/OpenZeppelin/openzeppelin-contracts/blob/master/contracts/token/ERC20/ERC20.sol\":2179:2292  constructor(string memory name_, string memory symbol_) {... */\n  mload(0x40)\n  dup1\n  0x40\n  add\n  0x40\n  mstore\n  dup1\n  0x0b\n  dup2\n  mstore\n  0x20\n  add\n  0x4d756e69737761702d5631000000000000000000000000000000000000000000\n  dup2\n  mstore\n  pop\n  mload(0x40)\n  dup1\n  0x40\n  add\n  0x40\n  mstore\n  dup1\n  0x07\n  dup2\n  mstore\n  0x20\n  add\n  0x4d554e492d563100000000000000000000000000000000000000000000000000\n  dup2\n  mstore\n  pop\n    /* \"https://github.com/OpenZeppelin/openzeppelin-contracts/blob/master/contracts/token/ERC20/ERC20.sol\":2253:2258  name_ */\n  dup2\n    /* \"https://github.com/OpenZeppelin/openzeppelin-contracts/blob/master/contracts/token/ERC20/ERC20.sol\":2245:2250  _name */\n  0x03\n    /* \"https://github.com/OpenZeppelin/openzeppelin-contracts/blob/master/contracts/token/ERC20/ERC20.sol\":2245:2258  _name = name_ */\n  swap1\n  dup2\n  tag_7\n  swap2\n  swap1\n  tag_8\n  jump\t// in\ntag_7:\n  pop\n    /* \"https://github.com/OpenZeppelin/openzeppelin-contracts/blob/master/contracts/token/ERC20/ERC20.sol\":2278:2285  symbol_ */\n  dup1\n    /* \"https://github.com/OpenZeppelin/openzeppelin-contracts/blob/master/contracts/token/ERC20/ERC20.sol\":2268:2275  _symbol */\n  0x04\n    /* \"https://github.com/OpenZeppelin/openzeppelin-contracts/blob/master/contracts/token/ERC20/ERC20.sol\":2268:2285  _symbol = symbol_ */\n  swap1\n  dup2\n  tag_9\n  swap2\n  swap1\n  tag_8\n  jump\t// in\ntag_9:\n  pop\n    /* \"https://github.com/OpenZeppelin/openzeppelin-contracts/blob/master/contracts/token/ERC20/ERC20.sol\":2179:2292  constructor(string memory name_, string memory symbol_) {... */\n  pop\n  pop\n    /* \"contracts/Exchange.sol\":560:561  0 */\n  0x00\n    /* \"contracts/Exchange.sol\":542:562  _token != address(0) */\n  0xffffffffffffffffffffffffffffffffffffffff\n  and\n    /* \"contracts/Exchange.sol\":542:548  _token */\n  dup2\n    /* \"contracts/Exchange.sol\":542:562  _token != address(0) */\n  0xffffffffffffffffffffffffffffffffffffffff\n  and\n  sub\n    /* \"contracts/Exchange.sol\":534:588  require(_token != address(0), \"Invalid token address\") */\n  tag_11\n  jumpi\n  mload(0x40)\n  0x08c379a000000000000000000000000000000000000000000000000000000000\n  dup2\n  mstore\n  0x04\n  add\n  tag_12\n  swap1\n  tag_13\n  jump\t// in\ntag_12:\n  mload(0x40)\n  dup1\n  swap2\n  sub\n  swap1\n  revert\ntag_11:\n    /* \"contracts/Exchange.sol\":616:622  _token */\n  dup1\n    /* \"contracts/Exchange.sol\":601:613  tokenAddress */\n  0x05\n  0x00\n    /* \"contracts/Exchange.sol\":601:622  tokenAddress = _token */\n  0x0100\n  exp\n  dup2\n  sload\n  dup2\n  0xffffffffffffffffffffffffffffffffffffffff\n  mul\n  not\n  and\n  swap1\n  dup4\n  0xffffffffffffffffffffffffffffffffffffffff\n  and\n  mul\n  or\n  swap1\n  sstore\n  pop\n    /* \"contracts/Exchange.sol\":650:660  msg.sender */\n  caller\n    /* \"contracts/Exchange.sol\":633:647  factoryAddress */\n  0x06\n  0x00\n    /* \"contracts/Exchange.sol\":633:660  factoryAddress = msg.sender */\n  0x0100\n  exp\n  dup2\n  sload\n  dup2\n  0xffffffffffffffffffffffffffffffffffffffff\n  mul\n  not\n  and\n  swap1\n  dup4\n  0xffffffffffffffffffffffffffffffffffffffff\n  and\n  mul\n  or\n  swap1\n  sstore\n  pop\n    /* \"contracts/Exchange.sol\":463:668  constructor(address _token) ERC20(\"Muniswap-V1\", \"MUNI-V1\") {... */\n  pop\n    /* \"contracts/Exchange.sol\":346:5178  contract Exchange is ERC20, IExchange {... */\n  jump(tag_14)\n    /* \"#utility.yul\":88:205   */\ntag_16:\n    /* \"#utility.yul\":197:198   */\n  0x00\n    /* \"#utility.yul\":194:195   */\n  dup1\n    /* \"#utility.yul\":187:199   */\n  revert\n    /* \"#utility.yul\":334:460   */\ntag_18:\n    /* \"#utility.yul\":371:378   */\n  0x00\n    /* \"#utility.yul\":411:453   */\n  0xffffffffffffffffffffffffffffffffffffffff\n    /* \"#utility.yul\":404:409   */\n  dup3\n    /* \"#utility.yul\":400:454   */\n  and\n    /* \"#utility.yul\":389:454   */\n  swap1\n  pop\n    /* \"#utility.yul\":334:460   */\n  swap2\n  swap1\n  pop\n  jump\t// out\n    /* \"#utility.yul\":466:562   */\ntag_19:\n    /* \"#utility.yul\":503:510   */\n  0x00\n    /* \"#utility.yul\":532:556   */\n  tag_51\n    /* \"#utility.yul\":550:555   */\n  dup3\n    /* \"#utility.yul\":532:556   */\n  tag_18\n  jump\t// in\ntag_51:\n    /* \"#utility.yul\":521:556   */\n  swap1\n  pop\n    /* \"#utility.yul\":466:562   */\n  swap2\n  swap1\n  pop\n  jump\t// out\n    /* \"#utility.yul\":568:690   */\ntag_20:\n    /* \"#utility.yul\":641:665   */\n  tag_53\n    /* \"#utility.yul\":659:664   */\n  dup2\n    /* \"#utility.yul\":641:665   */\n  tag_19\n  jump\t// in\ntag_53:\n    /* \"#utility.yul\":634:639   */\n  dup2\n    /* \"#utility.yul\":631:666   */\n  eq\n    /* \"#utility.yul\":621:684   */\n  tag_54\n  jumpi\n    /* \"#utility.yul\":680:681   */\n  0x00\n    /* \"#utility.yul\":677:678   */\n  dup1\n    /* \"#utility.yul\":670:682   */\n  revert\n    /* \"#utility.yul\":621:684   */\ntag_54:\n    /* \"#utility.yul\":568:690   */\n  pop\n  jump\t// out\n    /* \"#utility.yul\":696:839   */\ntag_21:\n    /* \"#utility.yul\":753:758   */\n  0x00\n    /* \"#utility.yul\":784:790   */\n  dup2\n    /* \"#utility.yul\":778:791   */\n  mload\n    /* \"#utility.yul\":769:791   */\n  swap1\n  pop\n    /* \"#utility.yul\":800:833   */\n  tag_56\n    /* \"#utility.yul\":827:832   */\n  dup2\n    /* \"#utility.yul\":800:833   */\n  tag_20\n  jump\t// in\ntag_56:\n    /* \"#utility.yul\":696:839   */\n  swap3\n  swap2\n  pop\n  pop\n  jump\t// out\n    /* \"#utility.yul\":845:1196   */\ntag_3:\n    /* \"#utility.yul\":915:921   */\n  0x00\n    /* \"#utility.yul\":964:966   */\n  0x20\n    /* \"#utility.yul\":952:961   */\n  dup3\n    /* \"#utility.yul\":943:950   */\n  dup5\n    /* \"#utility.yul\":939:962   */\n  sub\n    /* \"#utility.yul\":935:967   */\n  slt\n    /* \"#utility.yul\":932:1051   */\n  iszero\n  tag_58\n  jumpi\n    /* \"#utility.yul\":970:1049   */\n  tag_59\n  tag_16\n  jump\t// in\ntag_59:\n    /* \"#utility.yul\":932:1051   */\ntag_58:\n    /* \"#utility.yul\":1090:1091   */\n  0x00\n    /* \"#utility.yul\":1115:1179   */\n  tag_60\n    /* \"#utility.yul\":1171:1178   */\n  dup5\n    /* \"#utility.yul\":1162:1168   */\n  dup3\n    /* \"#utility.yul\":1151:1160   */\n  dup6\n    /* \"#utility.yul\":1147:1169   */\n  add\n    /* \"#utility.yul\":1115:1179   */\n  tag_21\n  jump\t// in\ntag_60:\n    /* \"#utility.yul\":1105:1179   */\n  swap2\n  pop\n    /* \"#utility.yul\":1061:1189   */\n  pop\n    /* \"#utility.yul\":845:1196   */\n  swap3\n  swap2\n  pop\n  pop\n  jump\t// out\n    /* \"#utility.yul\":1202:1301   */\ntag_22:\n    /* \"#utility.yul\":1254:1260   */\n  0x00\n    /* \"#utility.yul\":1288:1293   */\n  dup2\n    /* \"#utility.yul\":1282:1294   */\n  mload\n    /* \"#utility.yul\":1272:1294   */\n  swap1\n  pop\n    /* \"#utility.yul\":1202:1301   */\n  swap2\n  swap1\n  pop\n  jump\t// out\n    /* \"#utility.yul\":1307:1487   */\ntag_23:\n    /* \"#utility.yul\":1355:1432   */\n  0x4e487b7100000000000000000000000000000000000000000000000000000000\n    /* \"#utility.yul\":1352:1353   */\n  0x00\n    /* \"#utility.yul\":1345:1433   */\n  mstore\n    /* \"#utility.yul\":1452:1456   */\n  0x41\n    /* \"#utility.yul\":1449:1450   */\n  0x04\n    /* \"#utility.yul\":1442:1457   */\n  mstore\n    /* \"#utility.yul\":1476:1480   */\n  0x24\n    /* \"#utility.yul\":1473:1474   */\n  0x00\n    /* \"#utility.yul\":1466:1481   */\n  revert\n    /* \"#utility.yul\":1493:1673   */\ntag_24:\n    /* \"#utility.yul\":1541:1618   */\n  0x4e487b7100000000000000000000000000000000000000000000000000000000\n    /* \"#utility.yul\":1538:1539   */\n  0x00\n    /* \"#utility.yul\":1531:1619   */\n  mstore\n    /* \"#utility.yul\":1638:1642   */\n  0x22\n    /* \"#utility.yul\":1635:1636   */\n  0x04\n    /* \"#utility.yul\":1628:1643   */\n  mstore\n    /* \"#utility.yul\":1662:1666   */\n  0x24\n    /* \"#utility.yul\":1659:1660   */\n  0x00\n    /* \"#utility.yul\":1652:1667   */\n  revert\n    /* \"#utility.yul\":1679:1999   */\ntag_25:\n    /* \"#utility.yul\":1723:1729   */\n  0x00\n    /* \"#utility.yul\":1760:1761   */\n  0x02\n    /* \"#utility.yul\":1754:1758   */\n  dup3\n    /* \"#utility.yul\":1750:1762   */\n  div\n    /* \"#utility.yul\":1740:1762   */\n  swap1\n  pop\n    /* \"#utility.yul\":1807:1808   */\n  0x01\n    /* \"#utility.yul\":1801:1805   */\n  dup3\n    /* \"#utility.yul\":1797:1809   */\n  and\n    /* \"#utility.yul\":1828:1846   */\n  dup1\n    /* \"#utility.yul\":1818:1899   */\n  tag_65\n  jumpi\n    /* \"#utility.yul\":1884:1888   */\n  0x7f\n    /* \"#utility.yul\":1876:1882   */\n  dup3\n    /* \"#utility.yul\":1872:1889   */\n  and\n    /* \"#utility.yul\":1862:1889   */\n  swap2\n  pop\n    /* \"#utility.yul\":1818:1899   */\ntag_65:\n    /* \"#utility.yul\":1946:1948   */\n  0x20\n    /* \"#utility.yul\":1938:1944   */\n  dup3\n    /* \"#utility.yul\":1935:1949   */\n  lt\n    /* \"#utility.yul\":1915:1933   */\n  dup2\n    /* \"#utility.yul\":1912:1950   */\n  sub\n    /* \"#utility.yul\":1909:1993   */\n  tag_66\n  jumpi\n    /* \"#utility.yul\":1965:1983   */\n  tag_67\n  tag_24\n  jump\t// in\ntag_67:\n    /* \"#utility.yul\":1909:1993   */\ntag_66:\n    /* \"#utility.yul\":1730:1999   */\n  pop\n    /* \"#utility.yul\":1679:1999   */\n  swap2\n  swap1\n  pop\n  jump\t// out\n    /* \"#utility.yul\":2005:2146   */\ntag_26:\n    /* \"#utility.yul\":2054:2058   */\n  0x00\n    /* \"#utility.yul\":2077:2080   */\n  dup2\n    /* \"#utility.yul\":2069:2080   */\n  swap1\n  pop\n    /* \"#utility.yul\":2100:2103   */\n  dup2\n    /* \"#utility.yul\":2097:2098   */\n  0x00\n    /* \"#utility.yul\":2090:2104   */\n  mstore\n    /* \"#utility.yul\":2134:2138   */\n  0x20\n    /* \"#utility.yul\":2131:2132   */\n  0x00\n    /* \"#utility.yul\":2121:2139   */\n  keccak256\n    /* \"#utility.yul\":2113:2139   */\n  swap1\n  pop\n    /* \"#utility.yul\":2005:2146   */\n  swap2\n  swap1\n  pop\n  jump\t// out\n    /* \"#utility.yul\":2152:2245   */\ntag_27:\n    /* \"#utility.yul\":2189:2195   */\n  0x00\n    /* \"#utility.yul\":2236:2238   */\n  0x20\n    /* \"#utility.yul\":2231:2233   */\n  0x1f\n    /* \"#utility.yul\":2224:2229   */\n  dup4\n    /* \"#utility.yul\":2220:2234   */\n  add\n    /* \"#utility.yul\":2216:2239   */\n  div\n    /* \"#utility.yul\":2206:2239   */\n  swap1\n  pop\n    /* \"#utility.yul\":2152:2245   */\n  swap2\n  swap1\n  pop\n  jump\t// out\n    /* \"#utility.yul\":2251:2358   */\ntag_28:\n    /* \"#utility.yul\":2295:2303   */\n  0x00\n    /* \"#utility.yul\":2345:2350   */\n  dup3\n    /* \"#utility.yul\":2339:2343   */\n  dup3\n    /* \"#utility.yul\":2335:2351   */\n  shl\n    /* \"#utility.yul\":2314:2351   */\n  swap1\n  pop\n    /* \"#utility.yul\":2251:2358   */\n  swap3\n  swap2\n  pop\n  pop\n  jump\t// out\n    /* \"#utility.yul\":2364:2757   */\ntag_29:\n    /* \"#utility.yul\":2433:2439   */\n  0x00\n    /* \"#utility.yul\":2483:2484   */\n  0x08\n    /* \"#utility.yul\":2471:2481   */\n  dup4\n    /* \"#utility.yul\":2467:2485   */\n  mul\n    /* \"#utility.yul\":2506:2603   */\n  tag_72\n    /* \"#utility.yul\":2536:2602   */\n  0xffffffffffffffffffffffffffffffffffffffffffffffffffffffffffffffff\n    /* \"#utility.yul\":2525:2534   */\n  dup3\n    /* \"#utility.yul\":2506:2603   */\n  tag_28\n  jump\t// in\ntag_72:\n    /* \"#utility.yul\":2624:2663   */\n  tag_73\n    /* \"#utility.yul\":2654:2662   */\n  dup7\n    /* \"#utility.yul\":2643:2652   */\n  dup4\n    /* \"#utility.yul\":2624:2663   */\n  tag_28\n  jump\t// in\ntag_73:\n    /* \"#utility.yul\":2612:2663   */\n  swap6\n  pop\n    /* \"#utility.yul\":2696:2700   */\n  dup1\n    /* \"#utility.yul\":2692:2701   */\n  not\n    /* \"#utility.yul\":2685:2690   */\n  dup5\n    /* \"#utility.yul\":2681:2702   */\n  and\n    /* \"#utility.yul\":2672:2702   */\n  swap4\n  pop\n    /* \"#utility.yul\":2745:2749   */\n  dup1\n    /* \"#utility.yul\":2735:2743   */\n  dup7\n    /* \"#utility.yul\":2731:2750   */\n  and\n    /* \"#utility.yul\":2724:2729   */\n  dup5\n    /* \"#utility.yul\":2721:2751   */\n  or\n    /* \"#utility.yul\":2711:2751   */\n  swap3\n  pop\n    /* \"#utility.yul\":2440:2757   */\n  pop\n  pop\n    /* \"#utility.yul\":2364:2757   */\n  swap4\n  swap3\n  pop\n  pop\n  pop\n  jump\t// out\n    /* \"#utility.yul\":2763:2840   */\ntag_30:\n    /* \"#utility.yul\":2800:2807   */\n  0x00\n    /* \"#utility.yul\":2829:2834   */\n  dup2\n    /* \"#utility.yul\":2818:2834   */\n  swap1\n  pop\n    /* \"#utility.yul\":2763:2840   */\n  swap2\n  swap1\n  pop\n  jump\t// out\n    /* \"#utility.yul\":2846:2906   */\ntag_31:\n    /* \"#utility.yul\":2874:2877   */\n  0x00\n    /* \"#utility.yul\":2895:2900   */\n  dup2\n    /* \"#utility.yul\":2888:2900   */\n  swap1\n  pop\n    /* \"#utility.yul\":2846:2906   */\n  swap2\n  swap1\n  pop\n  jump\t// out\n    /* \"#utility.yul\":2912:3054   */\ntag_32:\n    /* \"#utility.yul\":2962:2971   */\n  0x00\n    /* \"#utility.yul\":2995:3048   */\n  tag_77\n    /* \"#utility.yul\":3013:3047   */\n  tag_78\n    /* \"#utility.yul\":3022:3046   */\n  tag_79\n    /* \"#utility.yul\":3040:3045   */\n  dup5\n    /* \"#utility.yul\":3022:3046   */\n  tag_30\n  jump\t// in\ntag_79:\n    /* \"#utility.yul\":3013:3047   */\n  tag_31\n  jump\t// in\ntag_78:\n    /* \"#utility.yul\":2995:3048   */\n  tag_30\n  jump\t// in\ntag_77:\n    /* \"#utility.yul\":2982:3048   */\n  swap1\n  pop\n    /* \"#utility.yul\":2912:3054   */\n  swap2\n  swap1\n  pop\n  jump\t// out\n    /* \"#utility.yul\":3060:3135   */\ntag_33:\n    /* \"#utility.yul\":3103:3106   */\n  0x00\n    /* \"#utility.yul\":3124:3129   */\n  dup2\n    /* \"#utility.yul\":3117:3129   */\n  swap1\n  pop\n    /* \"#utility.yul\":3060:3135   */\n  swap2\n  swap1\n  pop\n  jump\t// out\n    /* \"#utility.yul\":3141:3410   */\ntag_34:\n    /* \"#utility.yul\":3251:3290   */\n  tag_82\n    /* \"#utility.yul\":3282:3289   */\n  dup4\n    /* \"#utility.yul\":3251:3290   */\n  tag_32\n  jump\t// in\ntag_82:\n    /* \"#utility.yul\":3312:3403   */\n  tag_83\n    /* \"#utility.yul\":3361:3402   */\n  tag_84\n    /* \"#utility.yul\":3385:3401   */\n  dup3\n    /* \"#utility.yul\":3361:3402   */\n  tag_33\n  jump\t// in\ntag_84:\n    /* \"#utility.yul\":3353:3359   */\n  dup5\n    /* \"#utility.yul\":3346:3350   */\n  dup5\n    /* \"#utility.yul\":3340:3351   */\n  sload\n    /* \"#utility.yul\":3312:3403   */\n  tag_29\n  jump\t// in\ntag_83:\n    /* \"#utility.yul\":3306:3310   */\n  dup3\n    /* \"#utility.yul\":3299:3404   */\n  sstore\n    /* \"#utility.yul\":3217:3410   */\n  pop\n    /* \"#utility.yul\":3141:3410   */\n  pop\n  pop\n  pop\n  jump\t// out\n    /* \"#utility.yul\":3416:3489   */\ntag_35:\n    /* \"#utility.yul\":3461:3464   */\n  0x00\n    /* \"#utility.yul\":3416:3489   */\n  swap1\n  jump\t// out\n    /* \"#utility.yul\":3495:3684   */\ntag_36:\n    /* \"#utility.yul\":3572:3604   */\n  tag_87\n  tag_35\n  jump\t// in\ntag_87:\n    /* \"#utility.yul\":3613:3678   */\n  tag_88\n    /* \"#utility.yul\":3671:3677   */\n  dup2\n    /* \"#utility.yul\":3663:3669   */\n  dup5\n    /* \"#utility.yul\":3657:3661   */\n  dup5\n    /* \"#utility.yul\":3613:3678   */\n  tag_34\n  jump\t// in\ntag_88:\n    /* \"#utility.yul\":3548:3684   */\n  pop\n    /* \"#utility.yul\":3495:3684   */\n  pop\n  pop\n  jump\t// out\n    /* \"#utility.yul\":3690:3876   */\ntag_37:\n    /* \"#utility.yul\":3750:3870   */\ntag_90:\n    /* \"#utility.yul\":3767:3770   */\n  dup2\n    /* \"#utility.yul\":3760:3765   */\n  dup2\n    /* \"#utility.yul\":3757:3771   */\n  lt\n    /* \"#utility.yul\":3750:3870   */\n  iszero\n  tag_92\n  jumpi\n    /* \"#utility.yul\":3821:3860   */\n  tag_93\n    /* \"#utility.yul\":3858:3859   */\n  0x00\n    /* \"#utility.yul\":3851:3856   */\n  dup3\n    /* \"#utility.yul\":3821:3860   */\n  tag_36\n  jump\t// in\ntag_93:\n    /* \"#utility.yul\":3794:3795   */\n  0x01\n    /* \"#utility.yul\":3787:3792   */\n  dup2\n    /* \"#utility.yul\":3783:3796   */\n  add\n    /* \"#utility.yul\":3774:3796   */\n  swap1\n  pop\n    /* \"#utility.yul\":3750:3870   */\n  jump(tag_90)\ntag_92:\n    /* \"#utility.yul\":3690:3876   */\n  pop\n  pop\n  jump\t// out\n    /* \"#utility.yul\":3882:4425   */\ntag_38:\n    /* \"#utility.yul\":3983:3985   */\n  0x1f\n    /* \"#utility.yul\":3978:3981   */\n  dup3\n    /* \"#utility.yul\":3975:3986   */\n  gt\n    /* \"#utility.yul\":3972:4418   */\n  iszero\n  tag_95\n  jumpi\n    /* \"#utility.yul\":4017:4055   */\n  tag_96\n    /* \"#utility.yul\":4049:4054   */\n  dup2\n    /* \"#utility.yul\":4017:4055   */\n  tag_26\n  jump\t// in\ntag_96:\n    /* \"#utility.yul\":4101:4130   */\n  tag_97\n    /* \"#utility.yul\":4119:4129   */\n  dup5\n    /* \"#utility.yul\":4101:4130   */\n  tag_27\n  jump\t// in\ntag_97:\n    /* \"#utility.yul\":4091:4099   */\n  dup2\n    /* \"#utility.yul\":4087:4131   */\n  add\n    /* \"#utility.yul\":4284:4286   */\n  0x20\n    /* \"#utility.yul\":4272:4282   */\n  dup6\n    /* \"#utility.yul\":4269:4287   */\n  lt\n    /* \"#utility.yul\":4266:4315   */\n  iszero\n  tag_98\n  jumpi\n    /* \"#utility.yul\":4305:4313   */\n  dup2\n    /* \"#utility.yul\":4290:4313   */\n  swap1\n  pop\n    /* \"#utility.yul\":4266:4315   */\ntag_98:\n    /* \"#utility.yul\":4328:4408   */\n  tag_99\n    /* \"#utility.yul\":4384:4406   */\n  tag_100\n    /* \"#utility.yul\":4402:4405   */\n  dup6\n    /* \"#utility.yul\":4384:4406   */\n  tag_27\n  jump\t// in\ntag_100:\n    /* \"#utility.yul\":4374:4382   */\n  dup4\n    /* \"#utility.yul\":4370:4407   */\n  add\n    /* \"#utility.yul\":4357:4368   */\n  dup3\n    /* \"#utility.yul\":4328:4408   */\n  tag_37\n  jump\t// in\ntag_99:\n    /* \"#utility.yul\":3987:4418   */\n  pop\n  pop\n    /* \"#utility.yul\":3972:4418   */\ntag_95:\n    /* \"#utility.yul\":3882:4425   */\n  pop\n  pop\n  pop\n  jump\t// out\n    /* \"#utility.yul\":4431:4548   */\ntag_39:\n    /* \"#utility.yul\":4485:4493   */\n  0x00\n    /* \"#utility.yul\":4535:4540   */\n  dup3\n    /* \"#utility.yul\":4529:4533   */\n  dup3\n    /* \"#utility.yul\":4525:4541   */\n  shr\n    /* \"#utility.yul\":4504:4541   */\n  swap1\n  pop\n    /* \"#utility.yul\":4431:4548   */\n  swap3\n  swap2\n  pop\n  pop\n  jump\t// out\n    /* \"#utility.yul\":4554:4723   */\ntag_40:\n    /* \"#utility.yul\":4598:4604   */\n  0x00\n    /* \"#utility.yul\":4631:4682   */\n  tag_103\n    /* \"#utility.yul\":4679:4680   */\n  0x00\n    /* \"#utility.yul\":4675:4681   */\n  not\n    /* \"#utility.yul\":4667:4672   */\n  dup5\n    /* \"#utility.yul\":4664:4665   */\n  0x08\n    /* \"#utility.yul\":4660:4673   */\n  mul\n    /* \"#utility.yul\":4631:4682   */\n  tag_39\n  jump\t// in\ntag_103:\n    /* \"#utility.yul\":4627:4683   */\n  not\n    /* \"#utility.yul\":4712:4716   */\n  dup1\n    /* \"#utility.yul\":4706:4710   */\n  dup4\n    /* \"#utility.yul\":4702:4717   */\n  and\n    /* \"#utility.yul\":4692:4717   */\n  swap2\n  pop\n    /* \"#utility.yul\":4605:4723   */\n  pop\n    /* \"#utility.yul\":4554:4723   */\n  swap3\n  swap2\n  pop\n  pop\n  jump\t// out\n    /* \"#utility.yul\":4728:5023   */\ntag_41:\n    /* \"#utility.yul\":4804:4808   */\n  0x00\n    /* \"#utility.yul\":4950:4979   */\n  tag_105\n    /* \"#utility.yul\":4975:4978   */\n  dup4\n    /* \"#utility.yul\":4969:4973   */\n  dup4\n    /* \"#utility.yul\":4950:4979   */\n  tag_40\n  jump\t// in\ntag_105:\n    /* \"#utility.yul\":4942:4979   */\n  swap2\n  pop\n    /* \"#utility.yul\":5012:5015   */\n  dup3\n    /* \"#utility.yul\":5009:5010   */\n  0x02\n    /* \"#utility.yul\":5005:5016   */\n  mul\n    /* \"#utility.yul\":4999:5003   */\n  dup3\n    /* \"#utility.yul\":4996:5017   */\n  or\n    /* \"#utility.yul\":4988:5017   */\n  swap1\n  pop\n    /* \"#utility.yul\":4728:5023   */\n  swap3\n  swap2\n  pop\n  pop\n  jump\t// out\n    /* \"#utility.yul\":5028:6423   */\ntag_8:\n    /* \"#utility.yul\":5145:5182   */\n  tag_107\n    /* \"#utility.yul\":5178:5181   */\n  dup3\n    /* \"#utility.yul\":5145:5182   */\n  tag_22\n  jump\t// in\ntag_107:\n    /* \"#utility.yul\":5247:5265   */\n  0xffffffffffffffff\n    /* \"#utility.yul\":5239:5245   */\n  dup2\n    /* \"#utility.yul\":5236:5266   */\n  gt\n    /* \"#utility.yul\":5233:5289   */\n  iszero\n  tag_108\n  jumpi\n    /* \"#utility.yul\":5269:5287   */\n  tag_109\n  tag_23\n  jump\t// in\ntag_109:\n    /* \"#utility.yul\":5233:5289   */\ntag_108:\n    /* \"#utility.yul\":5313:5351   */\n  tag_110\n    /* \"#utility.yul\":5345:5349   */\n  dup3\n    /* \"#utility.yul\":5339:5350   */\n  sload\n    /* \"#utility.yul\":5313:5351   */\n  tag_25\n  jump\t// in\ntag_110:\n    /* \"#utility.yul\":5398:5465   */\n  tag_111\n    /* \"#utility.yul\":5458:5464   */\n  dup3\n    /* \"#utility.yul\":5450:5456   */\n  dup3\n    /* \"#utility.yul\":5444:5448   */\n  dup6\n    /* \"#utility.yul\":5398:5465   */\n  tag_38\n  jump\t// in\ntag_111:\n    /* \"#utility.yul\":5492:5493   */\n  0x00\n    /* \"#utility.yul\":5516:5520   */\n  0x20\n    /* \"#utility.yul\":5503:5520   */\n  swap1\n  pop\n    /* \"#utility.yul\":5548:5550   */\n  0x1f\n    /* \"#utility.yul\":5540:5546   */\n  dup4\n    /* \"#utility.yul\":5537:5551   */\n  gt\n    /* \"#utility.yul\":5565:5566   */\n  0x01\n    /* \"#utility.yul\":5560:6178   */\n  dup2\n  eq\n  tag_113\n  jumpi\n    /* \"#utility.yul\":6222:6223   */\n  0x00\n    /* \"#utility.yul\":6239:6245   */\n  dup5\n    /* \"#utility.yul\":6236:6313   */\n  iszero\n  tag_114\n  jumpi\n    /* \"#utility.yul\":6288:6297   */\n  dup3\n    /* \"#utility.yul\":6283:6286   */\n  dup8\n    /* \"#utility.yul\":6279:6298   */\n  add\n    /* \"#utility.yul\":6273:6299   */\n  mload\n    /* \"#utility.yul\":6264:6299   */\n  swap1\n  pop\n    /* \"#utility.yul\":6236:6313   */\ntag_114:\n    /* \"#utility.yul\":6339:6406   */\n  tag_115\n    /* \"#utility.yul\":6399:6405   */\n  dup6\n    /* \"#utility.yul\":6392:6397   */\n  dup3\n    /* \"#utility.yul\":6339:6406   */\n  tag_41\n  jump\t// in\ntag_115:\n    /* \"#utility.yul\":6333:6337   */\n  dup7\n    /* \"#utility.yul\":6326:6407   */\n  sstore\n    /* \"#utility.yul\":6195:6417   */\n  pop\n    /* \"#utility.yul\":5530:6417   */\n  jump(tag_112)\n    /* \"#utility.yul\":5560:6178   */\ntag_113:\n    /* \"#utility.yul\":5612:5616   */\n  0x1f\n    /* \"#utility.yul\":5608:5617   */\n  not\n    /* \"#utility.yul\":5600:5606   */\n  dup5\n    /* \"#utility.yul\":5596:5618   */\n  and\n    /* \"#utility.yul\":5646:5683   */\n  tag_116\n    /* \"#utility.yul\":5678:5682   */\n  dup7\n    /* \"#utility.yul\":5646:5683   */\n  tag_26\n  jump\t// in\ntag_116:\n    /* \"#utility.yul\":5705:5706   */\n  0x00\n    /* \"#utility.yul\":5719:5927   */\ntag_117:\n    /* \"#utility.yul\":5733:5740   */\n  dup3\n    /* \"#utility.yul\":5730:5731   */\n  dup2\n    /* \"#utility.yul\":5727:5741   */\n  lt\n    /* \"#utility.yul\":5719:5927   */\n  iszero\n  tag_119\n  jumpi\n    /* \"#utility.yul\":5812:5821   */\n  dup5\n    /* \"#utility.yul\":5807:5810   */\n  dup10\n    /* \"#utility.yul\":5803:5822   */\n  add\n    /* \"#utility.yul\":5797:5823   */\n  mload\n    /* \"#utility.yul\":5789:5795   */\n  dup3\n    /* \"#utility.yul\":5782:5824   */\n  sstore\n    /* \"#utility.yul\":5863:5864   */\n  0x01\n    /* \"#utility.yul\":5855:5861   */\n  dup3\n    /* \"#utility.yul\":5851:5865   */\n  add\n    /* \"#utility.yul\":5841:5865   */\n  swap2\n  pop\n    /* \"#utility.yul\":5910:5912   */\n  0x20\n    /* \"#utility.yul\":5899:5908   */\n  dup6\n    /* \"#utility.yul\":5895:5913   */\n  add\n    /* \"#utility.yul\":5882:5913   */\n  swap5\n  pop\n    /* \"#utility.yul\":5756:5760   */\n  0x20\n    /* \"#utility.yul\":5753:5754   */\n  dup2\n    /* \"#utility.yul\":5749:5761   */\n  add\n    /* \"#utility.yul\":5744:5761   */\n  swap1\n  pop\n    /* \"#utility.yul\":5719:5927   */\n  jump(tag_117)\ntag_119:\n    /* \"#utility.yul\":5955:5961   */\n  dup7\n    /* \"#utility.yul\":5946:5953   */\n  dup4\n    /* \"#utility.yul\":5943:5962   */\n  lt\n    /* \"#utility.yul\":5940:6119   */\n  iszero\n  tag_120\n  jumpi\n    /* \"#utility.yul\":6013:6022   */\n  dup5\n    /* \"#utility.yul\":6008:6011   */\n  dup10\n    /* \"#utility.yul\":6004:6023   */\n  add\n    /* \"#utility.yul\":5998:6024   */\n  mload\n    /* \"#utility.yul\":6056:6104   */\n  tag_121\n    /* \"#utility.yul\":6098:6102   */\n  0x1f\n    /* \"#utility.yul\":6090:6096   */\n  dup10\n    /* \"#utility.yul\":6086:6103   */\n  and\n    /* \"#utility.yul\":6075:6084   */\n  dup3\n    /* \"#utility.yul\":6056:6104   */\n  tag_40\n  jump\t// in\ntag_121:\n    /* \"#utility.yul\":6048:6054   */\n  dup4\n    /* \"#utility.yul\":6041:6105   */\n  sstore\n    /* \"#utility.yul\":5963:6119   */\n  pop\n    /* \"#utility.yul\":5940:6119   */\ntag_120:\n    /* \"#utility.yul\":6165:6166   */\n  0x01\n    /* \"#utility.yul\":6161:6162   */\n  0x02\n    /* \"#utility.yul\":6153:6159   */\n  dup9\n    /* \"#utility.yul\":6149:6163   */\n  mul\n    /* \"#utility.yul\":6145:6167   */\n  add\n    /* \"#utility.yul\":6139:6143   */\n  dup9\n    /* \"#utility.yul\":6132:6168   */\n  sstore\n    /* \"#utility.yul\":5567:6178   */\n  pop\n  pop\n  pop\n    /* \"#utility.yul\":5530:6417   */\ntag_112:\n  pop\n    /* \"#utility.yul\":5120:6423   */\n  pop\n  pop\n  pop\n    /* \"#utility.yul\":5028:6423   */\n  pop\n  pop\n  jump\t// out\n    /* \"#utility.yul\":6429:6598   */\ntag_42:\n    /* \"#utility.yul\":6513:6524   */\n  0x00\n    /* \"#utility.yul\":6547:6553   */\n  dup3\n    /* \"#utility.yul\":6542:6545   */\n  dup3\n    /* \"#utility.yul\":6535:6554   */\n  mstore\n    /* \"#utility.yul\":6587:6591   */\n  0x20\n    /* \"#utility.yul\":6582:6585   */\n  dup3\n    /* \"#utility.yul\":6578:6592   */\n  add\n    /* \"#utility.yul\":6563:6592   */\n  swap1\n  pop\n    /* \"#utility.yul\":6429:6598   */\n  swap3\n  swap2\n  pop\n  pop\n  jump\t// out\n    /* \"#utility.yul\":6604:6775   */\ntag_43:\n    /* \"#utility.yul\":6744:6767   */\n  0x496e76616c696420746f6b656e20616464726573730000000000000000000000\n    /* \"#utility.yul\":6740:6741   */\n  0x00\n    /* \"#utility.yul\":6732:6738   */\n  dup3\n    /* \"#utility.yul\":6728:6742   */\n  add\n    /* \"#utility.yul\":6721:6768   */\n  mstore\n    /* \"#utility.yul\":6604:6775   */\n  pop\n  jump\t// out\n    /* \"#utility.yul\":6781:7147   */\ntag_44:\n    /* \"#utility.yul\":6923:6926   */\n  0x00\n    /* \"#utility.yul\":6944:7011   */\n  tag_125\n    /* \"#utility.yul\":7008:7010   */\n  0x15\n    /* \"#utility.yul\":7003:7006   */\n  dup4\n    /* \"#utility.yul\":6944:7011   */\n  tag_42\n  jump\t// in\ntag_125:\n    /* \"#utility.yul\":6937:7011   */\n  swap2\n  pop\n    /* \"#utility.yul\":7020:7113   */\n  tag_126\n    /* \"#utility.yul\":7109:7112   */\n  dup3\n    /* \"#utility.yul\":7020:7113   */\n  tag_43\n  jump\t// in\ntag_126:\n    /* \"#utility.yul\":7138:7140   */\n  0x20\n    /* \"#utility.yul\":7133:7136   */\n  dup3\n    /* \"#utility.yul\":7129:7141   */\n  add\n    /* \"#utility.yul\":7122:7141   */\n  swap1\n  pop\n    /* \"#utility.yul\":6781:7147   */\n  swap2\n  swap1\n  pop\n  jump\t// out\n    /* \"#utility.yul\":7153:7572   */\ntag_13:\n    /* \"#utility.yul\":7319:7323   */\n  0x00\n    /* \"#utility.yul\":7357:7359   */\n  0x20\n    /* \"#utility.yul\":7346:7355   */\n  dup3\n    /* \"#utility.yul\":7342:7360   */\n  add\n    /* \"#utility.yul\":7334:7360   */\n  swap1\n  pop\n    /* \"#utility.yul\":7406:7415   */\n  dup2\n    /* \"#utility.yul\":7400:7404   */\n  dup2\n    /* \"#utility.yul\":7396:7416   */\n  sub\n    /* \"#utility.yul\":7392:7393   */\n  0x00\n    /* \"#utility.yul\":7381:7390   */\n  dup4\n    /* \"#utility.yul\":7377:7394   */\n  add\n    /* \"#utility.yul\":7370:7417   */\n  mstore\n    /* \"#utility.yul\":7434:7565   */\n  tag_128\n    /* \"#utility.yul\":7560:7564   */\n  dup2\n    /* \"#utility.yul\":7434:7565   */\n  tag_44\n  jump\t// in\ntag_128:\n    /* \"#utility.yul\":7426:7565   */\n  swap1\n  pop\n    /* \"#utility.yul\":7153:7572   */\n  swap2\n  swap1\n  pop\n  jump\t// out\n    /* \"contracts/Exchange.sol\":346:5178  contract Exchange is ERC20, IExchange {... */\ntag_14:\n  dataSize(sub_0)\n  dup1\n  dataOffset(sub_0)\n  0x00\n  codecopy\n  0x00\n  return\nstop\n\nsub_0: assembly {\n        /* \"contracts/Exchange.sol\":346:5178  contract Exchange is ERC20, IExchange {... */\n      mstore(0x40, 0x80)\n      jumpi(tag_1, lt(calldatasize, 0x04))\n      shr(0xe0, calldataload(0x00))\n      dup1\n      0x95d89b41\n      gt\n      tag_23\n      jumpi\n      dup1\n      0xa9059cbb\n      gt\n      tag_24\n      jumpi\n      dup1\n      0xa9059cbb\n      eq\n      tag_17\n      jumpi\n      dup1\n      0xc2507ac1\n      eq\n      tag_18\n      jumpi\n      dup1\n      0xdd62ed3e\n      eq\n      tag_19\n      jumpi\n      dup1\n      0xe0486c8a\n      eq\n      tag_20\n      jumpi\n      dup1\n      0xf7a7e324\n      eq\n      tag_21\n      jumpi\n      dup1\n      0xf979dcd7\n      eq\n      tag_22\n      jumpi\n      jump(tag_1)\n    tag_24:\n      dup1\n      0x95d89b41\n      eq\n      tag_12\n      jumpi\n      dup1\n      0x966dae0e\n      eq\n      tag_13\n      jumpi\n      dup1\n      0x9c8f9f23\n      eq\n      tag_14\n      jumpi\n      dup1\n      0x9d76ea58\n      eq\n      tag_15\n      jumpi\n      dup1\n      0xa457c2d7\n      eq\n      tag_16\n      jumpi\n      jump(tag_1)\n    tag_23:\n      dup1\n      0x39509351\n      gt\n      tag_25\n      jumpi\n      dup1\n      0x39509351\n      eq\n      tag_7\n      jumpi\n      dup1\n      0x51c6590a\n      eq\n      tag_8\n      jumpi\n      dup1\n      0x59bf5d39\n      eq\n      tag_9\n      jumpi\n      dup1\n      0x70a08231\n      eq\n      tag_10\n      jumpi\n      dup1\n      0x8fc7a25d\n      eq\n      tag_11\n      jumpi\n      jump(tag_1)\n    tag_25:\n      dup1\n      0x06fdde03\n      eq\n      tag_2\n      jumpi\n      dup1\n      0x095ea7b3\n      eq\n      tag_3\n      jumpi\n      dup1\n      0x18160ddd\n      eq\n      tag_4\n      jumpi\n      dup1\n      0x23b872dd\n      eq\n      tag_5\n      jumpi\n      dup1\n      0x313ce567\n      eq\n      tag_6\n      jumpi\n    tag_1:\n      0x00\n      dup1\n      revert\n        /* \"https://github.com/OpenZeppelin/openzeppelin-contracts/blob/master/contracts/token/ERC20/ERC20.sol\":2357:2446  function name() public view virtual returns (string memory) {... */\n    tag_2:\n      callvalue\n      dup1\n      iszero\n      tag_26\n      jumpi\n      0x00\n      dup1\n      revert\n    tag_26:\n      pop\n      tag_27\n      tag_28\n      jump\t// in\n    tag_27:\n      mload(0x40)\n      tag_29\n      swap2\n      swap1\n      tag_30\n      jump\t// in\n    tag_29:\n      mload(0x40)\n      dup1\n      swap2\n      sub\n      swap1\n      return\n        /* \"https://github.com/OpenZeppelin/openzeppelin-contracts/blob/master/contracts/token/ERC20/ERC20.sol\":4580:4768  function approve(address spender, uint256 amount) public virtual returns (bool) {... */\n    tag_3:\n      callvalue\n      dup1\n      iszero\n      tag_31\n      jumpi\n      0x00\n      dup1\n      revert\n    tag_31:\n      pop\n      tag_32\n      0x04\n      dup1\n      calldatasize\n      sub\n      dup2\n      add\n      swap1\n      tag_33\n      swap2\n      swap1\n      tag_34\n      jump\t// in\n    tag_33:\n      tag_35\n      jump\t// in\n    tag_32:\n      mload(0x40)\n      tag_36\n      swap2\n      swap1\n      tag_37\n      jump\t// in\n    tag_36:\n      mload(0x40)\n      dup1\n      swap2\n      sub\n      swap1\n      return\n        /* \"https://github.com/OpenZeppelin/openzeppelin-contracts/blob/master/contracts/token/ERC20/ERC20.sol\":3427:3524  function totalSupply() public view virtual returns (uint256) {... */\n    tag_4:\n      callvalue\n      dup1\n      iszero\n      tag_38\n      jumpi\n      0x00\n      dup1\n      revert\n    tag_38:\n      pop\n      tag_39\n      tag_40\n      jump\t// in\n    tag_39:\n      mload(0x40)\n      tag_41\n      swap2\n      swap1\n      tag_42\n      jump\t// in\n    tag_41:\n      mload(0x40)\n      dup1\n      swap2\n      sub\n      swap1\n      return\n        /* \"https://github.com/OpenZeppelin/openzeppelin-contracts/blob/master/contracts/token/ERC20/ERC20.sol\":5330:5577  function transferFrom(address from, address to, uint256 amount) public virtual returns (bool) {... */\n    tag_5:\n      callvalue\n      dup1\n      iszero\n      tag_43\n      jumpi\n      0x00\n      dup1\n      revert\n    tag_43:\n      pop\n      tag_44\n      0x04\n      dup1\n      calldatasize\n      sub\n      dup2\n      add\n      swap1\n      tag_45\n      swap2\n      swap1\n      tag_46\n      jump\t// in\n    tag_45:\n      tag_47\n      jump\t// in\n    tag_44:\n      mload(0x40)\n      tag_48\n      swap2\n      swap1\n      tag_37\n      jump\t// in\n    tag_48:\n      mload(0x40)\n      dup1\n      swap2\n      sub\n      swap1\n      return\n        /* \"https://github.com/OpenZeppelin/openzeppelin-contracts/blob/master/contracts/token/ERC20/ERC20.sol\":3285:3367  function decimals() public view virtual returns (uint8) {... */\n    tag_6:\n      callvalue\n      dup1\n      iszero\n      tag_49\n      jumpi\n      0x00\n      dup1\n      revert\n    tag_49:\n      pop\n      tag_50\n      tag_51\n      jump\t// in\n    tag_50:\n      mload(0x40)\n      tag_52\n      swap2\n      swap1\n      tag_53\n      jump\t// in\n    tag_52:\n      mload(0x40)\n      dup1\n      swap2\n      sub\n      swap1\n      return\n        /* \"https://github.com/OpenZeppelin/openzeppelin-contracts/blob/master/contracts/token/ERC20/ERC20.sol\":5972:6206  function increaseAllowance(address spender, uint256 addedValue) public virtual returns (bool) {... */\n    tag_7:\n      callvalue\n      dup1\n      iszero\n      tag_54\n      jumpi\n      0x00\n      dup1\n      revert\n    tag_54:\n      pop\n      tag_55\n      0x04\n      dup1\n      calldatasize\n      sub\n      dup2\n      add\n      swap1\n      tag_56\n      swap2\n      swap1\n      tag_34\n      jump\t// in\n    tag_56:\n      tag_57\n      jump\t// in\n    tag_55:\n      mload(0x40)\n      tag_58\n      swap2\n      swap1\n      tag_37\n      jump\t// in\n    tag_58:\n      mload(0x40)\n      dup1\n      swap2\n      sub\n      swap1\n      return\n        /* \"contracts/Exchange.sol\":676:1505  function addLiquidity(uint _tokenAmount) external payable {... */\n    tag_8:\n      tag_59\n      0x04\n      dup1\n      calldatasize\n      sub\n      dup2\n      add\n      swap1\n      tag_60\n      swap2\n      swap1\n      tag_61\n      jump\t// in\n    tag_60:\n      tag_62\n      jump\t// in\n    tag_59:\n      stop\n        /* \"contracts/Exchange.sol\":1513:1635  function getReserve() public view returns(uint256) {... */\n    tag_9:\n      callvalue\n      dup1\n      iszero\n      tag_63\n      jumpi\n      0x00\n      dup1\n      revert\n    tag_63:\n      pop\n      tag_64\n      tag_65\n      jump\t// in\n    tag_64:\n      mload(0x40)\n      tag_66\n      swap2\n      swap1\n      tag_42\n      jump\t// in\n    tag_66:\n      mload(0x40)\n      dup1\n      swap2\n      sub\n      swap1\n      return\n        /* \"https://github.com/OpenZeppelin/openzeppelin-contracts/blob/master/contracts/token/ERC20/ERC20.sol\":3582:3698  function balanceOf(address account) public view virtual returns (uint256) {... */\n    tag_10:\n      callvalue\n      dup1\n      iszero\n      tag_67\n      jumpi\n      0x00\n      dup1\n      revert\n    tag_67:\n      pop\n      tag_68\n      0x04\n      dup1\n      calldatasize\n      sub\n      dup2\n      add\n      swap1\n      tag_69\n      swap2\n      swap1\n      tag_70\n      jump\t// in\n    tag_69:\n      tag_71\n      jump\t// in\n    tag_68:\n      mload(0x40)\n      tag_72\n      swap2\n      swap1\n      tag_42\n      jump\t// in\n    tag_72:\n      mload(0x40)\n      dup1\n      swap2\n      sub\n      swap1\n      return\n        /* \"contracts/Exchange.sol\":2380:2633  function getEthAmount(uint256 _tokenSold) public view returns(uint256) {... */\n    tag_11:\n      callvalue\n      dup1\n      iszero\n      tag_73\n      jumpi\n      0x00\n      dup1\n      revert\n    tag_73:\n      pop\n      tag_74\n      0x04\n      dup1\n      calldatasize\n      sub\n      dup2\n      add\n      swap1\n      tag_75\n      swap2\n      swap1\n      tag_61\n      jump\t// in\n    tag_75:\n      tag_76\n      jump\t// in\n    tag_74:\n      mload(0x40)\n      tag_77\n      swap2\n      swap1\n      tag_42\n      jump\t// in\n    tag_77:\n      mload(0x40)\n      dup1\n      swap2\n      sub\n      swap1\n      return\n        /* \"https://github.com/OpenZeppelin/openzeppelin-contracts/blob/master/contracts/token/ERC20/ERC20.sol\":2559:2652  function symbol() public view virtual returns (string memory) {... */\n    tag_12:\n      callvalue\n      dup1\n      iszero\n      tag_78\n      jumpi\n      0x00\n      dup1\n      revert\n    tag_78:\n      pop\n      tag_79\n      tag_80\n      jump\t// in\n    tag_79:\n      mload(0x40)\n      tag_81\n      swap2\n      swap1\n      tag_30\n      jump\t// in\n    tag_81:\n      mload(0x40)\n      dup1\n      swap2\n      sub\n      swap1\n      return\n        /* \"contracts/Exchange.sol\":425:454  address public factoryAddress */\n    tag_13:\n      callvalue\n      dup1\n      iszero\n      tag_82\n      jumpi\n      0x00\n      dup1\n      revert\n    tag_82:\n      pop\n      tag_83\n      tag_84\n      jump\t// in\n    tag_83:\n      mload(0x40)\n      tag_85\n      swap2\n      swap1\n      tag_86\n      jump\t// in\n    tag_85:\n      mload(0x40)\n      dup1\n      swap2\n      sub\n      swap1\n      return\n        /* \"contracts/Exchange.sol\":3641:4116  function removeLiquidity(uint256 _amountWithrawn) public payable {... */\n    tag_14:\n      tag_87\n      0x04\n      dup1\n      calldatasize\n      sub\n      dup2\n      add\n      swap1\n      tag_88\n      swap2\n      swap1\n      tag_61\n      jump\t// in\n    tag_88:\n      tag_89\n      jump\t// in\n    tag_87:\n      stop\n        /* \"contracts/Exchange.sol\":391:418  address public tokenAddress */\n    tag_15:\n      callvalue\n      dup1\n      iszero\n      tag_90\n      jumpi\n      0x00\n      dup1\n      revert\n    tag_90:\n      pop\n      tag_91\n      tag_92\n      jump\t// in\n    tag_91:\n      mload(0x40)\n      tag_93\n      swap2\n      swap1\n      tag_86\n      jump\t// in\n    tag_93:\n      mload(0x40)\n      dup1\n      swap2\n      sub\n      swap1\n      return\n        /* \"https://github.com/OpenZeppelin/openzeppelin-contracts/blob/master/contracts/token/ERC20/ERC20.sol\":6695:7188  function decreaseAllowance(address spender, uint256 requestedDecrease) public virtual returns (bool) {... */\n    tag_16:\n      callvalue\n      dup1\n      iszero\n      tag_94\n      jumpi\n      0x00\n      dup1\n      revert\n    tag_94:\n      pop\n      tag_95\n      0x04\n      dup1\n      calldatasize\n      sub\n      dup2\n      add\n      swap1\n      tag_96\n      swap2\n      swap1\n      tag_34\n      jump\t// in\n    tag_96:\n      tag_97\n      jump\t// in\n    tag_95:\n      mload(0x40)\n      tag_98\n      swap2\n      swap1\n      tag_37\n      jump\t// in\n    tag_98:\n      mload(0x40)\n      dup1\n      swap2\n      sub\n      swap1\n      return\n        /* \"https://github.com/OpenZeppelin/openzeppelin-contracts/blob/master/contracts/token/ERC20/ERC20.sol\":3894:4074  function transfer(address to, uint256 amount) public virtual returns (bool) {... */\n    tag_17:\n      callvalue\n      dup1\n      iszero\n      tag_99\n      jumpi\n      0x00\n      dup1\n      revert\n    tag_99:\n      pop\n      tag_100\n      0x04\n      dup1\n      calldatasize\n      sub\n      dup2\n      add\n      swap1\n      tag_101\n      swap2\n      swap1\n      tag_34\n      jump\t// in\n    tag_101:\n      tag_102\n      jump\t// in\n    tag_100:\n      mload(0x40)\n      tag_103\n      swap2\n      swap1\n      tag_37\n      jump\t// in\n    tag_103:\n      mload(0x40)\n      dup1\n      swap2\n      sub\n      swap1\n      return\n        /* \"contracts/Exchange.sol\":2124:2372  function getTokenAmount(uint256 _ethSold) public view returns(uint256) {... */\n    tag_18:\n      callvalue\n      dup1\n      iszero\n      tag_104\n      jumpi\n      0x00\n      dup1\n      revert\n    tag_104:\n      pop\n      tag_105\n      0x04\n      dup1\n      calldatasize\n      sub\n      dup2\n      add\n      swap1\n      tag_106\n      swap2\n      swap1\n      tag_61\n      jump\t// in\n    tag_106:\n      tag_107\n      jump\t// in\n    tag_105:\n      mload(0x40)\n      tag_108\n      swap2\n      swap1\n      tag_42\n      jump\t// in\n    tag_108:\n      mload(0x40)\n      dup1\n      swap2\n      sub\n      swap1\n      return\n        /* \"https://github.com/OpenZeppelin/openzeppelin-contracts/blob/master/contracts/token/ERC20/ERC20.sol\":4132:4272  function allowance(address owner, address spender) public view virtual returns (uint256) {... */\n    tag_19:\n      callvalue\n      dup1\n      iszero\n      tag_109\n      jumpi\n      0x00\n      dup1\n      revert\n    tag_109:\n      pop\n      tag_110\n      0x04\n      dup1\n      calldatasize\n      sub\n      dup2\n      add\n      swap1\n      tag_111\n      swap2\n      swap1\n      tag_112\n      jump\t// in\n    tag_111:\n      tag_113\n      jump\t// in\n    tag_110:\n      mload(0x40)\n      tag_114\n      swap2\n      swap1\n      tag_42\n      jump\t// in\n    tag_114:\n      mload(0x40)\n      dup1\n      swap2\n      sub\n      swap1\n      return\n        /* \"contracts/Exchange.sol\":3115:3633  function tokenToEthSwap(uint256 _tokenSold, uint256 _minEth) public payable returns(uint256) {... */\n    tag_20:\n      tag_115\n      0x04\n      dup1\n      calldatasize\n      sub\n      dup2\n      add\n      swap1\n      tag_116\n      swap2\n      swap1\n      tag_117\n      jump\t// in\n    tag_116:\n      tag_118\n      jump\t// in\n    tag_115:\n      mload(0x40)\n      tag_119\n      swap2\n      swap1\n      tag_42\n      jump\t// in\n    tag_119:\n      mload(0x40)\n      dup1\n      swap2\n      sub\n      swap1\n      return\n        /* \"contracts/Exchange.sol\":4124:5175  function tokenToTokenSwap(... */\n    tag_21:\n      tag_120\n      0x04\n      dup1\n      calldatasize\n      sub\n      dup2\n      add\n      swap1\n      tag_121\n      swap2\n      swap1\n      tag_122\n      jump\t// in\n    tag_121:\n      tag_123\n      jump\t// in\n    tag_120:\n      stop\n        /* \"contracts/Exchange.sol\":2641:3107  function ethToTokenSwap(uint256 _minTokens) public payable override returns(uint256) {... */\n    tag_22:\n      tag_124\n      0x04\n      dup1\n      calldatasize\n      sub\n      dup2\n      add\n      swap1\n      tag_125\n      swap2\n      swap1\n      tag_61\n      jump\t// in\n    tag_125:\n      tag_126\n      jump\t// in\n    tag_124:\n      mload(0x40)\n      tag_127\n      swap2\n      swap1\n      tag_42\n      jump\t// in\n    tag_127:\n      mload(0x40)\n      dup1\n      swap2\n      sub\n      swap1\n      return\n        /* \"https://github.com/OpenZeppelin/openzeppelin-contracts/blob/master/contracts/token/ERC20/ERC20.sol\":2357:2446  function name() public view virtual returns (string memory) {... */\n    tag_28:\n        /* \"https://github.com/OpenZeppelin/openzeppelin-contracts/blob/master/contracts/token/ERC20/ERC20.sol\":2402:2415  string memory */\n      0x60\n        /* \"https://github.com/OpenZeppelin/openzeppelin-contracts/blob/master/contracts/token/ERC20/ERC20.sol\":2434:2439  _name */\n      0x03\n        /* \"https://github.com/OpenZeppelin/openzeppelin-contracts/blob/master/contracts/token/ERC20/ERC20.sol\":2427:2439  return _name */\n      dup1\n      sload\n      tag_129\n      swap1\n      tag_130\n      jump\t// in\n    tag_129:\n      dup1\n      0x1f\n      add\n      0x20\n      dup1\n      swap2\n      div\n      mul\n      0x20\n      add\n      mload(0x40)\n      swap1\n      dup2\n      add\n      0x40\n      mstore\n      dup1\n      swap3\n      swap2\n      swap1\n      dup2\n      dup2\n      mstore\n      0x20\n      add\n      dup3\n      dup1\n      sload\n      tag_131\n      swap1\n      tag_130\n      jump\t// in\n    tag_131:\n      dup1\n      iszero\n      tag_132\n      jumpi\n      dup1\n      0x1f\n      lt\n      tag_133\n      jumpi\n      0x0100\n      dup1\n      dup4\n      sload\n      div\n      mul\n      dup4\n      mstore\n      swap2\n      0x20\n      add\n      swap2\n      jump(tag_132)\n    tag_133:\n      dup3\n      add\n      swap2\n      swap1\n      0x00\n      mstore\n      keccak256(0x00, 0x20)\n      swap1\n    tag_134:\n      dup2\n      sload\n      dup2\n      mstore\n      swap1\n      0x01\n      add\n      swap1\n      0x20\n      add\n      dup1\n      dup4\n      gt\n      tag_134\n      jumpi\n      dup3\n      swap1\n      sub\n      0x1f\n      and\n      dup3\n      add\n      swap2\n    tag_132:\n      pop\n      pop\n      pop\n      pop\n      pop\n      swap1\n      pop\n        /* \"https://github.com/OpenZeppelin/openzeppelin-contracts/blob/master/contracts/token/ERC20/ERC20.sol\":2357:2446  function name() public view virtual returns (string memory) {... */\n      swap1\n      jump\t// out\n        /* \"https://github.com/OpenZeppelin/openzeppelin-contracts/blob/master/contracts/token/ERC20/ERC20.sol\":4580:4768  function approve(address spender, uint256 amount) public virtual returns (bool) {... */\n    tag_35:\n        /* \"https://github.com/OpenZeppelin/openzeppelin-contracts/blob/master/contracts/token/ERC20/ERC20.sol\":4654:4658  bool */\n      0x00\n        /* \"https://github.com/OpenZeppelin/openzeppelin-contracts/blob/master/contracts/token/ERC20/ERC20.sol\":4670:4683  address owner */\n      dup1\n        /* \"https://github.com/OpenZeppelin/openzeppelin-contracts/blob/master/contracts/token/ERC20/ERC20.sol\":4686:4698  _msgSender() */\n      tag_136\n        /* \"https://github.com/OpenZeppelin/openzeppelin-contracts/blob/master/contracts/token/ERC20/ERC20.sol\":4686:4696  _msgSender */\n      tag_137\n        /* \"https://github.com/OpenZeppelin/openzeppelin-contracts/blob/master/contracts/token/ERC20/ERC20.sol\":4686:4698  _msgSender() */\n      jump\t// in\n    tag_136:\n        /* \"https://github.com/OpenZeppelin/openzeppelin-contracts/blob/master/contracts/token/ERC20/ERC20.sol\":4670:4698  address owner = _msgSender() */\n      swap1\n      pop\n        /* \"https://github.com/OpenZeppelin/openzeppelin-contracts/blob/master/contracts/token/ERC20/ERC20.sol\":4708:4740  _approve(owner, spender, amount) */\n      tag_138\n        /* \"https://github.com/OpenZeppelin/openzeppelin-contracts/blob/master/contracts/token/ERC20/ERC20.sol\":4717:4722  owner */\n      dup2\n        /* \"https://github.com/OpenZeppelin/openzeppelin-contracts/blob/master/contracts/token/ERC20/ERC20.sol\":4724:4731  spender */\n      dup6\n        /* \"https://github.com/OpenZeppelin/openzeppelin-contracts/blob/master/contracts/token/ERC20/ERC20.sol\":4733:4739  amount */\n      dup6\n        /* \"https://github.com/OpenZeppelin/openzeppelin-contracts/blob/master/contracts/token/ERC20/ERC20.sol\":4708:4716  _approve */\n      tag_139\n        /* \"https://github.com/OpenZeppelin/openzeppelin-contracts/blob/master/contracts/token/ERC20/ERC20.sol\":4708:4740  _approve(owner, spender, amount) */\n      jump\t// in\n    tag_138:\n        /* \"https://github.com/OpenZeppelin/openzeppelin-contracts/blob/master/contracts/token/ERC20/ERC20.sol\":4757:4761  true */\n      0x01\n        /* \"https://github.com/OpenZeppelin/openzeppelin-contracts/blob/master/contracts/token/ERC20/ERC20.sol\":4750:4761  return true */\n      swap2\n      pop\n      pop\n        /* \"https://github.com/OpenZeppelin/openzeppelin-contracts/blob/master/contracts/token/ERC20/ERC20.sol\":4580:4768  function approve(address spender, uint256 amount) public virtual returns (bool) {... */\n      swap3\n      swap2\n      pop\n      pop\n      jump\t// out\n        /* \"https://github.com/OpenZeppelin/openzeppelin-contracts/blob/master/contracts/token/ERC20/ERC20.sol\":3427:3524  function totalSupply() public view virtual returns (uint256) {... */\n    tag_40:\n        /* \"https://github.com/OpenZeppelin/openzeppelin-contracts/blob/master/contracts/token/ERC20/ERC20.sol\":3479:3486  uint256 */\n      0x00\n        /* \"https://github.com/OpenZeppelin/openzeppelin-contracts/blob/master/contracts/token/ERC20/ERC20.sol\":3505:3517  _totalSupply */\n      sload(0x02)\n        /* \"https://github.com/OpenZeppelin/openzeppelin-contracts/blob/master/contracts/token/ERC20/ERC20.sol\":3498:3517  return _totalSupply */\n      swap1\n      pop\n        /* \"https://github.com/OpenZeppelin/openzeppelin-contracts/blob/master/contracts/token/ERC20/ERC20.sol\":3427:3524  function totalSupply() public view virtual returns (uint256) {... */\n      swap1\n      jump\t// out\n        /* \"https://github.com/OpenZeppelin/openzeppelin-contracts/blob/master/contracts/token/ERC20/ERC20.sol\":5330:5577  function transferFrom(address from, address to, uint256 amount) public virtual returns (bool) {... */\n    tag_47:\n        /* \"https://github.com/OpenZeppelin/openzeppelin-contracts/blob/master/contracts/token/ERC20/ERC20.sol\":5418:5422  bool */\n      0x00\n        /* \"https://github.com/OpenZeppelin/openzeppelin-contracts/blob/master/contracts/token/ERC20/ERC20.sol\":5434:5449  address spender */\n      dup1\n        /* \"https://github.com/OpenZeppelin/openzeppelin-contracts/blob/master/contracts/token/ERC20/ERC20.sol\":5452:5464  _msgSender() */\n      tag_142\n        /* \"https://github.com/OpenZeppelin/openzeppelin-contracts/blob/master/contracts/token/ERC20/ERC20.sol\":5452:5462  _msgSender */\n      tag_137\n        /* \"https://github.com/OpenZeppelin/openzeppelin-contracts/blob/master/contracts/token/ERC20/ERC20.sol\":5452:5464  _msgSender() */\n      jump\t// in\n    tag_142:\n        /* \"https://github.com/OpenZeppelin/openzeppelin-contracts/blob/master/contracts/token/ERC20/ERC20.sol\":5434:5464  address spender = _msgSender() */\n      swap1\n      pop\n        /* \"https://github.com/OpenZeppelin/openzeppelin-contracts/blob/master/contracts/token/ERC20/ERC20.sol\":5474:5512  _spendAllowance(from, spender, amount) */\n      tag_143\n        /* \"https://github.com/OpenZeppelin/openzeppelin-contracts/blob/master/contracts/token/ERC20/ERC20.sol\":5490:5494  from */\n      dup6\n        /* \"https://github.com/OpenZeppelin/openzeppelin-contracts/blob/master/contracts/token/ERC20/ERC20.sol\":5496:5503  spender */\n      dup3\n        /* \"https://github.com/OpenZeppelin/openzeppelin-contracts/blob/master/contracts/token/ERC20/ERC20.sol\":5505:5511  amount */\n      dup6\n        /* \"https://github.com/OpenZeppelin/openzeppelin-contracts/blob/master/contracts/token/ERC20/ERC20.sol\":5474:5489  _spendAllowance */\n      tag_144\n        /* \"https://github.com/OpenZeppelin/openzeppelin-contracts/blob/master/contracts/token/ERC20/ERC20.sol\":5474:5512  _spendAllowance(from, spender, amount) */\n      jump\t// in\n    tag_143:\n        /* \"https://github.com/OpenZeppelin/openzeppelin-contracts/blob/master/contracts/token/ERC20/ERC20.sol\":5522:5549  _transfer(from, to, amount) */\n      tag_145\n        /* \"https://github.com/OpenZeppelin/openzeppelin-contracts/blob/master/contracts/token/ERC20/ERC20.sol\":5532:5536  from */\n      dup6\n        /* \"https://github.com/OpenZeppelin/openzeppelin-contracts/blob/master/contracts/token/ERC20/ERC20.sol\":5538:5540  to */\n      dup6\n        /* \"https://github.com/OpenZeppelin/openzeppelin-contracts/blob/master/contracts/token/ERC20/ERC20.sol\":5542:5548  amount */\n      dup6\n        /* \"https://github.com/OpenZeppelin/openzeppelin-contracts/blob/master/contracts/token/ERC20/ERC20.sol\":5522:5531  _transfer */\n      tag_146\n        /* \"https://github.com/OpenZeppelin/openzeppelin-contracts/blob/master/contracts/token/ERC20/ERC20.sol\":5522:5549  _transfer(from, to, amount) */\n      jump\t// in\n    tag_145:\n        /* \"https://github.com/OpenZeppelin/openzeppelin-contracts/blob/master/contracts/token/ERC20/ERC20.sol\":5566:5570  true */\n      0x01\n        /* \"https://github.com/OpenZeppelin/openzeppelin-contracts/blob/master/contracts/token/ERC20/ERC20.sol\":5559:5570  return true */\n      swap2\n      pop\n      pop\n        /* \"https://github.com/OpenZeppelin/openzeppelin-contracts/blob/master/contracts/token/ERC20/ERC20.sol\":5330:5577  function transferFrom(address from, address to, uint256 amount) public virtual returns (bool) {... */\n      swap4\n      swap3\n      pop\n      pop\n      pop\n      jump\t// out\n        /* \"https://github.com/OpenZeppelin/openzeppelin-contracts/blob/master/contracts/token/ERC20/ERC20.sol\":3285:3367  function decimals() public view virtual returns (uint8) {... */\n    tag_51:\n        /* \"https://github.com/OpenZeppelin/openzeppelin-contracts/blob/master/contracts/token/ERC20/ERC20.sol\":3334:3339  uint8 */\n      0x00\n        /* \"https://github.com/OpenZeppelin/openzeppelin-contracts/blob/master/contracts/token/ERC20/ERC20.sol\":3358:3360  18 */\n      0x12\n        /* \"https://github.com/OpenZeppelin/openzeppelin-contracts/blob/master/contracts/token/ERC20/ERC20.sol\":3351:3360  return 18 */\n      swap1\n      pop\n        /* \"https://github.com/OpenZeppelin/openzeppelin-contracts/blob/master/contracts/token/ERC20/ERC20.sol\":3285:3367  function decimals() public view virtual returns (uint8) {... */\n      swap1\n      jump\t// out\n        /* \"https://github.com/OpenZeppelin/openzeppelin-contracts/blob/master/contracts/token/ERC20/ERC20.sol\":5972:6206  function increaseAllowance(address spender, uint256 addedValue) public virtual returns (bool) {... */\n    tag_57:\n        /* \"https://github.com/OpenZeppelin/openzeppelin-contracts/blob/master/contracts/token/ERC20/ERC20.sol\":6060:6064  bool */\n      0x00\n        /* \"https://github.com/OpenZeppelin/openzeppelin-contracts/blob/master/contracts/token/ERC20/ERC20.sol\":6076:6089  address owner */\n      dup1\n        /* \"https://github.com/OpenZeppelin/openzeppelin-contracts/blob/master/contracts/token/ERC20/ERC20.sol\":6092:6104  _msgSender() */\n      tag_149\n        /* \"https://github.com/OpenZeppelin/openzeppelin-contracts/blob/master/contracts/token/ERC20/ERC20.sol\":6092:6102  _msgSender */\n      tag_137\n        /* \"https://github.com/OpenZeppelin/openzeppelin-contracts/blob/master/contracts/token/ERC20/ERC20.sol\":6092:6104  _msgSender() */\n      jump\t// in\n    tag_149:\n        /* \"https://github.com/OpenZeppelin/openzeppelin-contracts/blob/master/contracts/token/ERC20/ERC20.sol\":6076:6104  address owner = _msgSender() */\n      swap1\n      pop\n        /* \"https://github.com/OpenZeppelin/openzeppelin-contracts/blob/master/contracts/token/ERC20/ERC20.sol\":6114:6178  _approve(owner, spender, allowance(owner, spender) + addedValue) */\n      tag_150\n        /* \"https://github.com/OpenZeppelin/openzeppelin-contracts/blob/master/contracts/token/ERC20/ERC20.sol\":6123:6128  owner */\n      dup2\n        /* \"https://github.com/OpenZeppelin/openzeppelin-contracts/blob/master/contracts/token/ERC20/ERC20.sol\":6130:6137  spender */\n      dup6\n        /* \"https://github.com/OpenZeppelin/openzeppelin-contracts/blob/master/contracts/token/ERC20/ERC20.sol\":6167:6177  addedValue */\n      dup6\n        /* \"https://github.com/OpenZeppelin/openzeppelin-contracts/blob/master/contracts/token/ERC20/ERC20.sol\":6139:6164  allowance(owner, spender) */\n      tag_151\n        /* \"https://github.com/OpenZeppelin/openzeppelin-contracts/blob/master/contracts/token/ERC20/ERC20.sol\":6149:6154  owner */\n      dup6\n        /* \"https://github.com/OpenZeppelin/openzeppelin-contracts/blob/master/contracts/token/ERC20/ERC20.sol\":6156:6163  spender */\n      dup10\n        /* \"https://github.com/OpenZeppelin/openzeppelin-contracts/blob/master/contracts/token/ERC20/ERC20.sol\":6139:6148  allowance */\n      tag_113\n        /* \"https://github.com/OpenZeppelin/openzeppelin-contracts/blob/master/contracts/token/ERC20/ERC20.sol\":6139:6164  allowance(owner, spender) */\n      jump\t// in\n    tag_151:\n        /* \"https://github.com/OpenZeppelin/openzeppelin-contracts/blob/master/contracts/token/ERC20/ERC20.sol\":6139:6177  allowance(owner, spender) + addedValue */\n      tag_152\n      swap2\n      swap1\n      tag_153\n      jump\t// in\n    tag_152:\n        /* \"https://github.com/OpenZeppelin/openzeppelin-contracts/blob/master/contracts/token/ERC20/ERC20.sol\":6114:6122  _approve */\n      tag_139\n        /* \"https://github.com/OpenZeppelin/openzeppelin-contracts/blob/master/contracts/token/ERC20/ERC20.sol\":6114:6178  _approve(owner, spender, allowance(owner, spender) + addedValue) */\n      jump\t// in\n    tag_150:\n        /* \"https://github.com/OpenZeppelin/openzeppelin-contracts/blob/master/contracts/token/ERC20/ERC20.sol\":6195:6199  true */\n      0x01\n        /* \"https://github.com/OpenZeppelin/openzeppelin-contracts/blob/master/contracts/token/ERC20/ERC20.sol\":6188:6199  return true */\n      swap2\n      pop\n      pop\n        /* \"https://github.com/OpenZeppelin/openzeppelin-contracts/blob/master/contracts/token/ERC20/ERC20.sol\":5972:6206  function increaseAllowance(address spender, uint256 addedValue) public virtual returns (bool) {... */\n      swap3\n      swap2\n      pop\n      pop\n      jump\t// out\n        /* \"contracts/Exchange.sol\":676:1505  function addLiquidity(uint _tokenAmount) external payable {... */\n    tag_62:\n        /* \"contracts/Exchange.sol\":765:766  0 */\n      0x00\n        /* \"contracts/Exchange.sol\":749:761  getReserve() */\n      tag_155\n        /* \"contracts/Exchange.sol\":749:759  getReserve */\n      tag_65\n        /* \"contracts/Exchange.sol\":749:761  getReserve() */\n      jump\t// in\n    tag_155:\n        /* \"contracts/Exchange.sol\":749:766  getReserve() == 0 */\n      sub\n        /* \"contracts/Exchange.sol\":745:1498  if (getReserve() == 0) {... */\n      tag_156\n      jumpi\n        /* \"contracts/Exchange.sol\":779:791  IERC20 token */\n      0x00\n        /* \"contracts/Exchange.sol\":801:813  tokenAddress */\n      0x05\n      0x00\n      swap1\n      sload\n      swap1\n      0x0100\n      exp\n      swap1\n      div\n      0xffffffffffffffffffffffffffffffffffffffff\n      and\n        /* \"contracts/Exchange.sol\":779:814  IERC20 token = IERC20(tokenAddress) */\n      swap1\n      pop\n        /* \"contracts/Exchange.sol\":825:830  token */\n      dup1\n        /* \"contracts/Exchange.sol\":825:843  token.transferFrom */\n      0xffffffffffffffffffffffffffffffffffffffff\n      and\n      0x23b872dd\n        /* \"contracts/Exchange.sol\":844:854  msg.sender */\n      caller\n        /* \"contracts/Exchange.sol\":864:868  this */\n      address\n        /* \"contracts/Exchange.sol\":871:883  _tokenAmount */\n      dup6\n        /* \"contracts/Exchange.sol\":825:884  token.transferFrom(msg.sender, address(this), _tokenAmount) */\n      mload(0x40)\n      dup5\n      0xffffffff\n      and\n      0xe0\n      shl\n      dup2\n      mstore\n      0x04\n      add\n      tag_157\n      swap4\n      swap3\n      swap2\n      swap1\n      tag_158\n      jump\t// in\n    tag_157:\n      0x20\n      mload(0x40)\n      dup1\n      dup4\n      sub\n      dup2\n      0x00\n      dup8\n      gas\n      call\n      iszero\n      dup1\n      iszero\n      tag_160\n      jumpi\n      returndatasize\n      0x00\n      dup1\n      returndatacopy\n      revert(0x00, returndatasize)\n    tag_160:\n      pop\n      pop\n      pop\n      pop\n      mload(0x40)\n      returndatasize\n      not(0x1f)\n      0x1f\n      dup3\n      add\n      and\n      dup3\n      add\n      dup1\n      0x40\n      mstore\n      pop\n      dup2\n      add\n      swap1\n      tag_161\n      swap2\n      swap1\n      tag_162\n      jump\t// in\n    tag_161:\n      pop\n        /* \"contracts/Exchange.sol\":905:922  uint256 liquidity */\n      0x00\n        /* \"contracts/Exchange.sol\":925:946  address(this).balance */\n      selfbalance\n        /* \"contracts/Exchange.sol\":905:946  uint256 liquidity = address(this).balance */\n      swap1\n      pop\n        /* \"contracts/Exchange.sol\":957:985  _mint(msg.sender, liquidity) */\n      tag_163\n        /* \"contracts/Exchange.sol\":963:973  msg.sender */\n      caller\n        /* \"contracts/Exchange.sol\":975:984  liquidity */\n      dup3\n        /* \"contracts/Exchange.sol\":957:962  _mint */\n      tag_164\n        /* \"contracts/Exchange.sol\":957:985  _mint(msg.sender, liquidity) */\n      jump\t// in\n    tag_163:\n        /* \"contracts/Exchange.sol\":768:999  {... */\n      pop\n      pop\n        /* \"contracts/Exchange.sol\":745:1498  if (getReserve() == 0) {... */\n      jump(tag_165)\n    tag_156:\n        /* \"contracts/Exchange.sol\":1020:1038  uint256 ethReserve */\n      0x00\n        /* \"contracts/Exchange.sol\":1065:1074  msg.value */\n      callvalue\n        /* \"contracts/Exchange.sol\":1041:1062  address(this).balance */\n      selfbalance\n        /* \"contracts/Exchange.sol\":1041:1074  address(this).balance - msg.value */\n      tag_166\n      swap2\n      swap1\n      tag_167\n      jump\t// in\n    tag_166:\n        /* \"contracts/Exchange.sol\":1020:1074  uint256 ethReserve = address(this).balance - msg.value */\n      swap1\n      pop\n        /* \"contracts/Exchange.sol\":1089:1109  uint256 tokenReserve */\n      0x00\n        /* \"contracts/Exchange.sol\":1112:1124  getReserve() */\n      tag_168\n        /* \"contracts/Exchange.sol\":1112:1122  getReserve */\n      tag_65\n        /* \"contracts/Exchange.sol\":1112:1124  getReserve() */\n      jump\t// in\n    tag_168:\n        /* \"contracts/Exchange.sol\":1089:1124  uint256 tokenReserve = getReserve() */\n      swap1\n      pop\n        /* \"contracts/Exchange.sol\":1139:1158  uint256 tokenAmount */\n      0x00\n        /* \"contracts/Exchange.sol\":1188:1198  ethReserve */\n      dup3\n        /* \"contracts/Exchange.sol\":1173:1185  tokenReserve */\n      dup3\n        /* \"contracts/Exchange.sol\":1161:1170  msg.value */\n      callvalue\n        /* \"contracts/Exchange.sol\":1161:1185  msg.value * tokenReserve */\n      tag_169\n      swap2\n      swap1\n      tag_170\n      jump\t// in\n    tag_169:\n        /* \"contracts/Exchange.sol\":1161:1198  msg.value * tokenReserve / ethReserve */\n      tag_171\n      swap2\n      swap1\n      tag_172\n      jump\t// in\n    tag_171:\n        /* \"contracts/Exchange.sol\":1139:1198  uint256 tokenAmount = msg.value * tokenReserve / ethReserve */\n      swap1\n      pop\n        /* \"contracts/Exchange.sol\":1237:1248  tokenAmount */\n      dup1\n        /* \"contracts/Exchange.sol\":1221:1233  _tokenAmount */\n      dup5\n        /* \"contracts/Exchange.sol\":1221:1248  _tokenAmount >= tokenAmount */\n      lt\n      iszero\n        /* \"contracts/Exchange.sol\":1213:1278  require(_tokenAmount >= tokenAmount, \"Insufficient token amount\") */\n      tag_173\n      jumpi\n      mload(0x40)\n      0x08c379a000000000000000000000000000000000000000000000000000000000\n      dup2\n      mstore\n      0x04\n      add\n      tag_174\n      swap1\n      tag_175\n      jump\t// in\n    tag_174:\n      mload(0x40)\n      dup1\n      swap2\n      sub\n      swap1\n      revert\n    tag_173:\n        /* \"contracts/Exchange.sol\":1302:1314  tokenAddress */\n      0x05\n      0x00\n      swap1\n      sload\n      swap1\n      0x0100\n      exp\n      swap1\n      div\n      0xffffffffffffffffffffffffffffffffffffffff\n      and\n        /* \"contracts/Exchange.sol\":1295:1328  IERC20(tokenAddress).transferFrom */\n      0xffffffffffffffffffffffffffffffffffffffff\n      and\n      0x23b872dd\n        /* \"contracts/Exchange.sol\":1329:1339  msg.sender */\n      caller\n        /* \"contracts/Exchange.sol\":1349:1353  this */\n      address\n        /* \"contracts/Exchange.sol\":1356:1367  tokenAmount */\n      dup5\n        /* \"contracts/Exchange.sol\":1295:1368  IERC20(tokenAddress).transferFrom(msg.sender, address(this), tokenAmount) */\n      mload(0x40)\n      dup5\n      0xffffffff\n      and\n      0xe0\n      shl\n      dup2\n      mstore\n      0x04\n      add\n      tag_176\n      swap4\n      swap3\n      swap2\n      swap1\n      tag_158\n      jump\t// in\n    tag_176:\n      0x20\n      mload(0x40)\n      dup1\n      dup4\n      sub\n      dup2\n      0x00\n      dup8\n      gas\n      call\n      iszero\n      dup1\n      iszero\n      tag_178\n      jumpi\n      returndatasize\n      0x00\n      dup1\n      returndatacopy\n      revert(0x00, returndatasize)\n    tag_178:\n      pop\n      pop\n      pop\n      pop\n      mload(0x40)\n      returndatasize\n      not(0x1f)\n      0x1f\n      dup3\n      add\n      and\n      dup3\n      add\n      dup1\n      0x40\n      mstore\n      pop\n      dup2\n      add\n      swap1\n      tag_179\n      swap2\n      swap1\n      tag_162\n      jump\t// in\n    tag_179:\n      pop\n        /* \"contracts/Exchange.sol\":1385:1402  uint256 liquidity */\n      0x00\n        /* \"contracts/Exchange.sol\":1433:1443  ethReserve */\n      dup4\n        /* \"contracts/Exchange.sol\":1421:1430  msg.value */\n      callvalue\n        /* \"contracts/Exchange.sol\":1405:1418  totalSupply() */\n      tag_180\n        /* \"contracts/Exchange.sol\":1405:1416  totalSupply */\n      tag_40\n        /* \"contracts/Exchange.sol\":1405:1418  totalSupply() */\n      jump\t// in\n    tag_180:\n        /* \"contracts/Exchange.sol\":1405:1430  totalSupply() * msg.value */\n      tag_181\n      swap2\n      swap1\n      tag_170\n      jump\t// in\n    tag_181:\n        /* \"contracts/Exchange.sol\":1405:1443  totalSupply() * msg.value / ethReserve */\n      tag_182\n      swap2\n      swap1\n      tag_172\n      jump\t// in\n    tag_182:\n        /* \"contracts/Exchange.sol\":1385:1443  uint256 liquidity = totalSupply() * msg.value / ethReserve */\n      swap1\n      pop\n        /* \"contracts/Exchange.sol\":1458:1486  _mint(msg.sender, liquidity) */\n      tag_183\n        /* \"contracts/Exchange.sol\":1464:1474  msg.sender */\n      caller\n        /* \"contracts/Exchange.sol\":1476:1485  liquidity */\n      dup3\n        /* \"contracts/Exchange.sol\":1458:1463  _mint */\n      tag_164\n        /* \"contracts/Exchange.sol\":1458:1486  _mint(msg.sender, liquidity) */\n      jump\t// in\n    tag_183:\n        /* \"contracts/Exchange.sol\":1005:1498  {... */\n      pop\n      pop\n      pop\n      pop\n        /* \"contracts/Exchange.sol\":745:1498  if (getReserve() == 0) {... */\n    tag_165:\n        /* \"contracts/Exchange.sol\":676:1505  function addLiquidity(uint _tokenAmount) external payable {... */\n      pop\n      jump\t// out\n        /* \"contracts/Exchange.sol\":1513:1635  function getReserve() public view returns(uint256) {... */\n    tag_65:\n        /* \"contracts/Exchange.sol\":1555:1562  uint256 */\n      0x00\n        /* \"contracts/Exchange.sol\":1589:1601  tokenAddress */\n      0x05\n      0x00\n      swap1\n      sload\n      swap1\n      0x0100\n      exp\n      swap1\n      div\n      0xffffffffffffffffffffffffffffffffffffffff\n      and\n        /* \"contracts/Exchange.sol\":1582:1612  IERC20(tokenAddress).balanceOf */\n      0xffffffffffffffffffffffffffffffffffffffff\n      and\n      0x70a08231\n        /* \"contracts/Exchange.sol\":1621:1625  this */\n      address\n        /* \"contracts/Exchange.sol\":1582:1627  IERC20(tokenAddress).balanceOf(address(this)) */\n      mload(0x40)\n      dup3\n      0xffffffff\n      and\n      0xe0\n      shl\n      dup2\n      mstore\n      0x04\n      add\n      tag_185\n      swap2\n      swap1\n      tag_86\n      jump\t// in\n    tag_185:\n      0x20\n      mload(0x40)\n      dup1\n      dup4\n      sub\n      dup2\n      dup7\n      gas\n      staticcall\n      iszero\n      dup1\n      iszero\n      tag_187\n      jumpi\n      returndatasize\n      0x00\n      dup1\n      returndatacopy\n      revert(0x00, returndatasize)\n    tag_187:\n      pop\n      pop\n      pop\n      pop\n      mload(0x40)\n      returndatasize\n      not(0x1f)\n      0x1f\n      dup3\n      add\n      and\n      dup3\n      add\n      dup1\n      0x40\n      mstore\n      pop\n      dup2\n      add\n      swap1\n      tag_188\n      swap2\n      swap1\n      tag_189\n      jump\t// in\n    tag_188:\n        /* \"contracts/Exchange.sol\":1575:1627  return IERC20(tokenAddress).balanceOf(address(this)) */\n      swap1\n      pop\n        /* \"contracts/Exchange.sol\":1513:1635  function getReserve() public view returns(uint256) {... */\n      swap1\n      jump\t// out\n        /* \"https://github.com/OpenZeppelin/openzeppelin-contracts/blob/master/contracts/token/ERC20/ERC20.sol\":3582:3698  function balanceOf(address account) public view virtual returns (uint256) {... */\n    tag_71:\n        /* \"https://github.com/OpenZeppelin/openzeppelin-contracts/blob/master/contracts/token/ERC20/ERC20.sol\":3647:3654  uint256 */\n      0x00\n        /* \"https://github.com/OpenZeppelin/openzeppelin-contracts/blob/master/contracts/token/ERC20/ERC20.sol\":3673:3682  _balances */\n      dup1\n        /* \"https://github.com/OpenZeppelin/openzeppelin-contracts/blob/master/contracts/token/ERC20/ERC20.sol\":3673:3691  _balances[account] */\n      0x00\n        /* \"https://github.com/OpenZeppelin/openzeppelin-contracts/blob/master/contracts/token/ERC20/ERC20.sol\":3683:3690  account */\n      dup4\n        /* \"https://github.com/OpenZeppelin/openzeppelin-contracts/blob/master/contracts/token/ERC20/ERC20.sol\":3673:3691  _balances[account] */\n      0xffffffffffffffffffffffffffffffffffffffff\n      and\n      0xffffffffffffffffffffffffffffffffffffffff\n      and\n      dup2\n      mstore\n      0x20\n      add\n      swap1\n      dup2\n      mstore\n      0x20\n      add\n      0x00\n      keccak256\n      sload\n        /* \"https://github.com/OpenZeppelin/openzeppelin-contracts/blob/master/contracts/token/ERC20/ERC20.sol\":3666:3691  return _balances[account] */\n      swap1\n      pop\n        /* \"https://github.com/OpenZeppelin/openzeppelin-contracts/blob/master/contracts/token/ERC20/ERC20.sol\":3582:3698  function balanceOf(address account) public view virtual returns (uint256) {... */\n      swap2\n      swap1\n      pop\n      jump\t// out\n        /* \"contracts/Exchange.sol\":2380:2633  function getEthAmount(uint256 _tokenSold) public view returns(uint256) {... */\n    tag_76:\n        /* \"contracts/Exchange.sol\":2442:2449  uint256 */\n      0x00\n        /* \"contracts/Exchange.sol\":2483:2484  0 */\n      dup1\n        /* \"contracts/Exchange.sol\":2470:2480  _tokenSold */\n      dup3\n        /* \"contracts/Exchange.sol\":2470:2484  _tokenSold > 0 */\n      gt\n        /* \"contracts/Exchange.sol\":2462:2502  require(_tokenSold > 0, \"Invalid input\") */\n      tag_192\n      jumpi\n      mload(0x40)\n      0x08c379a000000000000000000000000000000000000000000000000000000000\n      dup2\n      mstore\n      0x04\n      add\n      tag_193\n      swap1\n      tag_194\n      jump\t// in\n    tag_193:\n      mload(0x40)\n      dup1\n      swap2\n      sub\n      swap1\n      revert\n    tag_192:\n        /* \"contracts/Exchange.sol\":2513:2533  uint256 tokenReserve */\n      0x00\n        /* \"contracts/Exchange.sol\":2536:2548  getReserve() */\n      tag_195\n        /* \"contracts/Exchange.sol\":2536:2546  getReserve */\n      tag_65\n        /* \"contracts/Exchange.sol\":2536:2548  getReserve() */\n      jump\t// in\n    tag_195:\n        /* \"contracts/Exchange.sol\":2513:2548  uint256 tokenReserve = getReserve() */\n      swap1\n      pop\n        /* \"contracts/Exchange.sol\":2566:2624  getAmount(_tokenSold, tokenReserve, address(this).balance) */\n      tag_196\n        /* \"contracts/Exchange.sol\":2576:2586  _tokenSold */\n      dup4\n        /* \"contracts/Exchange.sol\":2588:2600  tokenReserve */\n      dup3\n        /* \"contracts/Exchange.sol\":2602:2623  address(this).balance */\n      selfbalance\n        /* \"contracts/Exchange.sol\":2566:2575  getAmount */\n      tag_197\n        /* \"contracts/Exchange.sol\":2566:2624  getAmount(_tokenSold, tokenReserve, address(this).balance) */\n      jump\t// in\n    tag_196:\n        /* \"contracts/Exchange.sol\":2559:2624  return getAmount(_tokenSold, tokenReserve, address(this).balance) */\n      swap2\n      pop\n      pop\n        /* \"contracts/Exchange.sol\":2380:2633  function getEthAmount(uint256 _tokenSold) public view returns(uint256) {... */\n      swap2\n      swap1\n      pop\n      jump\t// out\n        /* \"https://github.com/OpenZeppelin/openzeppelin-contracts/blob/master/contracts/token/ERC20/ERC20.sol\":2559:2652  function symbol() public view virtual returns (string memory) {... */\n    tag_80:\n        /* \"https://github.com/OpenZeppelin/openzeppelin-contracts/blob/master/contracts/token/ERC20/ERC20.sol\":2606:2619  string memory */\n      0x60\n        /* \"https://github.com/OpenZeppelin/openzeppelin-contracts/blob/master/contracts/token/ERC20/ERC20.sol\":2638:2645  _symbol */\n      0x04\n        /* \"https://github.com/OpenZeppelin/openzeppelin-contracts/blob/master/contracts/token/ERC20/ERC20.sol\":2631:2645  return _symbol */\n      dup1\n      sload\n      tag_199\n      swap1\n      tag_130\n      jump\t// in\n    tag_199:\n      dup1\n      0x1f\n      add\n      0x20\n      dup1\n      swap2\n      div\n      mul\n      0x20\n      add\n      mload(0x40)\n      swap1\n      dup2\n      add\n      0x40\n      mstore\n      dup1\n      swap3\n      swap2\n      swap1\n      dup2\n      dup2\n      mstore\n      0x20\n      add\n      dup3\n      dup1\n      sload\n      tag_200\n      swap1\n      tag_130\n      jump\t// in\n    tag_200:\n      dup1\n      iszero\n      tag_201\n      jumpi\n      dup1\n      0x1f\n      lt\n      tag_202\n      jumpi\n      0x0100\n      dup1\n      dup4\n      sload\n      div\n      mul\n      dup4\n      mstore\n      swap2\n      0x20\n      add\n      swap2\n      jump(tag_201)\n    tag_202:\n      dup3\n      add\n      swap2\n      swap1\n      0x00\n      mstore\n      keccak256(0x00, 0x20)\n      swap1\n    tag_203:\n      dup2\n      sload\n      dup2\n      mstore\n      swap1\n      0x01\n      add\n      swap1\n      0x20\n      add\n      dup1\n      dup4\n      gt\n      tag_203\n      jumpi\n      dup3\n      swap1\n      sub\n      0x1f\n      and\n      dup3\n      add\n      swap2\n    tag_201:\n      pop\n      pop\n      pop\n      pop\n      pop\n      swap1\n      pop\n        /* \"https://github.com/OpenZeppelin/openzeppelin-contracts/blob/master/contracts/token/ERC20/ERC20.sol\":2559:2652  function symbol() public view virtual returns (string memory) {... */\n      swap1\n      jump\t// out\n        /* \"contracts/Exchange.sol\":425:454  address public factoryAddress */\n    tag_84:\n      0x06\n      0x00\n      swap1\n      sload\n      swap1\n      0x0100\n      exp\n      swap1\n      div\n      0xffffffffffffffffffffffffffffffffffffffff\n      and\n      dup2\n      jump\t// out\n        /* \"contracts/Exchange.sol\":3641:4116  function removeLiquidity(uint256 _amountWithrawn) public payable {... */\n    tag_89:\n        /* \"contracts/Exchange.sol\":3743:3744  0 */\n      0x00\n        /* \"contracts/Exchange.sol\":3725:3740  _amountWithrawn */\n      dup2\n        /* \"contracts/Exchange.sol\":3725:3744  _amountWithrawn > 0 */\n      gt\n        /* \"contracts/Exchange.sol\":3717:3771  require(_amountWithrawn > 0, \"Insufficient liquidity\") */\n      tag_205\n      jumpi\n      mload(0x40)\n      0x08c379a000000000000000000000000000000000000000000000000000000000\n      dup2\n      mstore\n      0x04\n      add\n      tag_206\n      swap1\n      tag_207\n      jump\t// in\n    tag_206:\n      mload(0x40)\n      dup1\n      swap2\n      sub\n      swap1\n      revert\n    tag_205:\n        /* \"contracts/Exchange.sol\":3784:3803  uint256 ethWithrawn */\n      0x00\n        /* \"contracts/Exchange.sol\":3848:3861  totalSupply() */\n      tag_208\n        /* \"contracts/Exchange.sol\":3848:3859  totalSupply */\n      tag_40\n        /* \"contracts/Exchange.sol\":3848:3861  totalSupply() */\n      jump\t// in\n    tag_208:\n        /* \"contracts/Exchange.sol\":3830:3845  _amountWithrawn */\n      dup3\n        /* \"contracts/Exchange.sol\":3806:3827  address(this).balance */\n      selfbalance\n        /* \"contracts/Exchange.sol\":3806:3845  address(this).balance * _amountWithrawn */\n      tag_209\n      swap2\n      swap1\n      tag_170\n      jump\t// in\n    tag_209:\n        /* \"contracts/Exchange.sol\":3806:3861  address(this).balance * _amountWithrawn / totalSupply() */\n      tag_210\n      swap2\n      swap1\n      tag_172\n      jump\t// in\n    tag_210:\n        /* \"contracts/Exchange.sol\":3784:3861  uint256 ethWithrawn = address(this).balance * _amountWithrawn / totalSupply() */\n      swap1\n      pop\n        /* \"contracts/Exchange.sol\":3872:3893  uint256 tokenWithrawn */\n      0x00\n        /* \"contracts/Exchange.sol\":3929:3942  totalSupply() */\n      tag_211\n        /* \"contracts/Exchange.sol\":3929:3940  totalSupply */\n      tag_40\n        /* \"contracts/Exchange.sol\":3929:3942  totalSupply() */\n      jump\t// in\n    tag_211:\n        /* \"contracts/Exchange.sol\":3911:3926  _amountWithrawn */\n      dup4\n        /* \"contracts/Exchange.sol\":3896:3908  getReserve() */\n      tag_212\n        /* \"contracts/Exchange.sol\":3896:3906  getReserve */\n      tag_65\n        /* \"contracts/Exchange.sol\":3896:3908  getReserve() */\n      jump\t// in\n    tag_212:\n        /* \"contracts/Exchange.sol\":3896:3926  getReserve() * _amountWithrawn */\n      tag_213\n      swap2\n      swap1\n      tag_170\n      jump\t// in\n    tag_213:\n        /* \"contracts/Exchange.sol\":3896:3942  getReserve() * _amountWithrawn / totalSupply() */\n      tag_214\n      swap2\n      swap1\n      tag_172\n      jump\t// in\n    tag_214:\n        /* \"contracts/Exchange.sol\":3872:3942  uint256 tokenWithrawn = getReserve() * _amountWithrawn / totalSupply() */\n      swap1\n      pop\n        /* \"contracts/Exchange.sol\":3955:3989  _burn(msg.sender, _amountWithrawn) */\n      tag_215\n        /* \"contracts/Exchange.sol\":3961:3971  msg.sender */\n      caller\n        /* \"contracts/Exchange.sol\":3973:3988  _amountWithrawn */\n      dup5\n        /* \"contracts/Exchange.sol\":3955:3960  _burn */\n      tag_216\n        /* \"contracts/Exchange.sol\":3955:3989  _burn(msg.sender, _amountWithrawn) */\n      jump\t// in\n    tag_215:\n        /* \"contracts/Exchange.sol\":4008:4018  msg.sender */\n      caller\n        /* \"contracts/Exchange.sol\":4000:4028  payable(msg.sender).transfer */\n      0xffffffffffffffffffffffffffffffffffffffff\n      and\n        /* \"contracts/Exchange.sol\":4000:4041  payable(msg.sender).transfer(ethWithrawn) */\n      0x08fc\n        /* \"contracts/Exchange.sol\":4029:4040  ethWithrawn */\n      dup4\n        /* \"contracts/Exchange.sol\":4000:4041  payable(msg.sender).transfer(ethWithrawn) */\n      swap1\n      dup2\n      iszero\n      mul\n      swap1\n      mload(0x40)\n      0x00\n      mload(0x40)\n      dup1\n      dup4\n      sub\n      dup2\n      dup6\n      dup9\n      dup9\n      call\n      swap4\n      pop\n      pop\n      pop\n      pop\n      iszero\n      dup1\n      iszero\n      tag_218\n      jumpi\n      returndatasize\n      0x00\n      dup1\n      returndatacopy\n      revert(0x00, returndatasize)\n    tag_218:\n      pop\n        /* \"contracts/Exchange.sol\":4059:4071  tokenAddress */\n      0x05\n      0x00\n      swap1\n      sload\n      swap1\n      0x0100\n      exp\n      swap1\n      div\n      0xffffffffffffffffffffffffffffffffffffffff\n      and\n        /* \"contracts/Exchange.sol\":4052:4081  IERC20(tokenAddress).transfer */\n      0xffffffffffffffffffffffffffffffffffffffff\n      and\n      0xa9059cbb\n        /* \"contracts/Exchange.sol\":4082:4092  msg.sender */\n      caller\n        /* \"contracts/Exchange.sol\":4094:4107  tokenWithrawn */\n      dup4\n        /* \"contracts/Exchange.sol\":4052:4108  IERC20(tokenAddress).transfer(msg.sender, tokenWithrawn) */\n      mload(0x40)\n      dup4\n      0xffffffff\n      and\n      0xe0\n      shl\n      dup2\n      mstore\n      0x04\n      add\n      tag_219\n      swap3\n      swap2\n      swap1\n      tag_220\n      jump\t// in\n    tag_219:\n      0x20\n      mload(0x40)\n      dup1\n      dup4\n      sub\n      dup2\n      0x00\n      dup8\n      gas\n      call\n      iszero\n      dup1\n      iszero\n      tag_222\n      jumpi\n      returndatasize\n      0x00\n      dup1\n      returndatacopy\n      revert(0x00, returndatasize)\n    tag_222:\n      pop\n      pop\n      pop\n      pop\n      mload(0x40)\n      returndatasize\n      not(0x1f)\n      0x1f\n      dup3\n      add\n      and\n      dup3\n      add\n      dup1\n      0x40\n      mstore\n      pop\n      dup2\n      add\n      swap1\n      tag_223\n      swap2\n      swap1\n      tag_162\n      jump\t// in\n    tag_223:\n      pop\n        /* \"contracts/Exchange.sol\":3706:4116  {... */\n      pop\n      pop\n        /* \"contracts/Exchange.sol\":3641:4116  function removeLiquidity(uint256 _amountWithrawn) public payable {... */\n      pop\n      jump\t// out\n        /* \"contracts/Exchange.sol\":391:418  address public tokenAddress */\n    tag_92:\n      0x05\n      0x00\n      swap1\n      sload\n      swap1\n      0x0100\n      exp\n      swap1\n      div\n      0xffffffffffffffffffffffffffffffffffffffff\n      and\n      dup2\n      jump\t// out\n        /* \"https://github.com/OpenZeppelin/openzeppelin-contracts/blob/master/contracts/token/ERC20/ERC20.sol\":6695:7188  function decreaseAllowance(address spender, uint256 requestedDecrease) public virtual returns (bool) {... */\n    tag_97:\n        /* \"https://github.com/OpenZeppelin/openzeppelin-contracts/blob/master/contracts/token/ERC20/ERC20.sol\":6790:6794  bool */\n      0x00\n        /* \"https://github.com/OpenZeppelin/openzeppelin-contracts/blob/master/contracts/token/ERC20/ERC20.sol\":6806:6819  address owner */\n      dup1\n        /* \"https://github.com/OpenZeppelin/openzeppelin-contracts/blob/master/contracts/token/ERC20/ERC20.sol\":6822:6834  _msgSender() */\n      tag_225\n        /* \"https://github.com/OpenZeppelin/openzeppelin-contracts/blob/master/contracts/token/ERC20/ERC20.sol\":6822:6832  _msgSender */\n      tag_137\n        /* \"https://github.com/OpenZeppelin/openzeppelin-contracts/blob/master/contracts/token/ERC20/ERC20.sol\":6822:6834  _msgSender() */\n      jump\t// in\n    tag_225:\n        /* \"https://github.com/OpenZeppelin/openzeppelin-contracts/blob/master/contracts/token/ERC20/ERC20.sol\":6806:6834  address owner = _msgSender() */\n      swap1\n      pop\n        /* \"https://github.com/OpenZeppelin/openzeppelin-contracts/blob/master/contracts/token/ERC20/ERC20.sol\":6844:6868  uint256 currentAllowance */\n      0x00\n        /* \"https://github.com/OpenZeppelin/openzeppelin-contracts/blob/master/contracts/token/ERC20/ERC20.sol\":6871:6896  allowance(owner, spender) */\n      tag_226\n        /* \"https://github.com/OpenZeppelin/openzeppelin-contracts/blob/master/contracts/token/ERC20/ERC20.sol\":6881:6886  owner */\n      dup3\n        /* \"https://github.com/OpenZeppelin/openzeppelin-contracts/blob/master/contracts/token/ERC20/ERC20.sol\":6888:6895  spender */\n      dup7\n        /* \"https://github.com/OpenZeppelin/openzeppelin-contracts/blob/master/contracts/token/ERC20/ERC20.sol\":6871:6880  allowance */\n      tag_113\n        /* \"https://github.com/OpenZeppelin/openzeppelin-contracts/blob/master/contracts/token/ERC20/ERC20.sol\":6871:6896  allowance(owner, spender) */\n      jump\t// in\n    tag_226:\n        /* \"https://github.com/OpenZeppelin/openzeppelin-contracts/blob/master/contracts/token/ERC20/ERC20.sol\":6844:6896  uint256 currentAllowance = allowance(owner, spender) */\n      swap1\n      pop\n        /* \"https://github.com/OpenZeppelin/openzeppelin-contracts/blob/master/contracts/token/ERC20/ERC20.sol\":6929:6946  requestedDecrease */\n      dup4\n        /* \"https://github.com/OpenZeppelin/openzeppelin-contracts/blob/master/contracts/token/ERC20/ERC20.sol\":6910:6926  currentAllowance */\n      dup2\n        /* \"https://github.com/OpenZeppelin/openzeppelin-contracts/blob/master/contracts/token/ERC20/ERC20.sol\":6910:6946  currentAllowance < requestedDecrease */\n      lt\n        /* \"https://github.com/OpenZeppelin/openzeppelin-contracts/blob/master/contracts/token/ERC20/ERC20.sol\":6906:7054  if (currentAllowance < requestedDecrease) {... */\n      iszero\n      tag_227\n      jumpi\n        /* \"https://github.com/OpenZeppelin/openzeppelin-contracts/blob/master/contracts/token/ERC20/ERC20.sol\":6998:7005  spender */\n      dup5\n        /* \"https://github.com/OpenZeppelin/openzeppelin-contracts/blob/master/contracts/token/ERC20/ERC20.sol\":7007:7023  currentAllowance */\n      dup2\n        /* \"https://github.com/OpenZeppelin/openzeppelin-contracts/blob/master/contracts/token/ERC20/ERC20.sol\":7025:7042  requestedDecrease */\n      dup6\n        /* \"https://github.com/OpenZeppelin/openzeppelin-contracts/blob/master/contracts/token/ERC20/ERC20.sol\":6969:7043  ERC20FailedDecreaseAllowance(spender, currentAllowance, requestedDecrease) */\n      mload(0x40)\n      0xa60f030c00000000000000000000000000000000000000000000000000000000\n      dup2\n      mstore\n      0x04\n      add\n      tag_228\n      swap4\n      swap3\n      swap2\n      swap1\n      tag_229\n      jump\t// in\n    tag_228:\n      mload(0x40)\n      dup1\n      swap2\n      sub\n      swap1\n      revert\n        /* \"https://github.com/OpenZeppelin/openzeppelin-contracts/blob/master/contracts/token/ERC20/ERC20.sol\":6906:7054  if (currentAllowance < requestedDecrease) {... */\n    tag_227:\n        /* \"https://github.com/OpenZeppelin/openzeppelin-contracts/blob/master/contracts/token/ERC20/ERC20.sol\":7087:7149  _approve(owner, spender, currentAllowance - requestedDecrease) */\n      tag_230\n        /* \"https://github.com/OpenZeppelin/openzeppelin-contracts/blob/master/contracts/token/ERC20/ERC20.sol\":7096:7101  owner */\n      dup3\n        /* \"https://github.com/OpenZeppelin/openzeppelin-contracts/blob/master/contracts/token/ERC20/ERC20.sol\":7103:7110  spender */\n      dup7\n        /* \"https://github.com/OpenZeppelin/openzeppelin-contracts/blob/master/contracts/token/ERC20/ERC20.sol\":7131:7148  requestedDecrease */\n      dup7\n        /* \"https://github.com/OpenZeppelin/openzeppelin-contracts/blob/master/contracts/token/ERC20/ERC20.sol\":7112:7128  currentAllowance */\n      dup5\n        /* \"https://github.com/OpenZeppelin/openzeppelin-contracts/blob/master/contracts/token/ERC20/ERC20.sol\":7112:7148  currentAllowance - requestedDecrease */\n      sub\n        /* \"https://github.com/OpenZeppelin/openzeppelin-contracts/blob/master/contracts/token/ERC20/ERC20.sol\":7087:7095  _approve */\n      tag_139\n        /* \"https://github.com/OpenZeppelin/openzeppelin-contracts/blob/master/contracts/token/ERC20/ERC20.sol\":7087:7149  _approve(owner, spender, currentAllowance - requestedDecrease) */\n      jump\t// in\n    tag_230:\n        /* \"https://github.com/OpenZeppelin/openzeppelin-contracts/blob/master/contracts/token/ERC20/ERC20.sol\":7177:7181  true */\n      0x01\n        /* \"https://github.com/OpenZeppelin/openzeppelin-contracts/blob/master/contracts/token/ERC20/ERC20.sol\":7170:7181  return true */\n      swap3\n      pop\n      pop\n      pop\n        /* \"https://github.com/OpenZeppelin/openzeppelin-contracts/blob/master/contracts/token/ERC20/ERC20.sol\":6695:7188  function decreaseAllowance(address spender, uint256 requestedDecrease) public virtual returns (bool) {... */\n      swap3\n      swap2\n      pop\n      pop\n      jump\t// out\n        /* \"https://github.com/OpenZeppelin/openzeppelin-contracts/blob/master/contracts/token/ERC20/ERC20.sol\":3894:4074  function transfer(address to, uint256 amount) public virtual returns (bool) {... */\n    tag_102:\n        /* \"https://github.com/OpenZeppelin/openzeppelin-contracts/blob/master/contracts/token/ERC20/ERC20.sol\":3964:3968  bool */\n      0x00\n        /* \"https://github.com/OpenZeppelin/openzeppelin-contracts/blob/master/contracts/token/ERC20/ERC20.sol\":3980:3993  address owner */\n      dup1\n        /* \"https://github.com/OpenZeppelin/openzeppelin-contracts/blob/master/contracts/token/ERC20/ERC20.sol\":3996:4008  _msgSender() */\n      tag_232\n        /* \"https://github.com/OpenZeppelin/openzeppelin-contracts/blob/master/contracts/token/ERC20/ERC20.sol\":3996:4006  _msgSender */\n      tag_137\n        /* \"https://github.com/OpenZeppelin/openzeppelin-contracts/blob/master/contracts/token/ERC20/ERC20.sol\":3996:4008  _msgSender() */\n      jump\t// in\n    tag_232:\n        /* \"https://github.com/OpenZeppelin/openzeppelin-contracts/blob/master/contracts/token/ERC20/ERC20.sol\":3980:4008  address owner = _msgSender() */\n      swap1\n      pop\n        /* \"https://github.com/OpenZeppelin/openzeppelin-contracts/blob/master/contracts/token/ERC20/ERC20.sol\":4018:4046  _transfer(owner, to, amount) */\n      tag_233\n        /* \"https://github.com/OpenZeppelin/openzeppelin-contracts/blob/master/contracts/token/ERC20/ERC20.sol\":4028:4033  owner */\n      dup2\n        /* \"https://github.com/OpenZeppelin/openzeppelin-contracts/blob/master/contracts/token/ERC20/ERC20.sol\":4035:4037  to */\n      dup6\n        /* \"https://github.com/OpenZeppelin/openzeppelin-contracts/blob/master/contracts/token/ERC20/ERC20.sol\":4039:4045  amount */\n      dup6\n        /* \"https://github.com/OpenZeppelin/openzeppelin-contracts/blob/master/contracts/token/ERC20/ERC20.sol\":4018:4027  _transfer */\n      tag_146\n        /* \"https://github.com/OpenZeppelin/openzeppelin-contracts/blob/master/contracts/token/ERC20/ERC20.sol\":4018:4046  _transfer(owner, to, amount) */\n      jump\t// in\n    tag_233:\n        /* \"https://github.com/OpenZeppelin/openzeppelin-contracts/blob/master/contracts/token/ERC20/ERC20.sol\":4063:4067  true */\n      0x01\n        /* \"https://github.com/OpenZeppelin/openzeppelin-contracts/blob/master/contracts/token/ERC20/ERC20.sol\":4056:4067  return true */\n      swap2\n      pop\n      pop\n        /* \"https://github.com/OpenZeppelin/openzeppelin-contracts/blob/master/contracts/token/ERC20/ERC20.sol\":3894:4074  function transfer(address to, uint256 amount) public virtual returns (bool) {... */\n      swap3\n      swap2\n      pop\n      pop\n      jump\t// out\n        /* \"contracts/Exchange.sol\":2124:2372  function getTokenAmount(uint256 _ethSold) public view returns(uint256) {... */\n    tag_107:\n        /* \"contracts/Exchange.sol\":2186:2193  uint256 */\n      0x00\n        /* \"contracts/Exchange.sol\":2225:2226  0 */\n      dup1\n        /* \"contracts/Exchange.sol\":2214:2222  _ethSold */\n      dup3\n        /* \"contracts/Exchange.sol\":2214:2226  _ethSold > 0 */\n      gt\n        /* \"contracts/Exchange.sol\":2206:2244  require(_ethSold > 0, \"Invalid input\") */\n      tag_235\n      jumpi\n      mload(0x40)\n      0x08c379a000000000000000000000000000000000000000000000000000000000\n      dup2\n      mstore\n      0x04\n      add\n      tag_236\n      swap1\n      tag_194\n      jump\t// in\n    tag_236:\n      mload(0x40)\n      dup1\n      swap2\n      sub\n      swap1\n      revert\n    tag_235:\n        /* \"contracts/Exchange.sol\":2255:2275  uint256 tokenReserve */\n      0x00\n        /* \"contracts/Exchange.sol\":2278:2290  getReserve() */\n      tag_237\n        /* \"contracts/Exchange.sol\":2278:2288  getReserve */\n      tag_65\n        /* \"contracts/Exchange.sol\":2278:2290  getReserve() */\n      jump\t// in\n    tag_237:\n        /* \"contracts/Exchange.sol\":2255:2290  uint256 tokenReserve = getReserve() */\n      swap1\n      pop\n        /* \"contracts/Exchange.sol\":2308:2364  getAmount(_ethSold, address(this).balance, tokenReserve) */\n      tag_238\n        /* \"contracts/Exchange.sol\":2318:2326  _ethSold */\n      dup4\n        /* \"contracts/Exchange.sol\":2328:2349  address(this).balance */\n      selfbalance\n        /* \"contracts/Exchange.sol\":2351:2363  tokenReserve */\n      dup4\n        /* \"contracts/Exchange.sol\":2308:2317  getAmount */\n      tag_197\n        /* \"contracts/Exchange.sol\":2308:2364  getAmount(_ethSold, address(this).balance, tokenReserve) */\n      jump\t// in\n    tag_238:\n        /* \"contracts/Exchange.sol\":2301:2364  return getAmount(_ethSold, address(this).balance, tokenReserve) */\n      swap2\n      pop\n      pop\n        /* \"contracts/Exchange.sol\":2124:2372  function getTokenAmount(uint256 _ethSold) public view returns(uint256) {... */\n      swap2\n      swap1\n      pop\n      jump\t// out\n        /* \"https://github.com/OpenZeppelin/openzeppelin-contracts/blob/master/contracts/token/ERC20/ERC20.sol\":4132:4272  function allowance(address owner, address spender) public view virtual returns (uint256) {... */\n    tag_113:\n        /* \"https://github.com/OpenZeppelin/openzeppelin-contracts/blob/master/contracts/token/ERC20/ERC20.sol\":4212:4219  uint256 */\n      0x00\n        /* \"https://github.com/OpenZeppelin/openzeppelin-contracts/blob/master/contracts/token/ERC20/ERC20.sol\":4238:4249  _allowances */\n      0x01\n        /* \"https://github.com/OpenZeppelin/openzeppelin-contracts/blob/master/contracts/token/ERC20/ERC20.sol\":4238:4256  _allowances[owner] */\n      0x00\n        /* \"https://github.com/OpenZeppelin/openzeppelin-contracts/blob/master/contracts/token/ERC20/ERC20.sol\":4250:4255  owner */\n      dup5\n        /* \"https://github.com/OpenZeppelin/openzeppelin-contracts/blob/master/contracts/token/ERC20/ERC20.sol\":4238:4256  _allowances[owner] */\n      0xffffffffffffffffffffffffffffffffffffffff\n      and\n      0xffffffffffffffffffffffffffffffffffffffff\n      and\n      dup2\n      mstore\n      0x20\n      add\n      swap1\n      dup2\n      mstore\n      0x20\n      add\n      0x00\n      keccak256\n        /* \"https://github.com/OpenZeppelin/openzeppelin-contracts/blob/master/contracts/token/ERC20/ERC20.sol\":4238:4265  _allowances[owner][spender] */\n      0x00\n        /* \"https://github.com/OpenZeppelin/openzeppelin-contracts/blob/master/contracts/token/ERC20/ERC20.sol\":4257:4264  spender */\n      dup4\n        /* \"https://github.com/OpenZeppelin/openzeppelin-contracts/blob/master/contracts/token/ERC20/ERC20.sol\":4238:4265  _allowances[owner][spender] */\n      0xffffffffffffffffffffffffffffffffffffffff\n      and\n      0xffffffffffffffffffffffffffffffffffffffff\n      and\n      dup2\n      mstore\n      0x20\n      add\n      swap1\n      dup2\n      mstore\n      0x20\n      add\n      0x00\n      keccak256\n      sload\n        /* \"https://github.com/OpenZeppelin/openzeppelin-contracts/blob/master/contracts/token/ERC20/ERC20.sol\":4231:4265  return _allowances[owner][spender] */\n      swap1\n      pop\n        /* \"https://github.com/OpenZeppelin/openzeppelin-contracts/blob/master/contracts/token/ERC20/ERC20.sol\":4132:4272  function allowance(address owner, address spender) public view virtual returns (uint256) {... */\n      swap3\n      swap2\n      pop\n      pop\n      jump\t// out\n        /* \"contracts/Exchange.sol\":3115:3633  function tokenToEthSwap(uint256 _tokenSold, uint256 _minEth) public payable returns(uint256) {... */\n    tag_118:\n        /* \"contracts/Exchange.sol\":3199:3206  uint256 */\n      0x00\n        /* \"contracts/Exchange.sol\":3219:3239  uint256 tokenReserve */\n      dup1\n        /* \"contracts/Exchange.sol\":3242:3254  getReserve() */\n      tag_241\n        /* \"contracts/Exchange.sol\":3242:3252  getReserve */\n      tag_65\n        /* \"contracts/Exchange.sol\":3242:3254  getReserve() */\n      jump\t// in\n    tag_241:\n        /* \"contracts/Exchange.sol\":3219:3254  uint256 tokenReserve = getReserve() */\n      swap1\n      pop\n        /* \"contracts/Exchange.sol\":3265:3282  uint256 ethBought */\n      0x00\n        /* \"contracts/Exchange.sol\":3285:3393  getAmount(... */\n      tag_242\n        /* \"contracts/Exchange.sol\":3309:3319  _tokenSold */\n      dup6\n        /* \"contracts/Exchange.sol\":3334:3346  tokenReserve */\n      dup4\n        /* \"contracts/Exchange.sol\":3361:3382  address(this).balance */\n      selfbalance\n        /* \"contracts/Exchange.sol\":3285:3294  getAmount */\n      tag_197\n        /* \"contracts/Exchange.sol\":3285:3393  getAmount(... */\n      jump\t// in\n    tag_242:\n        /* \"contracts/Exchange.sol\":3265:3393  uint256 ethBought = getAmount(... */\n      swap1\n      pop\n        /* \"contracts/Exchange.sol\":3425:3432  _minEth */\n      dup4\n        /* \"contracts/Exchange.sol\":3412:3421  ethBought */\n      dup2\n        /* \"contracts/Exchange.sol\":3412:3432  ethBought >= _minEth */\n      lt\n      iszero\n        /* \"contracts/Exchange.sol\":3404:3463  require(ethBought >= _minEth, \"Insufficient output amount\") */\n      tag_243\n      jumpi\n      mload(0x40)\n      0x08c379a000000000000000000000000000000000000000000000000000000000\n      dup2\n      mstore\n      0x04\n      add\n      tag_244\n      swap1\n      tag_245\n      jump\t// in\n    tag_244:\n      mload(0x40)\n      dup1\n      swap2\n      sub\n      swap1\n      revert\n    tag_243:\n        /* \"contracts/Exchange.sol\":3483:3495  tokenAddress */\n      0x05\n      0x00\n      swap1\n      sload\n      swap1\n      0x0100\n      exp\n      swap1\n      div\n      0xffffffffffffffffffffffffffffffffffffffff\n      and\n        /* \"contracts/Exchange.sol\":3476:3509  IERC20(tokenAddress).transferFrom */\n      0xffffffffffffffffffffffffffffffffffffffff\n      and\n      0x23b872dd\n        /* \"contracts/Exchange.sol\":3510:3520  msg.sender */\n      caller\n        /* \"contracts/Exchange.sol\":3530:3534  this */\n      address\n        /* \"contracts/Exchange.sol\":3537:3547  _tokenSold */\n      dup9\n        /* \"contracts/Exchange.sol\":3476:3548  IERC20(tokenAddress).transferFrom(msg.sender, address(this), _tokenSold) */\n      mload(0x40)\n      dup5\n      0xffffffff\n      and\n      0xe0\n      shl\n      dup2\n      mstore\n      0x04\n      add\n      tag_246\n      swap4\n      swap3\n      swap2\n      swap1\n      tag_158\n      jump\t// in\n    tag_246:\n      0x20\n      mload(0x40)\n      dup1\n      dup4\n      sub\n      dup2\n      0x00\n      dup8\n      gas\n      call\n      iszero\n      dup1\n      iszero\n      tag_248\n      jumpi\n      returndatasize\n      0x00\n      dup1\n      returndatacopy\n      revert(0x00, returndatasize)\n    tag_248:\n      pop\n      pop\n      pop\n      pop\n      mload(0x40)\n      returndatasize\n      not(0x1f)\n      0x1f\n      dup3\n      add\n      and\n      dup3\n      add\n      dup1\n      0x40\n      mstore\n      pop\n      dup2\n      add\n      swap1\n      tag_249\n      swap2\n      swap1\n      tag_162\n      jump\t// in\n    tag_249:\n      pop\n        /* \"contracts/Exchange.sol\":3567:3577  msg.sender */\n      caller\n        /* \"contracts/Exchange.sol\":3559:3587  payable(msg.sender).transfer */\n      0xffffffffffffffffffffffffffffffffffffffff\n      and\n        /* \"contracts/Exchange.sol\":3559:3598  payable(msg.sender).transfer(ethBought) */\n      0x08fc\n        /* \"contracts/Exchange.sol\":3588:3597  ethBought */\n      dup3\n        /* \"contracts/Exchange.sol\":3559:3598  payable(msg.sender).transfer(ethBought) */\n      swap1\n      dup2\n      iszero\n      mul\n      swap1\n      mload(0x40)\n      0x00\n      mload(0x40)\n      dup1\n      dup4\n      sub\n      dup2\n      dup6\n      dup9\n      dup9\n      call\n      swap4\n      pop\n      pop\n      pop\n      pop\n      iszero\n      dup1\n      iszero\n      tag_251\n      jumpi\n      returndatasize\n      0x00\n      dup1\n      returndatacopy\n      revert(0x00, returndatasize)\n    tag_251:\n      pop\n        /* \"contracts/Exchange.sol\":3616:3625  ethBought */\n      dup1\n        /* \"contracts/Exchange.sol\":3609:3625  return ethBought */\n      swap3\n      pop\n      pop\n      pop\n        /* \"contracts/Exchange.sol\":3115:3633  function tokenToEthSwap(uint256 _tokenSold, uint256 _minEth) public payable returns(uint256) {... */\n      swap3\n      swap2\n      pop\n      pop\n      jump\t// out\n        /* \"contracts/Exchange.sol\":4124:5175  function tokenToTokenSwap(... */\n    tag_123:\n        /* \"contracts/Exchange.sol\":4482:4505  address exchangeAddress */\n      0x00\n        /* \"contracts/Exchange.sol\":4517:4531  factoryAddress */\n      0x06\n      0x00\n      swap1\n      sload\n      swap1\n      0x0100\n      exp\n      swap1\n      div\n      0xffffffffffffffffffffffffffffffffffffffff\n      and\n        /* \"contracts/Exchange.sol\":4508:4544  IFactory(factoryAddress).getExchange */\n      0xffffffffffffffffffffffffffffffffffffffff\n      and\n      0x06f2bf62\n        /* \"contracts/Exchange.sol\":4545:4558  _tokenAddress */\n      dup4\n        /* \"contracts/Exchange.sol\":4508:4559  IFactory(factoryAddress).getExchange(_tokenAddress) */\n      mload(0x40)\n      dup3\n      0xffffffff\n      and\n      0xe0\n      shl\n      dup2\n      mstore\n      0x04\n      add\n      tag_253\n      swap2\n      swap1\n      tag_86\n      jump\t// in\n    tag_253:\n      0x20\n      mload(0x40)\n      dup1\n      dup4\n      sub\n      dup2\n      0x00\n      dup8\n      gas\n      call\n      iszero\n      dup1\n      iszero\n      tag_255\n      jumpi\n      returndatasize\n      0x00\n      dup1\n      returndatacopy\n      revert(0x00, returndatasize)\n    tag_255:\n      pop\n      pop\n      pop\n      pop\n      mload(0x40)\n      returndatasize\n      not(0x1f)\n      0x1f\n      dup3\n      add\n      and\n      dup3\n      add\n      dup1\n      0x40\n      mstore\n      pop\n      dup2\n      add\n      swap1\n      tag_256\n      swap2\n      swap1\n      tag_257\n      jump\t// in\n    tag_256:\n        /* \"contracts/Exchange.sol\":4482:4559  address exchangeAddress = IFactory(factoryAddress).getExchange(_tokenAddress) */\n      swap1\n      pop\n        /* \"contracts/Exchange.sol\":4619:4623  this */\n      address\n        /* \"contracts/Exchange.sol\":4592:4624  exchangeAddress != address(this) */\n      0xffffffffffffffffffffffffffffffffffffffff\n      and\n        /* \"contracts/Exchange.sol\":4592:4607  exchangeAddress */\n      dup2\n        /* \"contracts/Exchange.sol\":4592:4624  exchangeAddress != address(this) */\n      0xffffffffffffffffffffffffffffffffffffffff\n      and\n      eq\n      iszero\n        /* \"contracts/Exchange.sol\":4592:4657  exchangeAddress != address(this) && exchangeAddress != address(0) */\n      dup1\n      iszero\n      tag_258\n      jumpi\n      pop\n        /* \"contracts/Exchange.sol\":4655:4656  0 */\n      0x00\n        /* \"contracts/Exchange.sol\":4628:4657  exchangeAddress != address(0) */\n      0xffffffffffffffffffffffffffffffffffffffff\n      and\n        /* \"contracts/Exchange.sol\":4628:4643  exchangeAddress */\n      dup2\n        /* \"contracts/Exchange.sol\":4628:4657  exchangeAddress != address(0) */\n      0xffffffffffffffffffffffffffffffffffffffff\n      and\n      eq\n      iszero\n        /* \"contracts/Exchange.sol\":4592:4657  exchangeAddress != address(this) && exchangeAddress != address(0) */\n    tag_258:\n        /* \"contracts/Exchange.sol\":4570:4709  require(... */\n      tag_259\n      jumpi\n      mload(0x40)\n      0x08c379a000000000000000000000000000000000000000000000000000000000\n      dup2\n      mstore\n      0x04\n      add\n      tag_260\n      swap1\n      tag_261\n      jump\t// in\n    tag_260:\n      mload(0x40)\n      dup1\n      swap2\n      sub\n      swap1\n      revert\n    tag_259:\n        /* \"contracts/Exchange.sol\":4730:4750  uint256 tokenReserve */\n      0x00\n        /* \"contracts/Exchange.sol\":4753:4765  getReserve() */\n      tag_262\n        /* \"contracts/Exchange.sol\":4753:4763  getReserve */\n      tag_65\n        /* \"contracts/Exchange.sol\":4753:4765  getReserve() */\n      jump\t// in\n    tag_262:\n        /* \"contracts/Exchange.sol\":4730:4765  uint256 tokenReserve = getReserve() */\n      swap1\n      pop\n        /* \"contracts/Exchange.sol\":4776:4793  uint256 ethAmount */\n      0x00\n        /* \"contracts/Exchange.sol\":4796:4904  getAmount(... */\n      tag_263\n        /* \"contracts/Exchange.sol\":4820:4830  _tokenSold */\n      dup7\n        /* \"contracts/Exchange.sol\":4845:4857  tokenReserve */\n      dup4\n        /* \"contracts/Exchange.sol\":4872:4893  address(this).balance */\n      selfbalance\n        /* \"contracts/Exchange.sol\":4796:4805  getAmount */\n      tag_197\n        /* \"contracts/Exchange.sol\":4796:4904  getAmount(... */\n      jump\t// in\n    tag_263:\n        /* \"contracts/Exchange.sol\":4776:4904  uint256 ethAmount = getAmount(... */\n      swap1\n      pop\n        /* \"contracts/Exchange.sol\":4922:4934  tokenAddress */\n      0x05\n      0x00\n      swap1\n      sload\n      swap1\n      0x0100\n      exp\n      swap1\n      div\n      0xffffffffffffffffffffffffffffffffffffffff\n      and\n        /* \"contracts/Exchange.sol\":4915:4948  IERC20(tokenAddress).transferFrom */\n      0xffffffffffffffffffffffffffffffffffffffff\n      and\n      0x23b872dd\n        /* \"contracts/Exchange.sol\":4949:4959  msg.sender */\n      caller\n        /* \"contracts/Exchange.sol\":4969:4973  this */\n      address\n        /* \"contracts/Exchange.sol\":4976:4986  _tokenSold */\n      dup10\n        /* \"contracts/Exchange.sol\":4915:4987  IERC20(tokenAddress).transferFrom(msg.sender, address(this), _tokenSold) */\n      mload(0x40)\n      dup5\n      0xffffffff\n      and\n      0xe0\n      shl\n      dup2\n      mstore\n      0x04\n      add\n      tag_264\n      swap4\n      swap3\n      swap2\n      swap1\n      tag_158\n      jump\t// in\n    tag_264:\n      0x20\n      mload(0x40)\n      dup1\n      dup4\n      sub\n      dup2\n      0x00\n      dup8\n      gas\n      call\n      iszero\n      dup1\n      iszero\n      tag_266\n      jumpi\n      returndatasize\n      0x00\n      dup1\n      returndatacopy\n      revert(0x00, returndatasize)\n    tag_266:\n      pop\n      pop\n      pop\n      pop\n      mload(0x40)\n      returndatasize\n      not(0x1f)\n      0x1f\n      dup3\n      add\n      and\n      dup3\n      add\n      dup1\n      0x40\n      mstore\n      pop\n      dup2\n      add\n      swap1\n      tag_267\n      swap2\n      swap1\n      tag_162\n      jump\t// in\n    tag_267:\n      pop\n        /* \"contracts/Exchange.sol\":5000:5020  uint256 tokensBought */\n      0x00\n        /* \"contracts/Exchange.sol\":5033:5048  exchangeAddress */\n      dup4\n        /* \"contracts/Exchange.sol\":5023:5064  IExchange(exchangeAddress).ethToTokenSwap */\n      0xffffffffffffffffffffffffffffffffffffffff\n      and\n      0xf979dcd7\n        /* \"contracts/Exchange.sol\":5072:5081  ethAmount */\n      dup4\n        /* \"contracts/Exchange.sol\":5083:5099  _minTokensBought */\n      dup9\n        /* \"contracts/Exchange.sol\":5023:5100  IExchange(exchangeAddress).ethToTokenSwap{value: ethAmount}(_minTokensBought) */\n      mload(0x40)\n      dup4\n      0xffffffff\n      and\n      0xe0\n      shl\n      dup2\n      mstore\n      0x04\n      add\n      tag_268\n      swap2\n      swap1\n      tag_42\n      jump\t// in\n    tag_268:\n      0x20\n      mload(0x40)\n      dup1\n      dup4\n      sub\n      dup2\n      dup6\n      dup9\n      gas\n      call\n      iszero\n      dup1\n      iszero\n      tag_270\n      jumpi\n      returndatasize\n      0x00\n      dup1\n      returndatacopy\n      revert(0x00, returndatasize)\n    tag_270:\n      pop\n      pop\n      pop\n      pop\n      pop\n      mload(0x40)\n      returndatasize\n      not(0x1f)\n      0x1f\n      dup3\n      add\n      and\n      dup3\n      add\n      dup1\n      0x40\n      mstore\n      pop\n      dup2\n      add\n      swap1\n      tag_271\n      swap2\n      swap1\n      tag_189\n      jump\t// in\n    tag_271:\n        /* \"contracts/Exchange.sol\":5000:5100  uint256 tokensBought = IExchange(exchangeAddress).ethToTokenSwap{value: ethAmount}(_minTokensBought) */\n      swap1\n      pop\n        /* \"contracts/Exchange.sol\":5118:5131  _tokenAddress */\n      dup5\n        /* \"contracts/Exchange.sol\":5111:5141  IERC20(_tokenAddress).transfer */\n      0xffffffffffffffffffffffffffffffffffffffff\n      and\n      0xa9059cbb\n        /* \"contracts/Exchange.sol\":5142:5152  msg.sender */\n      caller\n        /* \"contracts/Exchange.sol\":5154:5166  tokensBought */\n      dup4\n        /* \"contracts/Exchange.sol\":5111:5167  IERC20(_tokenAddress).transfer(msg.sender, tokensBought) */\n      mload(0x40)\n      dup4\n      0xffffffff\n      and\n      0xe0\n      shl\n      dup2\n      mstore\n      0x04\n      add\n      tag_272\n      swap3\n      swap2\n      swap1\n      tag_220\n      jump\t// in\n    tag_272:\n      0x20\n      mload(0x40)\n      dup1\n      dup4\n      sub\n      dup2\n      0x00\n      dup8\n      gas\n      call\n      iszero\n      dup1\n      iszero\n      tag_274\n      jumpi\n      returndatasize\n      0x00\n      dup1\n      returndatacopy\n      revert(0x00, returndatasize)\n    tag_274:\n      pop\n      pop\n      pop\n      pop\n      mload(0x40)\n      returndatasize\n      not(0x1f)\n      0x1f\n      dup3\n      add\n      and\n      dup3\n      add\n      dup1\n      0x40\n      mstore\n      pop\n      dup2\n      add\n      swap1\n      tag_275\n      swap2\n      swap1\n      tag_162\n      jump\t// in\n    tag_275:\n      pop\n        /* \"contracts/Exchange.sol\":4270:5175  {... */\n      pop\n      pop\n      pop\n      pop\n        /* \"contracts/Exchange.sol\":4124:5175  function tokenToTokenSwap(... */\n      pop\n      pop\n      pop\n      jump\t// out\n        /* \"contracts/Exchange.sol\":2641:3107  function ethToTokenSwap(uint256 _minTokens) public payable override returns(uint256) {... */\n    tag_126:\n        /* \"contracts/Exchange.sol\":2717:2724  uint256 */\n      0x00\n        /* \"contracts/Exchange.sol\":2737:2757  uint256 tokenReserve */\n      dup1\n        /* \"contracts/Exchange.sol\":2760:2772  getReserve() */\n      tag_277\n        /* \"contracts/Exchange.sol\":2760:2770  getReserve */\n      tag_65\n        /* \"contracts/Exchange.sol\":2760:2772  getReserve() */\n      jump\t// in\n    tag_277:\n        /* \"contracts/Exchange.sol\":2737:2772  uint256 tokenReserve = getReserve() */\n      swap1\n      pop\n        /* \"contracts/Exchange.sol\":2783:2803  uint256 tokensBought */\n      0x00\n        /* \"contracts/Exchange.sol\":2806:2925  getAmount(... */\n      tag_278\n        /* \"contracts/Exchange.sol\":2830:2839  msg.value */\n      callvalue\n        /* \"contracts/Exchange.sol\":2878:2887  msg.value */\n      callvalue\n        /* \"contracts/Exchange.sol\":2854:2875  address(this).balance */\n      selfbalance\n        /* \"contracts/Exchange.sol\":2854:2887  address(this).balance - msg.value */\n      tag_279\n      swap2\n      swap1\n      tag_167\n      jump\t// in\n    tag_279:\n        /* \"contracts/Exchange.sol\":2902:2914  tokenReserve */\n      dup5\n        /* \"contracts/Exchange.sol\":2806:2815  getAmount */\n      tag_197\n        /* \"contracts/Exchange.sol\":2806:2925  getAmount(... */\n      jump\t// in\n    tag_278:\n        /* \"contracts/Exchange.sol\":2783:2925  uint256 tokensBought = getAmount(... */\n      swap1\n      pop\n        /* \"contracts/Exchange.sol\":2960:2970  _minTokens */\n      dup4\n        /* \"contracts/Exchange.sol\":2944:2956  tokensBought */\n      dup2\n        /* \"contracts/Exchange.sol\":2944:2970  tokensBought >= _minTokens */\n      lt\n      iszero\n        /* \"contracts/Exchange.sol\":2936:3001  require(tokensBought >= _minTokens, \"Insufficient output amount\") */\n      tag_280\n      jumpi\n      mload(0x40)\n      0x08c379a000000000000000000000000000000000000000000000000000000000\n      dup2\n      mstore\n      0x04\n      add\n      tag_281\n      swap1\n      tag_245\n      jump\t// in\n    tag_281:\n      mload(0x40)\n      dup1\n      swap2\n      sub\n      swap1\n      revert\n    tag_280:\n        /* \"contracts/Exchange.sol\":3021:3033  tokenAddress */\n      0x05\n      0x00\n      swap1\n      sload\n      swap1\n      0x0100\n      exp\n      swap1\n      div\n      0xffffffffffffffffffffffffffffffffffffffff\n      and\n        /* \"contracts/Exchange.sol\":3014:3043  IERC20(tokenAddress).transfer */\n      0xffffffffffffffffffffffffffffffffffffffff\n      and\n      0xa9059cbb\n        /* \"contracts/Exchange.sol\":3044:3054  msg.sender */\n      caller\n        /* \"contracts/Exchange.sol\":3056:3068  tokensBought */\n      dup4\n        /* \"contracts/Exchange.sol\":3014:3069  IERC20(tokenAddress).transfer(msg.sender, tokensBought) */\n      mload(0x40)\n      dup4\n      0xffffffff\n      and\n      0xe0\n      shl\n      dup2\n      mstore\n      0x04\n      add\n      tag_282\n      swap3\n      swap2\n      swap1\n      tag_220\n      jump\t// in\n    tag_282:\n      0x20\n      mload(0x40)\n      dup1\n      dup4\n      sub\n      dup2\n      0x00\n      dup8\n      gas\n      call\n      iszero\n      dup1\n      iszero\n      tag_284\n      jumpi\n      returndatasize\n      0x00\n      dup1\n      returndatacopy\n      revert(0x00, returndatasize)\n    tag_284:\n      pop\n      pop\n      pop\n      pop\n      mload(0x40)\n      returndatasize\n      not(0x1f)\n      0x1f\n      dup3\n      add\n      and\n      dup3\n      add\n      dup1\n      0x40\n      mstore\n      pop\n      dup2\n      add\n      swap1\n      tag_285\n      swap2\n      swap1\n      tag_162\n      jump\t// in\n    tag_285:\n      pop\n        /* \"contracts/Exchange.sol\":3087:3099  tokensBought */\n      dup1\n        /* \"contracts/Exchange.sol\":3080:3099  return tokensBought */\n      swap3\n      pop\n      pop\n      pop\n        /* \"contracts/Exchange.sol\":2641:3107  function ethToTokenSwap(uint256 _minTokens) public payable override returns(uint256) {... */\n      swap2\n      swap1\n      pop\n      jump\t// out\n        /* \"https://github.com/OpenZeppelin/openzeppelin-contracts/blob/master/contracts/utils/Context.sol\":641:737  function _msgSender() internal view virtual returns (address) {... */\n    tag_137:\n        /* \"https://github.com/OpenZeppelin/openzeppelin-contracts/blob/master/contracts/utils/Context.sol\":694:701  address */\n      0x00\n        /* \"https://github.com/OpenZeppelin/openzeppelin-contracts/blob/master/contracts/utils/Context.sol\":720:730  msg.sender */\n      caller\n        /* \"https://github.com/OpenZeppelin/openzeppelin-contracts/blob/master/contracts/utils/Context.sol\":713:730  return msg.sender */\n      swap1\n      pop\n        /* \"https://github.com/OpenZeppelin/openzeppelin-contracts/blob/master/contracts/utils/Context.sol\":641:737  function _msgSender() internal view virtual returns (address) {... */\n      swap1\n      jump\t// out\n        /* \"https://github.com/OpenZeppelin/openzeppelin-contracts/blob/master/contracts/token/ERC20/ERC20.sol\":10659:11039  function _approve(address owner, address spender, uint256 amount) internal virtual {... */\n    tag_139:\n        /* \"https://github.com/OpenZeppelin/openzeppelin-contracts/blob/master/contracts/token/ERC20/ERC20.sol\":10773:10774  0 */\n      0x00\n        /* \"https://github.com/OpenZeppelin/openzeppelin-contracts/blob/master/contracts/token/ERC20/ERC20.sol\":10756:10775  owner == address(0) */\n      0xffffffffffffffffffffffffffffffffffffffff\n      and\n        /* \"https://github.com/OpenZeppelin/openzeppelin-contracts/blob/master/contracts/token/ERC20/ERC20.sol\":10756:10761  owner */\n      dup4\n        /* \"https://github.com/OpenZeppelin/openzeppelin-contracts/blob/master/contracts/token/ERC20/ERC20.sol\":10756:10775  owner == address(0) */\n      0xffffffffffffffffffffffffffffffffffffffff\n      and\n      sub\n        /* \"https://github.com/OpenZeppelin/openzeppelin-contracts/blob/master/contracts/token/ERC20/ERC20.sol\":10752:10841  if (owner == address(0)) {... */\n      tag_288\n      jumpi\n        /* \"https://github.com/OpenZeppelin/openzeppelin-contracts/blob/master/contracts/token/ERC20/ERC20.sol\":10827:10828  0 */\n      0x00\n        /* \"https://github.com/OpenZeppelin/openzeppelin-contracts/blob/master/contracts/token/ERC20/ERC20.sol\":10798:10830  ERC20InvalidApprover(address(0)) */\n      mload(0x40)\n      0xe602df0500000000000000000000000000000000000000000000000000000000\n      dup2\n      mstore\n      0x04\n      add\n      tag_289\n      swap2\n      swap1\n      tag_86\n      jump\t// in\n    tag_289:\n      mload(0x40)\n      dup1\n      swap2\n      sub\n      swap1\n      revert\n        /* \"https://github.com/OpenZeppelin/openzeppelin-contracts/blob/master/contracts/token/ERC20/ERC20.sol\":10752:10841  if (owner == address(0)) {... */\n    tag_288:\n        /* \"https://github.com/OpenZeppelin/openzeppelin-contracts/blob/master/contracts/token/ERC20/ERC20.sol\":10873:10874  0 */\n      0x00\n        /* \"https://github.com/OpenZeppelin/openzeppelin-contracts/blob/master/contracts/token/ERC20/ERC20.sol\":10854:10875  spender == address(0) */\n      0xffffffffffffffffffffffffffffffffffffffff\n      and\n        /* \"https://github.com/OpenZeppelin/openzeppelin-contracts/blob/master/contracts/token/ERC20/ERC20.sol\":10854:10861  spender */\n      dup3\n        /* \"https://github.com/OpenZeppelin/openzeppelin-contracts/blob/master/contracts/token/ERC20/ERC20.sol\":10854:10875  spender == address(0) */\n      0xffffffffffffffffffffffffffffffffffffffff\n      and\n      sub\n        /* \"https://github.com/OpenZeppelin/openzeppelin-contracts/blob/master/contracts/token/ERC20/ERC20.sol\":10850:10940  if (spender == address(0)) {... */\n      tag_290\n      jumpi\n        /* \"https://github.com/OpenZeppelin/openzeppelin-contracts/blob/master/contracts/token/ERC20/ERC20.sol\":10926:10927  0 */\n      0x00\n        /* \"https://github.com/OpenZeppelin/openzeppelin-contracts/blob/master/contracts/token/ERC20/ERC20.sol\":10898:10929  ERC20InvalidSpender(address(0)) */\n      mload(0x40)\n      0x94280d6200000000000000000000000000000000000000000000000000000000\n      dup2\n      mstore\n      0x04\n      add\n      tag_291\n      swap2\n      swap1\n      tag_86\n      jump\t// in\n    tag_291:\n      mload(0x40)\n      dup1\n      swap2\n      sub\n      swap1\n      revert\n        /* \"https://github.com/OpenZeppelin/openzeppelin-contracts/blob/master/contracts/token/ERC20/ERC20.sol\":10850:10940  if (spender == address(0)) {... */\n    tag_290:\n        /* \"https://github.com/OpenZeppelin/openzeppelin-contracts/blob/master/contracts/token/ERC20/ERC20.sol\":10979:10985  amount */\n      dup1\n        /* \"https://github.com/OpenZeppelin/openzeppelin-contracts/blob/master/contracts/token/ERC20/ERC20.sol\":10949:10960  _allowances */\n      0x01\n        /* \"https://github.com/OpenZeppelin/openzeppelin-contracts/blob/master/contracts/token/ERC20/ERC20.sol\":10949:10967  _allowances[owner] */\n      0x00\n        /* \"https://github.com/OpenZeppelin/openzeppelin-contracts/blob/master/contracts/token/ERC20/ERC20.sol\":10961:10966  owner */\n      dup6\n        /* \"https://github.com/OpenZeppelin/openzeppelin-contracts/blob/master/contracts/token/ERC20/ERC20.sol\":10949:10967  _allowances[owner] */\n      0xffffffffffffffffffffffffffffffffffffffff\n      and\n      0xffffffffffffffffffffffffffffffffffffffff\n      and\n      dup2\n      mstore\n      0x20\n      add\n      swap1\n      dup2\n      mstore\n      0x20\n      add\n      0x00\n      keccak256\n        /* \"https://github.com/OpenZeppelin/openzeppelin-contracts/blob/master/contracts/token/ERC20/ERC20.sol\":10949:10976  _allowances[owner][spender] */\n      0x00\n        /* \"https://github.com/OpenZeppelin/openzeppelin-contracts/blob/master/contracts/token/ERC20/ERC20.sol\":10968:10975  spender */\n      dup5\n        /* \"https://github.com/OpenZeppelin/openzeppelin-contracts/blob/master/contracts/token/ERC20/ERC20.sol\":10949:10976  _allowances[owner][spender] */\n      0xffffffffffffffffffffffffffffffffffffffff\n      and\n      0xffffffffffffffffffffffffffffffffffffffff\n      and\n      dup2\n      mstore\n      0x20\n      add\n      swap1\n      dup2\n      mstore\n      0x20\n      add\n      0x00\n      keccak256\n        /* \"https://github.com/OpenZeppelin/openzeppelin-contracts/blob/master/contracts/token/ERC20/ERC20.sol\":10949:10985  _allowances[owner][spender] = amount */\n      dup2\n      swap1\n      sstore\n      pop\n        /* \"https://github.com/OpenZeppelin/openzeppelin-contracts/blob/master/contracts/token/ERC20/ERC20.sol\":11016:11023  spender */\n      dup2\n        /* \"https://github.com/OpenZeppelin/openzeppelin-contracts/blob/master/contracts/token/ERC20/ERC20.sol\":11000:11032  Approval(owner, spender, amount) */\n      0xffffffffffffffffffffffffffffffffffffffff\n      and\n        /* \"https://github.com/OpenZeppelin/openzeppelin-contracts/blob/master/contracts/token/ERC20/ERC20.sol\":11009:11014  owner */\n      dup4\n        /* \"https://github.com/OpenZeppelin/openzeppelin-contracts/blob/master/contracts/token/ERC20/ERC20.sol\":11000:11032  Approval(owner, spender, amount) */\n      0xffffffffffffffffffffffffffffffffffffffff\n      and\n      0x8c5be1e5ebec7d5bd14f71427d1e84f3dd0314c0f7b2291e5b200ac8c7c3b925\n        /* \"https://github.com/OpenZeppelin/openzeppelin-contracts/blob/master/contracts/token/ERC20/ERC20.sol\":11025:11031  amount */\n      dup4\n        /* \"https://github.com/OpenZeppelin/openzeppelin-contracts/blob/master/contracts/token/ERC20/ERC20.sol\":11000:11032  Approval(owner, spender, amount) */\n      mload(0x40)\n      tag_292\n      swap2\n      swap1\n      tag_42\n      jump\t// in\n    tag_292:\n      mload(0x40)\n      dup1\n      swap2\n      sub\n      swap1\n      log3\n        /* \"https://github.com/OpenZeppelin/openzeppelin-contracts/blob/master/contracts/token/ERC20/ERC20.sol\":10659:11039  function _approve(address owner, address spender, uint256 amount) internal virtual {... */\n      pop\n      pop\n      pop\n      jump\t// out\n        /* \"https://github.com/OpenZeppelin/openzeppelin-contracts/blob/master/contracts/token/ERC20/ERC20.sol\":11320:11794  function _spendAllowance(address owner, address spender, uint256 amount) internal virtual {... */\n    tag_144:\n        /* \"https://github.com/OpenZeppelin/openzeppelin-contracts/blob/master/contracts/token/ERC20/ERC20.sol\":11420:11444  uint256 currentAllowance */\n      0x00\n        /* \"https://github.com/OpenZeppelin/openzeppelin-contracts/blob/master/contracts/token/ERC20/ERC20.sol\":11447:11472  allowance(owner, spender) */\n      tag_294\n        /* \"https://github.com/OpenZeppelin/openzeppelin-contracts/blob/master/contracts/token/ERC20/ERC20.sol\":11457:11462  owner */\n      dup5\n        /* \"https://github.com/OpenZeppelin/openzeppelin-contracts/blob/master/contracts/token/ERC20/ERC20.sol\":11464:11471  spender */\n      dup5\n        /* \"https://github.com/OpenZeppelin/openzeppelin-contracts/blob/master/contracts/token/ERC20/ERC20.sol\":11447:11456  allowance */\n      tag_113\n        /* \"https://github.com/OpenZeppelin/openzeppelin-contracts/blob/master/contracts/token/ERC20/ERC20.sol\":11447:11472  allowance(owner, spender) */\n      jump\t// in\n    tag_294:\n        /* \"https://github.com/OpenZeppelin/openzeppelin-contracts/blob/master/contracts/token/ERC20/ERC20.sol\":11420:11472  uint256 currentAllowance = allowance(owner, spender) */\n      swap1\n      pop\n        /* \"https://github.com/OpenZeppelin/openzeppelin-contracts/blob/master/contracts/token/ERC20/ERC20.sol\":11506:11523  type(uint256).max */\n      0xffffffffffffffffffffffffffffffffffffffffffffffffffffffffffffffff\n        /* \"https://github.com/OpenZeppelin/openzeppelin-contracts/blob/master/contracts/token/ERC20/ERC20.sol\":11486:11502  currentAllowance */\n      dup2\n        /* \"https://github.com/OpenZeppelin/openzeppelin-contracts/blob/master/contracts/token/ERC20/ERC20.sol\":11486:11523  currentAllowance != type(uint256).max */\n      eq\n        /* \"https://github.com/OpenZeppelin/openzeppelin-contracts/blob/master/contracts/token/ERC20/ERC20.sol\":11482:11788  if (currentAllowance != type(uint256).max) {... */\n      tag_295\n      jumpi\n        /* \"https://github.com/OpenZeppelin/openzeppelin-contracts/blob/master/contracts/token/ERC20/ERC20.sol\":11562:11568  amount */\n      dup2\n        /* \"https://github.com/OpenZeppelin/openzeppelin-contracts/blob/master/contracts/token/ERC20/ERC20.sol\":11543:11559  currentAllowance */\n      dup2\n        /* \"https://github.com/OpenZeppelin/openzeppelin-contracts/blob/master/contracts/token/ERC20/ERC20.sol\":11543:11568  currentAllowance < amount */\n      lt\n        /* \"https://github.com/OpenZeppelin/openzeppelin-contracts/blob/master/contracts/token/ERC20/ERC20.sol\":11539:11671  if (currentAllowance < amount) {... */\n      iszero\n      tag_296\n      jumpi\n        /* \"https://github.com/OpenZeppelin/openzeppelin-contracts/blob/master/contracts/token/ERC20/ERC20.sol\":11622:11629  spender */\n      dup3\n        /* \"https://github.com/OpenZeppelin/openzeppelin-contracts/blob/master/contracts/token/ERC20/ERC20.sol\":11631:11647  currentAllowance */\n      dup2\n        /* \"https://github.com/OpenZeppelin/openzeppelin-contracts/blob/master/contracts/token/ERC20/ERC20.sol\":11649:11655  amount */\n      dup4\n        /* \"https://github.com/OpenZeppelin/openzeppelin-contracts/blob/master/contracts/token/ERC20/ERC20.sol\":11595:11656  ERC20InsufficientAllowance(spender, currentAllowance, amount) */\n      mload(0x40)\n      0xfb8f41b200000000000000000000000000000000000000000000000000000000\n      dup2\n      mstore\n      0x04\n      add\n      tag_297\n      swap4\n      swap3\n      swap2\n      swap1\n      tag_229\n      jump\t// in\n    tag_297:\n      mload(0x40)\n      dup1\n      swap2\n      sub\n      swap1\n      revert\n        /* \"https://github.com/OpenZeppelin/openzeppelin-contracts/blob/master/contracts/token/ERC20/ERC20.sol\":11539:11671  if (currentAllowance < amount) {... */\n    tag_296:\n        /* \"https://github.com/OpenZeppelin/openzeppelin-contracts/blob/master/contracts/token/ERC20/ERC20.sol\":11712:11763  _approve(owner, spender, currentAllowance - amount) */\n      tag_298\n        /* \"https://github.com/OpenZeppelin/openzeppelin-contracts/blob/master/contracts/token/ERC20/ERC20.sol\":11721:11726  owner */\n      dup5\n        /* \"https://github.com/OpenZeppelin/openzeppelin-contracts/blob/master/contracts/token/ERC20/ERC20.sol\":11728:11735  spender */\n      dup5\n        /* \"https://github.com/OpenZeppelin/openzeppelin-contracts/blob/master/contracts/token/ERC20/ERC20.sol\":11756:11762  amount */\n      dup5\n        /* \"https://github.com/OpenZeppelin/openzeppelin-contracts/blob/master/contracts/token/ERC20/ERC20.sol\":11737:11753  currentAllowance */\n      dup5\n        /* \"https://github.com/OpenZeppelin/openzeppelin-contracts/blob/master/contracts/token/ERC20/ERC20.sol\":11737:11762  currentAllowance - amount */\n      sub\n        /* \"https://github.com/OpenZeppelin/openzeppelin-contracts/blob/master/contracts/token/ERC20/ERC20.sol\":11712:11720  _approve */\n      tag_139\n        /* \"https://github.com/OpenZeppelin/openzeppelin-contracts/blob/master/contracts/token/ERC20/ERC20.sol\":11712:11763  _approve(owner, spender, currentAllowance - amount) */\n      jump\t// in\n    tag_298:\n        /* \"https://github.com/OpenZeppelin/openzeppelin-contracts/blob/master/contracts/token/ERC20/ERC20.sol\":11482:11788  if (currentAllowance != type(uint256).max) {... */\n    tag_295:\n        /* \"https://github.com/OpenZeppelin/openzeppelin-contracts/blob/master/contracts/token/ERC20/ERC20.sol\":11410:11794  {... */\n      pop\n        /* \"https://github.com/OpenZeppelin/openzeppelin-contracts/blob/master/contracts/token/ERC20/ERC20.sol\":11320:11794  function _spendAllowance(address owner, address spender, uint256 amount) internal virtual {... */\n      pop\n      pop\n      pop\n      jump\t// out\n        /* \"https://github.com/OpenZeppelin/openzeppelin-contracts/blob/master/contracts/token/ERC20/ERC20.sol\":7553:7855  function _transfer(address from, address to, uint256 amount) internal {... */\n    tag_146:\n        /* \"https://github.com/OpenZeppelin/openzeppelin-contracts/blob/master/contracts/token/ERC20/ERC20.sol\":7653:7654  0 */\n      0x00\n        /* \"https://github.com/OpenZeppelin/openzeppelin-contracts/blob/master/contracts/token/ERC20/ERC20.sol\":7637:7655  from == address(0) */\n      0xffffffffffffffffffffffffffffffffffffffff\n      and\n        /* \"https://github.com/OpenZeppelin/openzeppelin-contracts/blob/master/contracts/token/ERC20/ERC20.sol\":7637:7641  from */\n      dup4\n        /* \"https://github.com/OpenZeppelin/openzeppelin-contracts/blob/master/contracts/token/ERC20/ERC20.sol\":7637:7655  from == address(0) */\n      0xffffffffffffffffffffffffffffffffffffffff\n      and\n      sub\n        /* \"https://github.com/OpenZeppelin/openzeppelin-contracts/blob/master/contracts/token/ERC20/ERC20.sol\":7633:7719  if (from == address(0)) {... */\n      tag_300\n      jumpi\n        /* \"https://github.com/OpenZeppelin/openzeppelin-contracts/blob/master/contracts/token/ERC20/ERC20.sol\":7705:7706  0 */\n      0x00\n        /* \"https://github.com/OpenZeppelin/openzeppelin-contracts/blob/master/contracts/token/ERC20/ERC20.sol\":7678:7708  ERC20InvalidSender(address(0)) */\n      mload(0x40)\n      0x96c6fd1e00000000000000000000000000000000000000000000000000000000\n      dup2\n      mstore\n      0x04\n      add\n      tag_301\n      swap2\n      swap1\n      tag_86\n      jump\t// in\n    tag_301:\n      mload(0x40)\n      dup1\n      swap2\n      sub\n      swap1\n      revert\n        /* \"https://github.com/OpenZeppelin/openzeppelin-contracts/blob/master/contracts/token/ERC20/ERC20.sol\":7633:7719  if (from == address(0)) {... */\n    tag_300:\n        /* \"https://github.com/OpenZeppelin/openzeppelin-contracts/blob/master/contracts/token/ERC20/ERC20.sol\":7746:7747  0 */\n      0x00\n        /* \"https://github.com/OpenZeppelin/openzeppelin-contracts/blob/master/contracts/token/ERC20/ERC20.sol\":7732:7748  to == address(0) */\n      0xffffffffffffffffffffffffffffffffffffffff\n      and\n        /* \"https://github.com/OpenZeppelin/openzeppelin-contracts/blob/master/contracts/token/ERC20/ERC20.sol\":7732:7734  to */\n      dup3\n        /* \"https://github.com/OpenZeppelin/openzeppelin-contracts/blob/master/contracts/token/ERC20/ERC20.sol\":7732:7748  to == address(0) */\n      0xffffffffffffffffffffffffffffffffffffffff\n      and\n      sub\n        /* \"https://github.com/OpenZeppelin/openzeppelin-contracts/blob/master/contracts/token/ERC20/ERC20.sol\":7728:7814  if (to == address(0)) {... */\n      tag_302\n      jumpi\n        /* \"https://github.com/OpenZeppelin/openzeppelin-contracts/blob/master/contracts/token/ERC20/ERC20.sol\":7800:7801  0 */\n      0x00\n        /* \"https://github.com/OpenZeppelin/openzeppelin-contracts/blob/master/contracts/token/ERC20/ERC20.sol\":7771:7803  ERC20InvalidReceiver(address(0)) */\n      mload(0x40)\n      0xec442f0500000000000000000000000000000000000000000000000000000000\n      dup2\n      mstore\n      0x04\n      add\n      tag_303\n      swap2\n      swap1\n      tag_86\n      jump\t// in\n    tag_303:\n      mload(0x40)\n      dup1\n      swap2\n      sub\n      swap1\n      revert\n        /* \"https://github.com/OpenZeppelin/openzeppelin-contracts/blob/master/contracts/token/ERC20/ERC20.sol\":7728:7814  if (to == address(0)) {... */\n    tag_302:\n        /* \"https://github.com/OpenZeppelin/openzeppelin-contracts/blob/master/contracts/token/ERC20/ERC20.sol\":7823:7848  _update(from, to, amount) */\n      tag_304\n        /* \"https://github.com/OpenZeppelin/openzeppelin-contracts/blob/master/contracts/token/ERC20/ERC20.sol\":7831:7835  from */\n      dup4\n        /* \"https://github.com/OpenZeppelin/openzeppelin-contracts/blob/master/contracts/token/ERC20/ERC20.sol\":7837:7839  to */\n      dup4\n        /* \"https://github.com/OpenZeppelin/openzeppelin-contracts/blob/master/contracts/token/ERC20/ERC20.sol\":7841:7847  amount */\n      dup4\n        /* \"https://github.com/OpenZeppelin/openzeppelin-contracts/blob/master/contracts/token/ERC20/ERC20.sol\":7823:7830  _update */\n      tag_305\n        /* \"https://github.com/OpenZeppelin/openzeppelin-contracts/blob/master/contracts/token/ERC20/ERC20.sol\":7823:7848  _update(from, to, amount) */\n      jump\t// in\n    tag_304:\n        /* \"https://github.com/OpenZeppelin/openzeppelin-contracts/blob/master/contracts/token/ERC20/ERC20.sol\":7553:7855  function _transfer(address from, address to, uint256 amount) internal {... */\n      pop\n      pop\n      pop\n      jump\t// out\n        /* \"https://github.com/OpenZeppelin/openzeppelin-contracts/blob/master/contracts/token/ERC20/ERC20.sol\":9504:9714  function _mint(address account, uint256 amount) internal {... */\n    tag_164:\n        /* \"https://github.com/OpenZeppelin/openzeppelin-contracts/blob/master/contracts/token/ERC20/ERC20.sol\":9594:9595  0 */\n      0x00\n        /* \"https://github.com/OpenZeppelin/openzeppelin-contracts/blob/master/contracts/token/ERC20/ERC20.sol\":9575:9596  account == address(0) */\n      0xffffffffffffffffffffffffffffffffffffffff\n      and\n        /* \"https://github.com/OpenZeppelin/openzeppelin-contracts/blob/master/contracts/token/ERC20/ERC20.sol\":9575:9582  account */\n      dup3\n        /* \"https://github.com/OpenZeppelin/openzeppelin-contracts/blob/master/contracts/token/ERC20/ERC20.sol\":9575:9596  account == address(0) */\n      0xffffffffffffffffffffffffffffffffffffffff\n      and\n      sub\n        /* \"https://github.com/OpenZeppelin/openzeppelin-contracts/blob/master/contracts/token/ERC20/ERC20.sol\":9571:9662  if (account == address(0)) {... */\n      tag_307\n      jumpi\n        /* \"https://github.com/OpenZeppelin/openzeppelin-contracts/blob/master/contracts/token/ERC20/ERC20.sol\":9648:9649  0 */\n      0x00\n        /* \"https://github.com/OpenZeppelin/openzeppelin-contracts/blob/master/contracts/token/ERC20/ERC20.sol\":9619:9651  ERC20InvalidReceiver(address(0)) */\n      mload(0x40)\n      0xec442f0500000000000000000000000000000000000000000000000000000000\n      dup2\n      mstore\n      0x04\n      add\n      tag_308\n      swap2\n      swap1\n      tag_86\n      jump\t// in\n    tag_308:\n      mload(0x40)\n      dup1\n      swap2\n      sub\n      swap1\n      revert\n        /* \"https://github.com/OpenZeppelin/openzeppelin-contracts/blob/master/contracts/token/ERC20/ERC20.sol\":9571:9662  if (account == address(0)) {... */\n    tag_307:\n        /* \"https://github.com/OpenZeppelin/openzeppelin-contracts/blob/master/contracts/token/ERC20/ERC20.sol\":9671:9707  _update(address(0), account, amount) */\n      tag_309\n        /* \"https://github.com/OpenZeppelin/openzeppelin-contracts/blob/master/contracts/token/ERC20/ERC20.sol\":9687:9688  0 */\n      0x00\n        /* \"https://github.com/OpenZeppelin/openzeppelin-contracts/blob/master/contracts/token/ERC20/ERC20.sol\":9691:9698  account */\n      dup4\n        /* \"https://github.com/OpenZeppelin/openzeppelin-contracts/blob/master/contracts/token/ERC20/ERC20.sol\":9700:9706  amount */\n      dup4\n        /* \"https://github.com/OpenZeppelin/openzeppelin-contracts/blob/master/contracts/token/ERC20/ERC20.sol\":9671:9678  _update */\n      tag_305\n        /* \"https://github.com/OpenZeppelin/openzeppelin-contracts/blob/master/contracts/token/ERC20/ERC20.sol\":9671:9707  _update(address(0), account, amount) */\n      jump\t// in\n    tag_309:\n        /* \"https://github.com/OpenZeppelin/openzeppelin-contracts/blob/master/contracts/token/ERC20/ERC20.sol\":9504:9714  function _mint(address account, uint256 amount) internal {... */\n      pop\n      pop\n      jump\t// out\n        /* \"contracts/Exchange.sol\":1643:2116  function getAmount(... */\n    tag_197:\n        /* \"contracts/Exchange.sol\":1783:1790  uint256 */\n      0x00\n        /* \"contracts/Exchange.sol\":1826:1827  0 */\n      dup1\n        /* \"contracts/Exchange.sol\":1811:1823  inputReserve */\n      dup4\n        /* \"contracts/Exchange.sol\":1811:1827  inputReserve > 0 */\n      gt\n        /* \"contracts/Exchange.sol\":1811:1848  inputReserve > 0 && outputReserve > 0 */\n      dup1\n      iszero\n      tag_311\n      jumpi\n      pop\n        /* \"contracts/Exchange.sol\":1847:1848  0 */\n      0x00\n        /* \"contracts/Exchange.sol\":1831:1844  outputReserve */\n      dup3\n        /* \"contracts/Exchange.sol\":1831:1848  outputReserve > 0 */\n      gt\n        /* \"contracts/Exchange.sol\":1811:1848  inputReserve > 0 && outputReserve > 0 */\n    tag_311:\n        /* \"contracts/Exchange.sol\":1803:1868  require(inputReserve > 0 && outputReserve > 0, \"Invalid reserve\") */\n      tag_312\n      jumpi\n      mload(0x40)\n      0x08c379a000000000000000000000000000000000000000000000000000000000\n      dup2\n      mstore\n      0x04\n      add\n      tag_313\n      swap1\n      tag_314\n      jump\t// in\n    tag_313:\n      mload(0x40)\n      dup1\n      swap2\n      sub\n      swap1\n      revert\n    tag_312:\n        /* \"contracts/Exchange.sol\":1881:1907  uint256 inputAmountWithFee */\n      0x00\n        /* \"contracts/Exchange.sol\":1924:1926  99 */\n      0x63\n        /* \"contracts/Exchange.sol\":1910:1921  inputAmount */\n      dup6\n        /* \"contracts/Exchange.sol\":1910:1926  inputAmount * 99 */\n      tag_315\n      swap2\n      swap1\n      tag_170\n      jump\t// in\n    tag_315:\n        /* \"contracts/Exchange.sol\":1881:1926  uint256 inputAmountWithFee = inputAmount * 99 */\n      swap1\n      pop\n        /* \"contracts/Exchange.sol\":1937:1954  uint256 numerator */\n      0x00\n        /* \"contracts/Exchange.sol\":1978:1991  outputReserve */\n      dup4\n        /* \"contracts/Exchange.sol\":1957:1975  inputAmountWithFee */\n      dup3\n        /* \"contracts/Exchange.sol\":1957:1991  inputAmountWithFee * outputReserve */\n      tag_316\n      swap2\n      swap1\n      tag_170\n      jump\t// in\n    tag_316:\n        /* \"contracts/Exchange.sol\":1937:1991  uint256 numerator = inputAmountWithFee * outputReserve */\n      swap1\n      pop\n        /* \"contracts/Exchange.sol\":2002:2021  uint256 denominator */\n      0x00\n        /* \"contracts/Exchange.sol\":2047:2065  inputAmountWithFee */\n      dup3\n        /* \"contracts/Exchange.sol\":2040:2043  100 */\n      0x64\n        /* \"contracts/Exchange.sol\":2025:2037  inputReserve */\n      dup8\n        /* \"contracts/Exchange.sol\":2025:2043  inputReserve * 100 */\n      tag_317\n      swap2\n      swap1\n      tag_170\n      jump\t// in\n    tag_317:\n        /* \"contracts/Exchange.sol\":2024:2065  (inputReserve * 100) + inputAmountWithFee */\n      tag_318\n      swap2\n      swap1\n      tag_153\n      jump\t// in\n    tag_318:\n        /* \"contracts/Exchange.sol\":2002:2065  uint256 denominator = (inputReserve * 100) + inputAmountWithFee */\n      swap1\n      pop\n        /* \"contracts/Exchange.sol\":2097:2108  denominator */\n      dup1\n        /* \"contracts/Exchange.sol\":2085:2094  numerator */\n      dup3\n        /* \"contracts/Exchange.sol\":2085:2108  numerator / denominator */\n      tag_319\n      swap2\n      swap1\n      tag_172\n      jump\t// in\n    tag_319:\n        /* \"contracts/Exchange.sol\":2078:2108  return numerator / denominator */\n      swap4\n      pop\n      pop\n      pop\n      pop\n        /* \"contracts/Exchange.sol\":1643:2116  function getAmount(... */\n      swap4\n      swap3\n      pop\n      pop\n      pop\n      jump\t// out\n        /* \"https://github.com/OpenZeppelin/openzeppelin-contracts/blob/master/contracts/token/ERC20/ERC20.sol\":10028:10236  function _burn(address account, uint256 amount) internal {... */\n    tag_216:\n        /* \"https://github.com/OpenZeppelin/openzeppelin-contracts/blob/master/contracts/token/ERC20/ERC20.sol\":10118:10119  0 */\n      0x00\n        /* \"https://github.com/OpenZeppelin/openzeppelin-contracts/blob/master/contracts/token/ERC20/ERC20.sol\":10099:10120  account == address(0) */\n      0xffffffffffffffffffffffffffffffffffffffff\n      and\n        /* \"https://github.com/OpenZeppelin/openzeppelin-contracts/blob/master/contracts/token/ERC20/ERC20.sol\":10099:10106  account */\n      dup3\n        /* \"https://github.com/OpenZeppelin/openzeppelin-contracts/blob/master/contracts/token/ERC20/ERC20.sol\":10099:10120  account == address(0) */\n      0xffffffffffffffffffffffffffffffffffffffff\n      and\n      sub\n        /* \"https://github.com/OpenZeppelin/openzeppelin-contracts/blob/master/contracts/token/ERC20/ERC20.sol\":10095:10184  if (account == address(0)) {... */\n      tag_321\n      jumpi\n        /* \"https://github.com/OpenZeppelin/openzeppelin-contracts/blob/master/contracts/token/ERC20/ERC20.sol\":10170:10171  0 */\n      0x00\n        /* \"https://github.com/OpenZeppelin/openzeppelin-contracts/blob/master/contracts/token/ERC20/ERC20.sol\":10143:10173  ERC20InvalidSender(address(0)) */\n      mload(0x40)\n      0x96c6fd1e00000000000000000000000000000000000000000000000000000000\n      dup2\n      mstore\n      0x04\n      add\n      tag_322\n      swap2\n      swap1\n      tag_86\n      jump\t// in\n    tag_322:\n      mload(0x40)\n      dup1\n      swap2\n      sub\n      swap1\n      revert\n        /* \"https://github.com/OpenZeppelin/openzeppelin-contracts/blob/master/contracts/token/ERC20/ERC20.sol\":10095:10184  if (account == address(0)) {... */\n    tag_321:\n        /* \"https://github.com/OpenZeppelin/openzeppelin-contracts/blob/master/contracts/token/ERC20/ERC20.sol\":10193:10229  _update(account, address(0), amount) */\n      tag_323\n        /* \"https://github.com/OpenZeppelin/openzeppelin-contracts/blob/master/contracts/token/ERC20/ERC20.sol\":10201:10208  account */\n      dup3\n        /* \"https://github.com/OpenZeppelin/openzeppelin-contracts/blob/master/contracts/token/ERC20/ERC20.sol\":10218:10219  0 */\n      0x00\n        /* \"https://github.com/OpenZeppelin/openzeppelin-contracts/blob/master/contracts/token/ERC20/ERC20.sol\":10222:10228  amount */\n      dup4\n        /* \"https://github.com/OpenZeppelin/openzeppelin-contracts/blob/master/contracts/token/ERC20/ERC20.sol\":10193:10200  _update */\n      tag_305\n        /* \"https://github.com/OpenZeppelin/openzeppelin-contracts/blob/master/contracts/token/ERC20/ERC20.sol\":10193:10229  _update(account, address(0), amount) */\n      jump\t// in\n    tag_323:\n        /* \"https://github.com/OpenZeppelin/openzeppelin-contracts/blob/master/contracts/token/ERC20/ERC20.sol\":10028:10236  function _burn(address account, uint256 amount) internal {... */\n      pop\n      pop\n      jump\t// out\n        /* \"https://github.com/OpenZeppelin/openzeppelin-contracts/blob/master/contracts/token/ERC20/ERC20.sol\":8155:9172  function _update(address from, address to, uint256 amount) internal virtual {... */\n    tag_305:\n        /* \"https://github.com/OpenZeppelin/openzeppelin-contracts/blob/master/contracts/token/ERC20/ERC20.sol\":8261:8262  0 */\n      0x00\n        /* \"https://github.com/OpenZeppelin/openzeppelin-contracts/blob/master/contracts/token/ERC20/ERC20.sol\":8245:8263  from == address(0) */\n      0xffffffffffffffffffffffffffffffffffffffff\n      and\n        /* \"https://github.com/OpenZeppelin/openzeppelin-contracts/blob/master/contracts/token/ERC20/ERC20.sol\":8245:8249  from */\n      dup4\n        /* \"https://github.com/OpenZeppelin/openzeppelin-contracts/blob/master/contracts/token/ERC20/ERC20.sol\":8245:8263  from == address(0) */\n      0xffffffffffffffffffffffffffffffffffffffff\n      and\n      sub\n        /* \"https://github.com/OpenZeppelin/openzeppelin-contracts/blob/master/contracts/token/ERC20/ERC20.sol\":8241:8684  if (from == address(0)) {... */\n      tag_325\n      jumpi\n        /* \"https://github.com/OpenZeppelin/openzeppelin-contracts/blob/master/contracts/token/ERC20/ERC20.sol\":8295:8301  amount */\n      dup1\n        /* \"https://github.com/OpenZeppelin/openzeppelin-contracts/blob/master/contracts/token/ERC20/ERC20.sol\":8279:8291  _totalSupply */\n      0x02\n      0x00\n        /* \"https://github.com/OpenZeppelin/openzeppelin-contracts/blob/master/contracts/token/ERC20/ERC20.sol\":8279:8301  _totalSupply += amount */\n      dup3\n      dup3\n      sload\n      tag_326\n      swap2\n      swap1\n      tag_153\n      jump\t// in\n    tag_326:\n      swap3\n      pop\n      pop\n      dup2\n      swap1\n      sstore\n      pop\n        /* \"https://github.com/OpenZeppelin/openzeppelin-contracts/blob/master/contracts/token/ERC20/ERC20.sol\":8241:8684  if (from == address(0)) {... */\n      jump(tag_327)\n    tag_325:\n        /* \"https://github.com/OpenZeppelin/openzeppelin-contracts/blob/master/contracts/token/ERC20/ERC20.sol\":8332:8351  uint256 fromBalance */\n      0x00\n        /* \"https://github.com/OpenZeppelin/openzeppelin-contracts/blob/master/contracts/token/ERC20/ERC20.sol\":8354:8363  _balances */\n      dup1\n        /* \"https://github.com/OpenZeppelin/openzeppelin-contracts/blob/master/contracts/token/ERC20/ERC20.sol\":8354:8369  _balances[from] */\n      0x00\n        /* \"https://github.com/OpenZeppelin/openzeppelin-contracts/blob/master/contracts/token/ERC20/ERC20.sol\":8364:8368  from */\n      dup6\n        /* \"https://github.com/OpenZeppelin/openzeppelin-contracts/blob/master/contracts/token/ERC20/ERC20.sol\":8354:8369  _balances[from] */\n      0xffffffffffffffffffffffffffffffffffffffff\n      and\n      0xffffffffffffffffffffffffffffffffffffffff\n      and\n      dup2\n      mstore\n      0x20\n      add\n      swap1\n      dup2\n      mstore\n      0x20\n      add\n      0x00\n      keccak256\n      sload\n        /* \"https://github.com/OpenZeppelin/openzeppelin-contracts/blob/master/contracts/token/ERC20/ERC20.sol\":8332:8369  uint256 fromBalance = _balances[from] */\n      swap1\n      pop\n        /* \"https://github.com/OpenZeppelin/openzeppelin-contracts/blob/master/contracts/token/ERC20/ERC20.sol\":8401:8407  amount */\n      dup2\n        /* \"https://github.com/OpenZeppelin/openzeppelin-contracts/blob/master/contracts/token/ERC20/ERC20.sol\":8387:8398  fromBalance */\n      dup2\n        /* \"https://github.com/OpenZeppelin/openzeppelin-contracts/blob/master/contracts/token/ERC20/ERC20.sol\":8387:8407  fromBalance < amount */\n      lt\n        /* \"https://github.com/OpenZeppelin/openzeppelin-contracts/blob/master/contracts/token/ERC20/ERC20.sol\":8383:8500  if (fromBalance < amount) {... */\n      iszero\n      tag_328\n      jumpi\n        /* \"https://github.com/OpenZeppelin/openzeppelin-contracts/blob/master/contracts/token/ERC20/ERC20.sol\":8459:8463  from */\n      dup4\n        /* \"https://github.com/OpenZeppelin/openzeppelin-contracts/blob/master/contracts/token/ERC20/ERC20.sol\":8465:8476  fromBalance */\n      dup2\n        /* \"https://github.com/OpenZeppelin/openzeppelin-contracts/blob/master/contracts/token/ERC20/ERC20.sol\":8478:8484  amount */\n      dup4\n        /* \"https://github.com/OpenZeppelin/openzeppelin-contracts/blob/master/contracts/token/ERC20/ERC20.sol\":8434:8485  ERC20InsufficientBalance(from, fromBalance, amount) */\n      mload(0x40)\n      0xe450d38c00000000000000000000000000000000000000000000000000000000\n      dup2\n      mstore\n      0x04\n      add\n      tag_329\n      swap4\n      swap3\n      swap2\n      swap1\n      tag_229\n      jump\t// in\n    tag_329:\n      mload(0x40)\n      dup1\n      swap2\n      sub\n      swap1\n      revert\n        /* \"https://github.com/OpenZeppelin/openzeppelin-contracts/blob/master/contracts/token/ERC20/ERC20.sol\":8383:8500  if (fromBalance < amount) {... */\n    tag_328:\n        /* \"https://github.com/OpenZeppelin/openzeppelin-contracts/blob/master/contracts/token/ERC20/ERC20.sol\":8653:8659  amount */\n      dup2\n        /* \"https://github.com/OpenZeppelin/openzeppelin-contracts/blob/master/contracts/token/ERC20/ERC20.sol\":8639:8650  fromBalance */\n      dup2\n        /* \"https://github.com/OpenZeppelin/openzeppelin-contracts/blob/master/contracts/token/ERC20/ERC20.sol\":8639:8659  fromBalance - amount */\n      sub\n        /* \"https://github.com/OpenZeppelin/openzeppelin-contracts/blob/master/contracts/token/ERC20/ERC20.sol\":8621:8630  _balances */\n      0x00\n        /* \"https://github.com/OpenZeppelin/openzeppelin-contracts/blob/master/contracts/token/ERC20/ERC20.sol\":8621:8636  _balances[from] */\n      dup1\n        /* \"https://github.com/OpenZeppelin/openzeppelin-contracts/blob/master/contracts/token/ERC20/ERC20.sol\":8631:8635  from */\n      dup7\n        /* \"https://github.com/OpenZeppelin/openzeppelin-contracts/blob/master/contracts/token/ERC20/ERC20.sol\":8621:8636  _balances[from] */\n      0xffffffffffffffffffffffffffffffffffffffff\n      and\n      0xffffffffffffffffffffffffffffffffffffffff\n      and\n      dup2\n      mstore\n      0x20\n      add\n      swap1\n      dup2\n      mstore\n      0x20\n      add\n      0x00\n      keccak256\n        /* \"https://github.com/OpenZeppelin/openzeppelin-contracts/blob/master/contracts/token/ERC20/ERC20.sol\":8621:8659  _balances[from] = fromBalance - amount */\n      dup2\n      swap1\n      sstore\n      pop\n        /* \"https://github.com/OpenZeppelin/openzeppelin-contracts/blob/master/contracts/token/ERC20/ERC20.sol\":8318:8684  {... */\n      pop\n        /* \"https://github.com/OpenZeppelin/openzeppelin-contracts/blob/master/contracts/token/ERC20/ERC20.sol\":8241:8684  if (from == address(0)) {... */\n    tag_327:\n        /* \"https://github.com/OpenZeppelin/openzeppelin-contracts/blob/master/contracts/token/ERC20/ERC20.sol\":8712:8713  0 */\n      0x00\n        /* \"https://github.com/OpenZeppelin/openzeppelin-contracts/blob/master/contracts/token/ERC20/ERC20.sol\":8698:8714  to == address(0) */\n      0xffffffffffffffffffffffffffffffffffffffff\n      and\n        /* \"https://github.com/OpenZeppelin/openzeppelin-contracts/blob/master/contracts/token/ERC20/ERC20.sol\":8698:8700  to */\n      dup3\n        /* \"https://github.com/OpenZeppelin/openzeppelin-contracts/blob/master/contracts/token/ERC20/ERC20.sol\":8698:8714  to == address(0) */\n      0xffffffffffffffffffffffffffffffffffffffff\n      and\n      sub\n        /* \"https://github.com/OpenZeppelin/openzeppelin-contracts/blob/master/contracts/token/ERC20/ERC20.sol\":8694:9124  if (to == address(0)) {... */\n      tag_330\n      jumpi\n        /* \"https://github.com/OpenZeppelin/openzeppelin-contracts/blob/master/contracts/token/ERC20/ERC20.sol\":8879:8885  amount */\n      dup1\n        /* \"https://github.com/OpenZeppelin/openzeppelin-contracts/blob/master/contracts/token/ERC20/ERC20.sol\":8863:8875  _totalSupply */\n      0x02\n      0x00\n        /* \"https://github.com/OpenZeppelin/openzeppelin-contracts/blob/master/contracts/token/ERC20/ERC20.sol\":8863:8885  _totalSupply -= amount */\n      dup3\n      dup3\n      sload\n      sub\n      swap3\n      pop\n      pop\n      dup2\n      swap1\n      sstore\n      pop\n        /* \"https://github.com/OpenZeppelin/openzeppelin-contracts/blob/master/contracts/token/ERC20/ERC20.sol\":8694:9124  if (to == address(0)) {... */\n      jump(tag_331)\n    tag_330:\n        /* \"https://github.com/OpenZeppelin/openzeppelin-contracts/blob/master/contracts/token/ERC20/ERC20.sol\":9093:9099  amount */\n      dup1\n        /* \"https://github.com/OpenZeppelin/openzeppelin-contracts/blob/master/contracts/token/ERC20/ERC20.sol\":9076:9085  _balances */\n      0x00\n        /* \"https://github.com/OpenZeppelin/openzeppelin-contracts/blob/master/contracts/token/ERC20/ERC20.sol\":9076:9089  _balances[to] */\n      dup1\n        /* \"https://github.com/OpenZeppelin/openzeppelin-contracts/blob/master/contracts/token/ERC20/ERC20.sol\":9086:9088  to */\n      dup5\n        /* \"https://github.com/OpenZeppelin/openzeppelin-contracts/blob/master/contracts/token/ERC20/ERC20.sol\":9076:9089  _balances[to] */\n      0xffffffffffffffffffffffffffffffffffffffff\n      and\n      0xffffffffffffffffffffffffffffffffffffffff\n      and\n      dup2\n      mstore\n      0x20\n      add\n      swap1\n      dup2\n      mstore\n      0x20\n      add\n      0x00\n      keccak256\n      0x00\n        /* \"https://github.com/OpenZeppelin/openzeppelin-contracts/blob/master/contracts/token/ERC20/ERC20.sol\":9076:9099  _balances[to] += amount */\n      dup3\n      dup3\n      sload\n      add\n      swap3\n      pop\n      pop\n      dup2\n      swap1\n      sstore\n      pop\n        /* \"https://github.com/OpenZeppelin/openzeppelin-contracts/blob/master/contracts/token/ERC20/ERC20.sol\":8694:9124  if (to == address(0)) {... */\n    tag_331:\n        /* \"https://github.com/OpenZeppelin/openzeppelin-contracts/blob/master/contracts/token/ERC20/ERC20.sol\":9154:9156  to */\n      dup2\n        /* \"https://github.com/OpenZeppelin/openzeppelin-contracts/blob/master/contracts/token/ERC20/ERC20.sol\":9139:9165  Transfer(from, to, amount) */\n      0xffffffffffffffffffffffffffffffffffffffff\n      and\n        /* \"https://github.com/OpenZeppelin/openzeppelin-contracts/blob/master/contracts/token/ERC20/ERC20.sol\":9148:9152  from */\n      dup4\n        /* \"https://github.com/OpenZeppelin/openzeppelin-contracts/blob/master/contracts/token/ERC20/ERC20.sol\":9139:9165  Transfer(from, to, amount) */\n      0xffffffffffffffffffffffffffffffffffffffff\n      and\n      0xddf252ad1be2c89b69c2b068fc378daa952ba7f163c4a11628f55a4df523b3ef\n        /* \"https://github.com/OpenZeppelin/openzeppelin-contracts/blob/master/contracts/token/ERC20/ERC20.sol\":9158:9164  amount */\n      dup4\n        /* \"https://github.com/OpenZeppelin/openzeppelin-contracts/blob/master/contracts/token/ERC20/ERC20.sol\":9139:9165  Transfer(from, to, amount) */\n      mload(0x40)\n      tag_332\n      swap2\n      swap1\n      tag_42\n      jump\t// in\n    tag_332:\n      mload(0x40)\n      dup1\n      swap2\n      sub\n      swap1\n      log3\n        /* \"https://github.com/OpenZeppelin/openzeppelin-contracts/blob/master/contracts/token/ERC20/ERC20.sol\":8155:9172  function _update(address from, address to, uint256 amount) internal virtual {... */\n      pop\n      pop\n      pop\n      jump\t// out\n        /* \"#utility.yul\":7:106   */\n    tag_333:\n        /* \"#utility.yul\":59:65   */\n      0x00\n        /* \"#utility.yul\":93:98   */\n      dup2\n        /* \"#utility.yul\":87:99   */\n      mload\n        /* \"#utility.yul\":77:99   */\n      swap1\n      pop\n        /* \"#utility.yul\":7:106   */\n      swap2\n      swap1\n      pop\n      jump\t// out\n        /* \"#utility.yul\":112:281   */\n    tag_334:\n        /* \"#utility.yul\":196:207   */\n      0x00\n        /* \"#utility.yul\":230:236   */\n      dup3\n        /* \"#utility.yul\":225:228   */\n      dup3\n        /* \"#utility.yul\":218:237   */\n      mstore\n        /* \"#utility.yul\":270:274   */\n      0x20\n        /* \"#utility.yul\":265:268   */\n      dup3\n        /* \"#utility.yul\":261:275   */\n      add\n        /* \"#utility.yul\":246:275   */\n      swap1\n      pop\n        /* \"#utility.yul\":112:281   */\n      swap3\n      swap2\n      pop\n      pop\n      jump\t// out\n        /* \"#utility.yul\":287:533   */\n    tag_335:\n        /* \"#utility.yul\":368:369   */\n      0x00\n        /* \"#utility.yul\":378:491   */\n    tag_377:\n        /* \"#utility.yul\":392:398   */\n      dup4\n        /* \"#utility.yul\":389:390   */\n      dup2\n        /* \"#utility.yul\":386:399   */\n      lt\n        /* \"#utility.yul\":378:491   */\n      iszero\n      tag_379\n      jumpi\n        /* \"#utility.yul\":477:478   */\n      dup1\n        /* \"#utility.yul\":472:475   */\n      dup3\n        /* \"#utility.yul\":468:479   */\n      add\n        /* \"#utility.yul\":462:480   */\n      mload\n        /* \"#utility.yul\":458:459   */\n      dup2\n        /* \"#utility.yul\":453:456   */\n      dup5\n        /* \"#utility.yul\":449:460   */\n      add\n        /* \"#utility.yul\":442:481   */\n      mstore\n        /* \"#utility.yul\":414:416   */\n      0x20\n        /* \"#utility.yul\":411:412   */\n      dup2\n        /* \"#utility.yul\":407:417   */\n      add\n        /* \"#utility.yul\":402:417   */\n      swap1\n      pop\n        /* \"#utility.yul\":378:491   */\n      jump(tag_377)\n    tag_379:\n        /* \"#utility.yul\":525:526   */\n      0x00\n        /* \"#utility.yul\":516:522   */\n      dup5\n        /* \"#utility.yul\":511:514   */\n      dup5\n        /* \"#utility.yul\":507:523   */\n      add\n        /* \"#utility.yul\":500:527   */\n      mstore\n        /* \"#utility.yul\":349:533   */\n      pop\n        /* \"#utility.yul\":287:533   */\n      pop\n      pop\n      pop\n      jump\t// out\n        /* \"#utility.yul\":539:641   */\n    tag_336:\n        /* \"#utility.yul\":580:586   */\n      0x00\n        /* \"#utility.yul\":631:633   */\n      0x1f\n        /* \"#utility.yul\":627:634   */\n      not\n        /* \"#utility.yul\":622:624   */\n      0x1f\n        /* \"#utility.yul\":615:620   */\n      dup4\n        /* \"#utility.yul\":611:625   */\n      add\n        /* \"#utility.yul\":607:635   */\n      and\n        /* \"#utility.yul\":597:635   */\n      swap1\n      pop\n        /* \"#utility.yul\":539:641   */\n      swap2\n      swap1\n      pop\n      jump\t// out\n        /* \"#utility.yul\":647:1024   */\n    tag_337:\n        /* \"#utility.yul\":735:738   */\n      0x00\n        /* \"#utility.yul\":763:802   */\n      tag_382\n        /* \"#utility.yul\":796:801   */\n      dup3\n        /* \"#utility.yul\":763:802   */\n      tag_333\n      jump\t// in\n    tag_382:\n        /* \"#utility.yul\":818:889   */\n      tag_383\n        /* \"#utility.yul\":882:888   */\n      dup2\n        /* \"#utility.yul\":877:880   */\n      dup6\n        /* \"#utility.yul\":818:889   */\n      tag_334\n      jump\t// in\n    tag_383:\n        /* \"#utility.yul\":811:889   */\n      swap4\n      pop\n        /* \"#utility.yul\":898:963   */\n      tag_384\n        /* \"#utility.yul\":956:962   */\n      dup2\n        /* \"#utility.yul\":951:954   */\n      dup6\n        /* \"#utility.yul\":944:948   */\n      0x20\n        /* \"#utility.yul\":937:942   */\n      dup7\n        /* \"#utility.yul\":933:949   */\n      add\n        /* \"#utility.yul\":898:963   */\n      tag_335\n      jump\t// in\n    tag_384:\n        /* \"#utility.yul\":988:1017   */\n      tag_385\n        /* \"#utility.yul\":1010:1016   */\n      dup2\n        /* \"#utility.yul\":988:1017   */\n      tag_336\n      jump\t// in\n    tag_385:\n        /* \"#utility.yul\":983:986   */\n      dup5\n        /* \"#utility.yul\":979:1018   */\n      add\n        /* \"#utility.yul\":972:1018   */\n      swap2\n      pop\n        /* \"#utility.yul\":739:1024   */\n      pop\n        /* \"#utility.yul\":647:1024   */\n      swap3\n      swap2\n      pop\n      pop\n      jump\t// out\n        /* \"#utility.yul\":1030:1343   */\n    tag_30:\n        /* \"#utility.yul\":1143:1147   */\n      0x00\n        /* \"#utility.yul\":1181:1183   */\n      0x20\n        /* \"#utility.yul\":1170:1179   */\n      dup3\n        /* \"#utility.yul\":1166:1184   */\n      add\n        /* \"#utility.yul\":1158:1184   */\n      swap1\n      pop\n        /* \"#utility.yul\":1230:1239   */\n      dup2\n        /* \"#utility.yul\":1224:1228   */\n      dup2\n        /* \"#utility.yul\":1220:1240   */\n      sub\n        /* \"#utility.yul\":1216:1217   */\n      0x00\n        /* \"#utility.yul\":1205:1214   */\n      dup4\n        /* \"#utility.yul\":1201:1218   */\n      add\n        /* \"#utility.yul\":1194:1241   */\n      mstore\n        /* \"#utility.yul\":1258:1336   */\n      tag_387\n        /* \"#utility.yul\":1331:1335   */\n      dup2\n        /* \"#utility.yul\":1322:1328   */\n      dup5\n        /* \"#utility.yul\":1258:1336   */\n      tag_337\n      jump\t// in\n    tag_387:\n        /* \"#utility.yul\":1250:1336   */\n      swap1\n      pop\n        /* \"#utility.yul\":1030:1343   */\n      swap3\n      swap2\n      pop\n      pop\n      jump\t// out\n        /* \"#utility.yul\":1430:1547   */\n    tag_339:\n        /* \"#utility.yul\":1539:1540   */\n      0x00\n        /* \"#utility.yul\":1536:1537   */\n      dup1\n        /* \"#utility.yul\":1529:1541   */\n      revert\n        /* \"#utility.yul\":1676:1802   */\n    tag_341:\n        /* \"#utility.yul\":1713:1720   */\n      0x00\n        /* \"#utility.yul\":1753:1795   */\n      0xffffffffffffffffffffffffffffffffffffffff\n        /* \"#utility.yul\":1746:1751   */\n      dup3\n        /* \"#utility.yul\":1742:1796   */\n      and\n        /* \"#utility.yul\":1731:1796   */\n      swap1\n      pop\n        /* \"#utility.yul\":1676:1802   */\n      swap2\n      swap1\n      pop\n      jump\t// out\n        /* \"#utility.yul\":1808:1904   */\n    tag_342:\n        /* \"#utility.yul\":1845:1852   */\n      0x00\n        /* \"#utility.yul\":1874:1898   */\n      tag_393\n        /* \"#utility.yul\":1892:1897   */\n      dup3\n        /* \"#utility.yul\":1874:1898   */\n      tag_341\n      jump\t// in\n    tag_393:\n        /* \"#utility.yul\":1863:1898   */\n      swap1\n      pop\n        /* \"#utility.yul\":1808:1904   */\n      swap2\n      swap1\n      pop\n      jump\t// out\n        /* \"#utility.yul\":1910:2032   */\n    tag_343:\n        /* \"#utility.yul\":1983:2007   */\n      tag_395\n        /* \"#utility.yul\":2001:2006   */\n      dup2\n        /* \"#utility.yul\":1983:2007   */\n      tag_342\n      jump\t// in\n    tag_395:\n        /* \"#utility.yul\":1976:1981   */\n      dup2\n        /* \"#utility.yul\":1973:2008   */\n      eq\n        /* \"#utility.yul\":1963:2026   */\n      tag_396\n      jumpi\n        /* \"#utility.yul\":2022:2023   */\n      0x00\n        /* \"#utility.yul\":2019:2020   */\n      dup1\n        /* \"#utility.yul\":2012:2024   */\n      revert\n        /* \"#utility.yul\":1963:2026   */\n    tag_396:\n        /* \"#utility.yul\":1910:2032   */\n      pop\n      jump\t// out\n        /* \"#utility.yul\":2038:2177   */\n    tag_344:\n        /* \"#utility.yul\":2084:2089   */\n      0x00\n        /* \"#utility.yul\":2122:2128   */\n      dup2\n        /* \"#utility.yul\":2109:2129   */\n      calldataload\n        /* \"#utility.yul\":2100:2129   */\n      swap1\n      pop\n        /* \"#utility.yul\":2138:2171   */\n      tag_398\n        /* \"#utility.yul\":2165:2170   */\n      dup2\n        /* \"#utility.yul\":2138:2171   */\n      tag_343\n      jump\t// in\n    tag_398:\n        /* \"#utility.yul\":2038:2177   */\n      swap3\n      swap2\n      pop\n      pop\n      jump\t// out\n        /* \"#utility.yul\":2183:2260   */\n    tag_345:\n        /* \"#utility.yul\":2220:2227   */\n      0x00\n        /* \"#utility.yul\":2249:2254   */\n      dup2\n        /* \"#utility.yul\":2238:2254   */\n      swap1\n      pop\n        /* \"#utility.yul\":2183:2260   */\n      swap2\n      swap1\n      pop\n      jump\t// out\n        /* \"#utility.yul\":2266:2388   */\n    tag_346:\n        /* \"#utility.yul\":2339:2363   */\n      tag_401\n        /* \"#utility.yul\":2357:2362   */\n      dup2\n        /* \"#utility.yul\":2339:2363   */\n      tag_345\n      jump\t// in\n    tag_401:\n        /* \"#utility.yul\":2332:2337   */\n      dup2\n        /* \"#utility.yul\":2329:2364   */\n      eq\n        /* \"#utility.yul\":2319:2382   */\n      tag_402\n      jumpi\n        /* \"#utility.yul\":2378:2379   */\n      0x00\n        /* \"#utility.yul\":2375:2376   */\n      dup1\n        /* \"#utility.yul\":2368:2380   */\n      revert\n        /* \"#utility.yul\":2319:2382   */\n    tag_402:\n        /* \"#utility.yul\":2266:2388   */\n      pop\n      jump\t// out\n        /* \"#utility.yul\":2394:2533   */\n    tag_347:\n        /* \"#utility.yul\":2440:2445   */\n      0x00\n        /* \"#utility.yul\":2478:2484   */\n      dup2\n        /* \"#utility.yul\":2465:2485   */\n      calldataload\n        /* \"#utility.yul\":2456:2485   */\n      swap1\n      pop\n        /* \"#utility.yul\":2494:2527   */\n      tag_404\n        /* \"#utility.yul\":2521:2526   */\n      dup2\n        /* \"#utility.yul\":2494:2527   */\n      tag_346\n      jump\t// in\n    tag_404:\n        /* \"#utility.yul\":2394:2533   */\n      swap3\n      swap2\n      pop\n      pop\n      jump\t// out\n        /* \"#utility.yul\":2539:3013   */\n    tag_34:\n        /* \"#utility.yul\":2607:2613   */\n      0x00\n        /* \"#utility.yul\":2615:2621   */\n      dup1\n        /* \"#utility.yul\":2664:2666   */\n      0x40\n        /* \"#utility.yul\":2652:2661   */\n      dup4\n        /* \"#utility.yul\":2643:2650   */\n      dup6\n        /* \"#utility.yul\":2639:2662   */\n      sub\n        /* \"#utility.yul\":2635:2667   */\n      slt\n        /* \"#utility.yul\":2632:2751   */\n      iszero\n      tag_406\n      jumpi\n        /* \"#utility.yul\":2670:2749   */\n      tag_407\n      tag_339\n      jump\t// in\n    tag_407:\n        /* \"#utility.yul\":2632:2751   */\n    tag_406:\n        /* \"#utility.yul\":2790:2791   */\n      0x00\n        /* \"#utility.yul\":2815:2868   */\n      tag_408\n        /* \"#utility.yul\":2860:2867   */\n      dup6\n        /* \"#utility.yul\":2851:2857   */\n      dup3\n        /* \"#utility.yul\":2840:2849   */\n      dup7\n        /* \"#utility.yul\":2836:2858   */\n      add\n        /* \"#utility.yul\":2815:2868   */\n      tag_344\n      jump\t// in\n    tag_408:\n        /* \"#utility.yul\":2805:2868   */\n      swap3\n      pop\n        /* \"#utility.yul\":2761:2878   */\n      pop\n        /* \"#utility.yul\":2917:2919   */\n      0x20\n        /* \"#utility.yul\":2943:2996   */\n      tag_409\n        /* \"#utility.yul\":2988:2995   */\n      dup6\n        /* \"#utility.yul\":2979:2985   */\n      dup3\n        /* \"#utility.yul\":2968:2977   */\n      dup7\n        /* \"#utility.yul\":2964:2986   */\n      add\n        /* \"#utility.yul\":2943:2996   */\n      tag_347\n      jump\t// in\n    tag_409:\n        /* \"#utility.yul\":2933:2996   */\n      swap2\n      pop\n        /* \"#utility.yul\":2888:3006   */\n      pop\n        /* \"#utility.yul\":2539:3013   */\n      swap3\n      pop\n      swap3\n      swap1\n      pop\n      jump\t// out\n        /* \"#utility.yul\":3019:3109   */\n    tag_348:\n        /* \"#utility.yul\":3053:3060   */\n      0x00\n        /* \"#utility.yul\":3096:3101   */\n      dup2\n        /* \"#utility.yul\":3089:3102   */\n      iszero\n        /* \"#utility.yul\":3082:3103   */\n      iszero\n        /* \"#utility.yul\":3071:3103   */\n      swap1\n      pop\n        /* \"#utility.yul\":3019:3109   */\n      swap2\n      swap1\n      pop\n      jump\t// out\n        /* \"#utility.yul\":3115:3224   */\n    tag_349:\n        /* \"#utility.yul\":3196:3217   */\n      tag_412\n        /* \"#utility.yul\":3211:3216   */\n      dup2\n        /* \"#utility.yul\":3196:3217   */\n      tag_348\n      jump\t// in\n    tag_412:\n        /* \"#utility.yul\":3191:3194   */\n      dup3\n        /* \"#utility.yul\":3184:3218   */\n      mstore\n        /* \"#utility.yul\":3115:3224   */\n      pop\n      pop\n      jump\t// out\n        /* \"#utility.yul\":3230:3440   */\n    tag_37:\n        /* \"#utility.yul\":3317:3321   */\n      0x00\n        /* \"#utility.yul\":3355:3357   */\n      0x20\n        /* \"#utility.yul\":3344:3353   */\n      dup3\n        /* \"#utility.yul\":3340:3358   */\n      add\n        /* \"#utility.yul\":3332:3358   */\n      swap1\n      pop\n        /* \"#utility.yul\":3368:3433   */\n      tag_414\n        /* \"#utility.yul\":3430:3431   */\n      0x00\n        /* \"#utility.yul\":3419:3428   */\n      dup4\n        /* \"#utility.yul\":3415:3432   */\n      add\n        /* \"#utility.yul\":3406:3412   */\n      dup5\n        /* \"#utility.yul\":3368:3433   */\n      tag_349\n      jump\t// in\n    tag_414:\n        /* \"#utility.yul\":3230:3440   */\n      swap3\n      swap2\n      pop\n      pop\n      jump\t// out\n        /* \"#utility.yul\":3446:3564   */\n    tag_350:\n        /* \"#utility.yul\":3533:3557   */\n      tag_416\n        /* \"#utility.yul\":3551:3556   */\n      dup2\n        /* \"#utility.yul\":3533:3557   */\n      tag_345\n      jump\t// in\n    tag_416:\n        /* \"#utility.yul\":3528:3531   */\n      dup3\n        /* \"#utility.yul\":3521:3558   */\n      mstore\n        /* \"#utility.yul\":3446:3564   */\n      pop\n      pop\n      jump\t// out\n        /* \"#utility.yul\":3570:3792   */\n    tag_42:\n        /* \"#utility.yul\":3663:3667   */\n      0x00\n        /* \"#utility.yul\":3701:3703   */\n      0x20\n        /* \"#utility.yul\":3690:3699   */\n      dup3\n        /* \"#utility.yul\":3686:3704   */\n      add\n        /* \"#utility.yul\":3678:3704   */\n      swap1\n      pop\n        /* \"#utility.yul\":3714:3785   */\n      tag_418\n        /* \"#utility.yul\":3782:3783   */\n      0x00\n        /* \"#utility.yul\":3771:3780   */\n      dup4\n        /* \"#utility.yul\":3767:3784   */\n      add\n        /* \"#utility.yul\":3758:3764   */\n      dup5\n        /* \"#utility.yul\":3714:3785   */\n      tag_350\n      jump\t// in\n    tag_418:\n        /* \"#utility.yul\":3570:3792   */\n      swap3\n      swap2\n      pop\n      pop\n      jump\t// out\n        /* \"#utility.yul\":3798:4417   */\n    tag_46:\n        /* \"#utility.yul\":3875:3881   */\n      0x00\n        /* \"#utility.yul\":3883:3889   */\n      dup1\n        /* \"#utility.yul\":3891:3897   */\n      0x00\n        /* \"#utility.yul\":3940:3942   */\n      0x60\n        /* \"#utility.yul\":3928:3937   */\n      dup5\n        /* \"#utility.yul\":3919:3926   */\n      dup7\n        /* \"#utility.yul\":3915:3938   */\n      sub\n        /* \"#utility.yul\":3911:3943   */\n      slt\n        /* \"#utility.yul\":3908:4027   */\n      iszero\n      tag_420\n      jumpi\n        /* \"#utility.yul\":3946:4025   */\n      tag_421\n      tag_339\n      jump\t// in\n    tag_421:\n        /* \"#utility.yul\":3908:4027   */\n    tag_420:\n        /* \"#utility.yul\":4066:4067   */\n      0x00\n        /* \"#utility.yul\":4091:4144   */\n      tag_422\n        /* \"#utility.yul\":4136:4143   */\n      dup7\n        /* \"#utility.yul\":4127:4133   */\n      dup3\n        /* \"#utility.yul\":4116:4125   */\n      dup8\n        /* \"#utility.yul\":4112:4134   */\n      add\n        /* \"#utility.yul\":4091:4144   */\n      tag_344\n      jump\t// in\n    tag_422:\n        /* \"#utility.yul\":4081:4144   */\n      swap4\n      pop\n        /* \"#utility.yul\":4037:4154   */\n      pop\n        /* \"#utility.yul\":4193:4195   */\n      0x20\n        /* \"#utility.yul\":4219:4272   */\n      tag_423\n        /* \"#utility.yul\":4264:4271   */\n      dup7\n        /* \"#utility.yul\":4255:4261   */\n      dup3\n        /* \"#utility.yul\":4244:4253   */\n      dup8\n        /* \"#utility.yul\":4240:4262   */\n      add\n        /* \"#utility.yul\":4219:4272   */\n      tag_344\n      jump\t// in\n    tag_423:\n        /* \"#utility.yul\":4209:4272   */\n      swap3\n      pop\n        /* \"#utility.yul\":4164:4282   */\n      pop\n        /* \"#utility.yul\":4321:4323   */\n      0x40\n        /* \"#utility.yul\":4347:4400   */\n      tag_424\n        /* \"#utility.yul\":4392:4399   */\n      dup7\n        /* \"#utility.yul\":4383:4389   */\n      dup3\n        /* \"#utility.yul\":4372:4381   */\n      dup8\n        /* \"#utility.yul\":4368:4390   */\n      add\n        /* \"#utility.yul\":4347:4400   */\n      tag_347\n      jump\t// in\n    tag_424:\n        /* \"#utility.yul\":4337:4400   */\n      swap2\n      pop\n        /* \"#utility.yul\":4292:4410   */\n      pop\n        /* \"#utility.yul\":3798:4417   */\n      swap3\n      pop\n      swap3\n      pop\n      swap3\n      jump\t// out\n        /* \"#utility.yul\":4423:4509   */\n    tag_351:\n        /* \"#utility.yul\":4458:4465   */\n      0x00\n        /* \"#utility.yul\":4498:4502   */\n      0xff\n        /* \"#utility.yul\":4491:4496   */\n      dup3\n        /* \"#utility.yul\":4487:4503   */\n      and\n        /* \"#utility.yul\":4476:4503   */\n      swap1\n      pop\n        /* \"#utility.yul\":4423:4509   */\n      swap2\n      swap1\n      pop\n      jump\t// out\n        /* \"#utility.yul\":4515:4627   */\n    tag_352:\n        /* \"#utility.yul\":4598:4620   */\n      tag_427\n        /* \"#utility.yul\":4614:4619   */\n      dup2\n        /* \"#utility.yul\":4598:4620   */\n      tag_351\n      jump\t// in\n    tag_427:\n        /* \"#utility.yul\":4593:4596   */\n      dup3\n        /* \"#utility.yul\":4586:4621   */\n      mstore\n        /* \"#utility.yul\":4515:4627   */\n      pop\n      pop\n      jump\t// out\n        /* \"#utility.yul\":4633:4847   */\n    tag_53:\n        /* \"#utility.yul\":4722:4726   */\n      0x00\n        /* \"#utility.yul\":4760:4762   */\n      0x20\n        /* \"#utility.yul\":4749:4758   */\n      dup3\n        /* \"#utility.yul\":4745:4763   */\n      add\n        /* \"#utility.yul\":4737:4763   */\n      swap1\n      pop\n        /* \"#utility.yul\":4773:4840   */\n      tag_429\n        /* \"#utility.yul\":4837:4838   */\n      0x00\n        /* \"#utility.yul\":4826:4835   */\n      dup4\n        /* \"#utility.yul\":4822:4839   */\n      add\n        /* \"#utility.yul\":4813:4819   */\n      dup5\n        /* \"#utility.yul\":4773:4840   */\n      tag_352\n      jump\t// in\n    tag_429:\n        /* \"#utility.yul\":4633:4847   */\n      swap3\n      swap2\n      pop\n      pop\n      jump\t// out\n        /* \"#utility.yul\":4853:5182   */\n    tag_61:\n        /* \"#utility.yul\":4912:4918   */\n      0x00\n        /* \"#utility.yul\":4961:4963   */\n      0x20\n        /* \"#utility.yul\":4949:4958   */\n      dup3\n        /* \"#utility.yul\":4940:4947   */\n      dup5\n        /* \"#utility.yul\":4936:4959   */\n      sub\n        /* \"#utility.yul\":4932:4964   */\n      slt\n        /* \"#utility.yul\":4929:5048   */\n      iszero\n      tag_431\n      jumpi\n        /* \"#utility.yul\":4967:5046   */\n      tag_432\n      tag_339\n      jump\t// in\n    tag_432:\n        /* \"#utility.yul\":4929:5048   */\n    tag_431:\n        /* \"#utility.yul\":5087:5088   */\n      0x00\n        /* \"#utility.yul\":5112:5165   */\n      tag_433\n        /* \"#utility.yul\":5157:5164   */\n      dup5\n        /* \"#utility.yul\":5148:5154   */\n      dup3\n        /* \"#utility.yul\":5137:5146   */\n      dup6\n        /* \"#utility.yul\":5133:5155   */\n      add\n        /* \"#utility.yul\":5112:5165   */\n      tag_347\n      jump\t// in\n    tag_433:\n        /* \"#utility.yul\":5102:5165   */\n      swap2\n      pop\n        /* \"#utility.yul\":5058:5175   */\n      pop\n        /* \"#utility.yul\":4853:5182   */\n      swap3\n      swap2\n      pop\n      pop\n      jump\t// out\n        /* \"#utility.yul\":5188:5517   */\n    tag_70:\n        /* \"#utility.yul\":5247:5253   */\n      0x00\n        /* \"#utility.yul\":5296:5298   */\n      0x20\n        /* \"#utility.yul\":5284:5293   */\n      dup3\n        /* \"#utility.yul\":5275:5282   */\n      dup5\n        /* \"#utility.yul\":5271:5294   */\n      sub\n        /* \"#utility.yul\":5267:5299   */\n      slt\n        /* \"#utility.yul\":5264:5383   */\n      iszero\n      tag_435\n      jumpi\n        /* \"#utility.yul\":5302:5381   */\n      tag_436\n      tag_339\n      jump\t// in\n    tag_436:\n        /* \"#utility.yul\":5264:5383   */\n    tag_435:\n        /* \"#utility.yul\":5422:5423   */\n      0x00\n        /* \"#utility.yul\":5447:5500   */\n      tag_437\n        /* \"#utility.yul\":5492:5499   */\n      dup5\n        /* \"#utility.yul\":5483:5489   */\n      dup3\n        /* \"#utility.yul\":5472:5481   */\n      dup6\n        /* \"#utility.yul\":5468:5490   */\n      add\n        /* \"#utility.yul\":5447:5500   */\n      tag_344\n      jump\t// in\n    tag_437:\n        /* \"#utility.yul\":5437:5500   */\n      swap2\n      pop\n        /* \"#utility.yul\":5393:5510   */\n      pop\n        /* \"#utility.yul\":5188:5517   */\n      swap3\n      swap2\n      pop\n      pop\n      jump\t// out\n        /* \"#utility.yul\":5523:5641   */\n    tag_353:\n        /* \"#utility.yul\":5610:5634   */\n      tag_439\n        /* \"#utility.yul\":5628:5633   */\n      dup2\n        /* \"#utility.yul\":5610:5634   */\n      tag_342\n      jump\t// in\n    tag_439:\n        /* \"#utility.yul\":5605:5608   */\n      dup3\n        /* \"#utility.yul\":5598:5635   */\n      mstore\n        /* \"#utility.yul\":5523:5641   */\n      pop\n      pop\n      jump\t// out\n        /* \"#utility.yul\":5647:5869   */\n    tag_86:\n        /* \"#utility.yul\":5740:5744   */\n      0x00\n        /* \"#utility.yul\":5778:5780   */\n      0x20\n        /* \"#utility.yul\":5767:5776   */\n      dup3\n        /* \"#utility.yul\":5763:5781   */\n      add\n        /* \"#utility.yul\":5755:5781   */\n      swap1\n      pop\n        /* \"#utility.yul\":5791:5862   */\n      tag_441\n        /* \"#utility.yul\":5859:5860   */\n      0x00\n        /* \"#utility.yul\":5848:5857   */\n      dup4\n        /* \"#utility.yul\":5844:5861   */\n      add\n        /* \"#utility.yul\":5835:5841   */\n      dup5\n        /* \"#utility.yul\":5791:5862   */\n      tag_353\n      jump\t// in\n    tag_441:\n        /* \"#utility.yul\":5647:5869   */\n      swap3\n      swap2\n      pop\n      pop\n      jump\t// out\n        /* \"#utility.yul\":5875:6349   */\n    tag_112:\n        /* \"#utility.yul\":5943:5949   */\n      0x00\n        /* \"#utility.yul\":5951:5957   */\n      dup1\n        /* \"#utility.yul\":6000:6002   */\n      0x40\n        /* \"#utility.yul\":5988:5997   */\n      dup4\n        /* \"#utility.yul\":5979:5986   */\n      dup6\n        /* \"#utility.yul\":5975:5998   */\n      sub\n        /* \"#utility.yul\":5971:6003   */\n      slt\n        /* \"#utility.yul\":5968:6087   */\n      iszero\n      tag_443\n      jumpi\n        /* \"#utility.yul\":6006:6085   */\n      tag_444\n      tag_339\n      jump\t// in\n    tag_444:\n        /* \"#utility.yul\":5968:6087   */\n    tag_443:\n        /* \"#utility.yul\":6126:6127   */\n      0x00\n        /* \"#utility.yul\":6151:6204   */\n      tag_445\n        /* \"#utility.yul\":6196:6203   */\n      dup6\n        /* \"#utility.yul\":6187:6193   */\n      dup3\n        /* \"#utility.yul\":6176:6185   */\n      dup7\n        /* \"#utility.yul\":6172:6194   */\n      add\n        /* \"#utility.yul\":6151:6204   */\n      tag_344\n      jump\t// in\n    tag_445:\n        /* \"#utility.yul\":6141:6204   */\n      swap3\n      pop\n        /* \"#utility.yul\":6097:6214   */\n      pop\n        /* \"#utility.yul\":6253:6255   */\n      0x20\n        /* \"#utility.yul\":6279:6332   */\n      tag_446\n        /* \"#utility.yul\":6324:6331   */\n      dup6\n        /* \"#utility.yul\":6315:6321   */\n      dup3\n        /* \"#utility.yul\":6304:6313   */\n      dup7\n        /* \"#utility.yul\":6300:6322   */\n      add\n        /* \"#utility.yul\":6279:6332   */\n      tag_344\n      jump\t// in\n    tag_446:\n        /* \"#utility.yul\":6269:6332   */\n      swap2\n      pop\n        /* \"#utility.yul\":6224:6342   */\n      pop\n        /* \"#utility.yul\":5875:6349   */\n      swap3\n      pop\n      swap3\n      swap1\n      pop\n      jump\t// out\n        /* \"#utility.yul\":6355:6829   */\n    tag_117:\n        /* \"#utility.yul\":6423:6429   */\n      0x00\n        /* \"#utility.yul\":6431:6437   */\n      dup1\n        /* \"#utility.yul\":6480:6482   */\n      0x40\n        /* \"#utility.yul\":6468:6477   */\n      dup4\n        /* \"#utility.yul\":6459:6466   */\n      dup6\n        /* \"#utility.yul\":6455:6478   */\n      sub\n        /* \"#utility.yul\":6451:6483   */\n      slt\n        /* \"#utility.yul\":6448:6567   */\n      iszero\n      tag_448\n      jumpi\n        /* \"#utility.yul\":6486:6565   */\n      tag_449\n      tag_339\n      jump\t// in\n    tag_449:\n        /* \"#utility.yul\":6448:6567   */\n    tag_448:\n        /* \"#utility.yul\":6606:6607   */\n      0x00\n        /* \"#utility.yul\":6631:6684   */\n      tag_450\n        /* \"#utility.yul\":6676:6683   */\n      dup6\n        /* \"#utility.yul\":6667:6673   */\n      dup3\n        /* \"#utility.yul\":6656:6665   */\n      dup7\n        /* \"#utility.yul\":6652:6674   */\n      add\n        /* \"#utility.yul\":6631:6684   */\n      tag_347\n      jump\t// in\n    tag_450:\n        /* \"#utility.yul\":6621:6684   */\n      swap3\n      pop\n        /* \"#utility.yul\":6577:6694   */\n      pop\n        /* \"#utility.yul\":6733:6735   */\n      0x20\n        /* \"#utility.yul\":6759:6812   */\n      tag_451\n        /* \"#utility.yul\":6804:6811   */\n      dup6\n        /* \"#utility.yul\":6795:6801   */\n      dup3\n        /* \"#utility.yul\":6784:6793   */\n      dup7\n        /* \"#utility.yul\":6780:6802   */\n      add\n        /* \"#utility.yul\":6759:6812   */\n      tag_347\n      jump\t// in\n    tag_451:\n        /* \"#utility.yul\":6749:6812   */\n      swap2\n      pop\n        /* \"#utility.yul\":6704:6822   */\n      pop\n        /* \"#utility.yul\":6355:6829   */\n      swap3\n      pop\n      swap3\n      swap1\n      pop\n      jump\t// out\n        /* \"#utility.yul\":6835:7454   */\n    tag_122:\n        /* \"#utility.yul\":6912:6918   */\n      0x00\n        /* \"#utility.yul\":6920:6926   */\n      dup1\n        /* \"#utility.yul\":6928:6934   */\n      0x00\n        /* \"#utility.yul\":6977:6979   */\n      0x60\n        /* \"#utility.yul\":6965:6974   */\n      dup5\n        /* \"#utility.yul\":6956:6963   */\n      dup7\n        /* \"#utility.yul\":6952:6975   */\n      sub\n        /* \"#utility.yul\":6948:6980   */\n      slt\n        /* \"#utility.yul\":6945:7064   */\n      iszero\n      tag_453\n      jumpi\n        /* \"#utility.yul\":6983:7062   */\n      tag_454\n      tag_339\n      jump\t// in\n    tag_454:\n        /* \"#utility.yul\":6945:7064   */\n    tag_453:\n        /* \"#utility.yul\":7103:7104   */\n      0x00\n        /* \"#utility.yul\":7128:7181   */\n      tag_455\n        /* \"#utility.yul\":7173:7180   */\n      dup7\n        /* \"#utility.yul\":7164:7170   */\n      dup3\n        /* \"#utility.yul\":7153:7162   */\n      dup8\n        /* \"#utility.yul\":7149:7171   */\n      add\n        /* \"#utility.yul\":7128:7181   */\n      tag_347\n      jump\t// in\n    tag_455:\n        /* \"#utility.yul\":7118:7181   */\n      swap4\n      pop\n        /* \"#utility.yul\":7074:7191   */\n      pop\n        /* \"#utility.yul\":7230:7232   */\n      0x20\n        /* \"#utility.yul\":7256:7309   */\n      tag_456\n        /* \"#utility.yul\":7301:7308   */\n      dup7\n        /* \"#utility.yul\":7292:7298   */\n      dup3\n        /* \"#utility.yul\":7281:7290   */\n      dup8\n        /* \"#utility.yul\":7277:7299   */\n      add\n        /* \"#utility.yul\":7256:7309   */\n      tag_347\n      jump\t// in\n    tag_456:\n        /* \"#utility.yul\":7246:7309   */\n      swap3\n      pop\n        /* \"#utility.yul\":7201:7319   */\n      pop\n        /* \"#utility.yul\":7358:7360   */\n      0x40\n        /* \"#utility.yul\":7384:7437   */\n      tag_457\n        /* \"#utility.yul\":7429:7436   */\n      dup7\n        /* \"#utility.yul\":7420:7426   */\n      dup3\n        /* \"#utility.yul\":7409:7418   */\n      dup8\n        /* \"#utility.yul\":7405:7427   */\n      add\n        /* \"#utility.yul\":7384:7437   */\n      tag_344\n      jump\t// in\n    tag_457:\n        /* \"#utility.yul\":7374:7437   */\n      swap2\n      pop\n        /* \"#utility.yul\":7329:7447   */\n      pop\n        /* \"#utility.yul\":6835:7454   */\n      swap3\n      pop\n      swap3\n      pop\n      swap3\n      jump\t// out\n        /* \"#utility.yul\":7460:7640   */\n    tag_354:\n        /* \"#utility.yul\":7508:7585   */\n      0x4e487b7100000000000000000000000000000000000000000000000000000000\n        /* \"#utility.yul\":7505:7506   */\n      0x00\n        /* \"#utility.yul\":7498:7586   */\n      mstore\n        /* \"#utility.yul\":7605:7609   */\n      0x22\n        /* \"#utility.yul\":7602:7603   */\n      0x04\n        /* \"#utility.yul\":7595:7610   */\n      mstore\n        /* \"#utility.yul\":7629:7633   */\n      0x24\n        /* \"#utility.yul\":7626:7627   */\n      0x00\n        /* \"#utility.yul\":7619:7634   */\n      revert\n        /* \"#utility.yul\":7646:7966   */\n    tag_130:\n        /* \"#utility.yul\":7690:7696   */\n      0x00\n        /* \"#utility.yul\":7727:7728   */\n      0x02\n        /* \"#utility.yul\":7721:7725   */\n      dup3\n        /* \"#utility.yul\":7717:7729   */\n      div\n        /* \"#utility.yul\":7707:7729   */\n      swap1\n      pop\n        /* \"#utility.yul\":7774:7775   */\n      0x01\n        /* \"#utility.yul\":7768:7772   */\n      dup3\n        /* \"#utility.yul\":7764:7776   */\n      and\n        /* \"#utility.yul\":7795:7813   */\n      dup1\n        /* \"#utility.yul\":7785:7866   */\n      tag_460\n      jumpi\n        /* \"#utility.yul\":7851:7855   */\n      0x7f\n        /* \"#utility.yul\":7843:7849   */\n      dup3\n        /* \"#utility.yul\":7839:7856   */\n      and\n        /* \"#utility.yul\":7829:7856   */\n      swap2\n      pop\n        /* \"#utility.yul\":7785:7866   */\n    tag_460:\n        /* \"#utility.yul\":7913:7915   */\n      0x20\n        /* \"#utility.yul\":7905:7911   */\n      dup3\n        /* \"#utility.yul\":7902:7916   */\n      lt\n        /* \"#utility.yul\":7882:7900   */\n      dup2\n        /* \"#utility.yul\":7879:7917   */\n      sub\n        /* \"#utility.yul\":7876:7960   */\n      tag_461\n      jumpi\n        /* \"#utility.yul\":7932:7950   */\n      tag_462\n      tag_354\n      jump\t// in\n    tag_462:\n        /* \"#utility.yul\":7876:7960   */\n    tag_461:\n        /* \"#utility.yul\":7697:7966   */\n      pop\n        /* \"#utility.yul\":7646:7966   */\n      swap2\n      swap1\n      pop\n      jump\t// out\n        /* \"#utility.yul\":7972:8152   */\n    tag_355:\n        /* \"#utility.yul\":8020:8097   */\n      0x4e487b7100000000000000000000000000000000000000000000000000000000\n        /* \"#utility.yul\":8017:8018   */\n      0x00\n        /* \"#utility.yul\":8010:8098   */\n      mstore\n        /* \"#utility.yul\":8117:8121   */\n      0x11\n        /* \"#utility.yul\":8114:8115   */\n      0x04\n        /* \"#utility.yul\":8107:8122   */\n      mstore\n        /* \"#utility.yul\":8141:8145   */\n      0x24\n        /* \"#utility.yul\":8138:8139   */\n      0x00\n        /* \"#utility.yul\":8131:8146   */\n      revert\n        /* \"#utility.yul\":8158:8349   */\n    tag_153:\n        /* \"#utility.yul\":8198:8201   */\n      0x00\n        /* \"#utility.yul\":8217:8237   */\n      tag_465\n        /* \"#utility.yul\":8235:8236   */\n      dup3\n        /* \"#utility.yul\":8217:8237   */\n      tag_345\n      jump\t// in\n    tag_465:\n        /* \"#utility.yul\":8212:8237   */\n      swap2\n      pop\n        /* \"#utility.yul\":8251:8271   */\n      tag_466\n        /* \"#utility.yul\":8269:8270   */\n      dup4\n        /* \"#utility.yul\":8251:8271   */\n      tag_345\n      jump\t// in\n    tag_466:\n        /* \"#utility.yul\":8246:8271   */\n      swap3\n      pop\n        /* \"#utility.yul\":8294:8295   */\n      dup3\n        /* \"#utility.yul\":8291:8292   */\n      dup3\n        /* \"#utility.yul\":8287:8296   */\n      add\n        /* \"#utility.yul\":8280:8296   */\n      swap1\n      pop\n        /* \"#utility.yul\":8315:8318   */\n      dup1\n        /* \"#utility.yul\":8312:8313   */\n      dup3\n        /* \"#utility.yul\":8309:8319   */\n      gt\n        /* \"#utility.yul\":8306:8342   */\n      iszero\n      tag_467\n      jumpi\n        /* \"#utility.yul\":8322:8340   */\n      tag_468\n      tag_355\n      jump\t// in\n    tag_468:\n        /* \"#utility.yul\":8306:8342   */\n    tag_467:\n        /* \"#utility.yul\":8158:8349   */\n      swap3\n      swap2\n      pop\n      pop\n      jump\t// out\n        /* \"#utility.yul\":8355:8797   */\n    tag_158:\n        /* \"#utility.yul\":8504:8508   */\n      0x00\n        /* \"#utility.yul\":8542:8544   */\n      0x60\n        /* \"#utility.yul\":8531:8540   */\n      dup3\n        /* \"#utility.yul\":8527:8545   */\n      add\n        /* \"#utility.yul\":8519:8545   */\n      swap1\n      pop\n        /* \"#utility.yul\":8555:8626   */\n      tag_470\n        /* \"#utility.yul\":8623:8624   */\n      0x00\n        /* \"#utility.yul\":8612:8621   */\n      dup4\n        /* \"#utility.yul\":8608:8625   */\n      add\n        /* \"#utility.yul\":8599:8605   */\n      dup7\n        /* \"#utility.yul\":8555:8626   */\n      tag_353\n      jump\t// in\n    tag_470:\n        /* \"#utility.yul\":8636:8708   */\n      tag_471\n        /* \"#utility.yul\":8704:8706   */\n      0x20\n        /* \"#utility.yul\":8693:8702   */\n      dup4\n        /* \"#utility.yul\":8689:8707   */\n      add\n        /* \"#utility.yul\":8680:8686   */\n      dup6\n        /* \"#utility.yul\":8636:8708   */\n      tag_353\n      jump\t// in\n    tag_471:\n        /* \"#utility.yul\":8718:8790   */\n      tag_472\n        /* \"#utility.yul\":8786:8788   */\n      0x40\n        /* \"#utility.yul\":8775:8784   */\n      dup4\n        /* \"#utility.yul\":8771:8789   */\n      add\n        /* \"#utility.yul\":8762:8768   */\n      dup5\n        /* \"#utility.yul\":8718:8790   */\n      tag_350\n      jump\t// in\n    tag_472:\n        /* \"#utility.yul\":8355:8797   */\n      swap5\n      swap4\n      pop\n      pop\n      pop\n      pop\n      jump\t// out\n        /* \"#utility.yul\":8803:8919   */\n    tag_356:\n        /* \"#utility.yul\":8873:8894   */\n      tag_474\n        /* \"#utility.yul\":8888:8893   */\n      dup2\n        /* \"#utility.yul\":8873:8894   */\n      tag_348\n      jump\t// in\n    tag_474:\n        /* \"#utility.yul\":8866:8871   */\n      dup2\n        /* \"#utility.yul\":8863:8895   */\n      eq\n        /* \"#utility.yul\":8853:8913   */\n      tag_475\n      jumpi\n        /* \"#utility.yul\":8909:8910   */\n      0x00\n        /* \"#utility.yul\":8906:8907   */\n      dup1\n        /* \"#utility.yul\":8899:8911   */\n      revert\n        /* \"#utility.yul\":8853:8913   */\n    tag_475:\n        /* \"#utility.yul\":8803:8919   */\n      pop\n      jump\t// out\n        /* \"#utility.yul\":8925:9062   */\n    tag_357:\n        /* \"#utility.yul\":8979:8984   */\n      0x00\n        /* \"#utility.yul\":9010:9016   */\n      dup2\n        /* \"#utility.yul\":9004:9017   */\n      mload\n        /* \"#utility.yul\":8995:9017   */\n      swap1\n      pop\n        /* \"#utility.yul\":9026:9056   */\n      tag_477\n        /* \"#utility.yul\":9050:9055   */\n      dup2\n        /* \"#utility.yul\":9026:9056   */\n      tag_356\n      jump\t// in\n    tag_477:\n        /* \"#utility.yul\":8925:9062   */\n      swap3\n      swap2\n      pop\n      pop\n      jump\t// out\n        /* \"#utility.yul\":9068:9413   */\n    tag_162:\n        /* \"#utility.yul\":9135:9141   */\n      0x00\n        /* \"#utility.yul\":9184:9186   */\n      0x20\n        /* \"#utility.yul\":9172:9181   */\n      dup3\n        /* \"#utility.yul\":9163:9170   */\n      dup5\n        /* \"#utility.yul\":9159:9182   */\n      sub\n        /* \"#utility.yul\":9155:9187   */\n      slt\n        /* \"#utility.yul\":9152:9271   */\n      iszero\n      tag_479\n      jumpi\n        /* \"#utility.yul\":9190:9269   */\n      tag_480\n      tag_339\n      jump\t// in\n    tag_480:\n        /* \"#utility.yul\":9152:9271   */\n    tag_479:\n        /* \"#utility.yul\":9310:9311   */\n      0x00\n        /* \"#utility.yul\":9335:9396   */\n      tag_481\n        /* \"#utility.yul\":9388:9395   */\n      dup5\n        /* \"#utility.yul\":9379:9385   */\n      dup3\n        /* \"#utility.yul\":9368:9377   */\n      dup6\n        /* \"#utility.yul\":9364:9386   */\n      add\n        /* \"#utility.yul\":9335:9396   */\n      tag_357\n      jump\t// in\n    tag_481:\n        /* \"#utility.yul\":9325:9396   */\n      swap2\n      pop\n        /* \"#utility.yul\":9281:9406   */\n      pop\n        /* \"#utility.yul\":9068:9413   */\n      swap3\n      swap2\n      pop\n      pop\n      jump\t// out\n        /* \"#utility.yul\":9419:9613   */\n    tag_167:\n        /* \"#utility.yul\":9459:9463   */\n      0x00\n        /* \"#utility.yul\":9479:9499   */\n      tag_483\n        /* \"#utility.yul\":9497:9498   */\n      dup3\n        /* \"#utility.yul\":9479:9499   */\n      tag_345\n      jump\t// in\n    tag_483:\n        /* \"#utility.yul\":9474:9499   */\n      swap2\n      pop\n        /* \"#utility.yul\":9513:9533   */\n      tag_484\n        /* \"#utility.yul\":9531:9532   */\n      dup4\n        /* \"#utility.yul\":9513:9533   */\n      tag_345\n      jump\t// in\n    tag_484:\n        /* \"#utility.yul\":9508:9533   */\n      swap3\n      pop\n        /* \"#utility.yul\":9557:9558   */\n      dup3\n        /* \"#utility.yul\":9554:9555   */\n      dup3\n        /* \"#utility.yul\":9550:9559   */\n      sub\n        /* \"#utility.yul\":9542:9559   */\n      swap1\n      pop\n        /* \"#utility.yul\":9581:9582   */\n      dup2\n        /* \"#utility.yul\":9575:9579   */\n      dup2\n        /* \"#utility.yul\":9572:9583   */\n      gt\n        /* \"#utility.yul\":9569:9606   */\n      iszero\n      tag_485\n      jumpi\n        /* \"#utility.yul\":9586:9604   */\n      tag_486\n      tag_355\n      jump\t// in\n    tag_486:\n        /* \"#utility.yul\":9569:9606   */\n    tag_485:\n        /* \"#utility.yul\":9419:9613   */\n      swap3\n      swap2\n      pop\n      pop\n      jump\t// out\n        /* \"#utility.yul\":9619:10029   */\n    tag_170:\n        /* \"#utility.yul\":9659:9666   */\n      0x00\n        /* \"#utility.yul\":9682:9702   */\n      tag_488\n        /* \"#utility.yul\":9700:9701   */\n      dup3\n        /* \"#utility.yul\":9682:9702   */\n      tag_345\n      jump\t// in\n    tag_488:\n        /* \"#utility.yul\":9677:9702   */\n      swap2\n      pop\n        /* \"#utility.yul\":9716:9736   */\n      tag_489\n        /* \"#utility.yul\":9734:9735   */\n      dup4\n        /* \"#utility.yul\":9716:9736   */\n      tag_345\n      jump\t// in\n    tag_489:\n        /* \"#utility.yul\":9711:9736   */\n      swap3\n      pop\n        /* \"#utility.yul\":9771:9772   */\n      dup3\n        /* \"#utility.yul\":9768:9769   */\n      dup3\n        /* \"#utility.yul\":9764:9773   */\n      mul\n        /* \"#utility.yul\":9793:9823   */\n      tag_490\n        /* \"#utility.yul\":9811:9822   */\n      dup2\n        /* \"#utility.yul\":9793:9823   */\n      tag_345\n      jump\t// in\n    tag_490:\n        /* \"#utility.yul\":9782:9823   */\n      swap2\n      pop\n        /* \"#utility.yul\":9972:9973   */\n      dup3\n        /* \"#utility.yul\":9963:9970   */\n      dup3\n        /* \"#utility.yul\":9959:9974   */\n      div\n        /* \"#utility.yul\":9956:9957   */\n      dup5\n        /* \"#utility.yul\":9953:9975   */\n      eq\n        /* \"#utility.yul\":9933:9934   */\n      dup4\n        /* \"#utility.yul\":9926:9935   */\n      iszero\n        /* \"#utility.yul\":9906:9989   */\n      or\n        /* \"#utility.yul\":9883:10022   */\n      tag_491\n      jumpi\n        /* \"#utility.yul\":10002:10020   */\n      tag_492\n      tag_355\n      jump\t// in\n    tag_492:\n        /* \"#utility.yul\":9883:10022   */\n    tag_491:\n        /* \"#utility.yul\":9667:10029   */\n      pop\n        /* \"#utility.yul\":9619:10029   */\n      swap3\n      swap2\n      pop\n      pop\n      jump\t// out\n        /* \"#utility.yul\":10035:10215   */\n    tag_358:\n        /* \"#utility.yul\":10083:10160   */\n      0x4e487b7100000000000000000000000000000000000000000000000000000000\n        /* \"#utility.yul\":10080:10081   */\n      0x00\n        /* \"#utility.yul\":10073:10161   */\n      mstore\n        /* \"#utility.yul\":10180:10184   */\n      0x12\n        /* \"#utility.yul\":10177:10178   */\n      0x04\n        /* \"#utility.yul\":10170:10185   */\n      mstore\n        /* \"#utility.yul\":10204:10208   */\n      0x24\n        /* \"#utility.yul\":10201:10202   */\n      0x00\n        /* \"#utility.yul\":10194:10209   */\n      revert\n        /* \"#utility.yul\":10221:10406   */\n    tag_172:\n        /* \"#utility.yul\":10261:10262   */\n      0x00\n        /* \"#utility.yul\":10278:10298   */\n      tag_495\n        /* \"#utility.yul\":10296:10297   */\n      dup3\n        /* \"#utility.yul\":10278:10298   */\n      tag_345\n      jump\t// in\n    tag_495:\n        /* \"#utility.yul\":10273:10298   */\n      swap2\n      pop\n        /* \"#utility.yul\":10312:10332   */\n      tag_496\n        /* \"#utility.yul\":10330:10331   */\n      dup4\n        /* \"#utility.yul\":10312:10332   */\n      tag_345\n      jump\t// in\n    tag_496:\n        /* \"#utility.yul\":10307:10332   */\n      swap3\n      pop\n        /* \"#utility.yul\":10351:10352   */\n      dup3\n        /* \"#utility.yul\":10341:10376   */\n      tag_497\n      jumpi\n        /* \"#utility.yul\":10356:10374   */\n      tag_498\n      tag_358\n      jump\t// in\n    tag_498:\n        /* \"#utility.yul\":10341:10376   */\n    tag_497:\n        /* \"#utility.yul\":10398:10399   */\n      dup3\n        /* \"#utility.yul\":10395:10396   */\n      dup3\n        /* \"#utility.yul\":10391:10400   */\n      div\n        /* \"#utility.yul\":10386:10400   */\n      swap1\n      pop\n        /* \"#utility.yul\":10221:10406   */\n      swap3\n      swap2\n      pop\n      pop\n      jump\t// out\n        /* \"#utility.yul\":10412:10587   */\n    tag_359:\n        /* \"#utility.yul\":10552:10579   */\n      0x496e73756666696369656e7420746f6b656e20616d6f756e7400000000000000\n        /* \"#utility.yul\":10548:10549   */\n      0x00\n        /* \"#utility.yul\":10540:10546   */\n      dup3\n        /* \"#utility.yul\":10536:10550   */\n      add\n        /* \"#utility.yul\":10529:10580   */\n      mstore\n        /* \"#utility.yul\":10412:10587   */\n      pop\n      jump\t// out\n        /* \"#utility.yul\":10593:10959   */\n    tag_360:\n        /* \"#utility.yul\":10735:10738   */\n      0x00\n        /* \"#utility.yul\":10756:10823   */\n      tag_501\n        /* \"#utility.yul\":10820:10822   */\n      0x19\n        /* \"#utility.yul\":10815:10818   */\n      dup4\n        /* \"#utility.yul\":10756:10823   */\n      tag_334\n      jump\t// in\n    tag_501:\n        /* \"#utility.yul\":10749:10823   */\n      swap2\n      pop\n        /* \"#utility.yul\":10832:10925   */\n      tag_502\n        /* \"#utility.yul\":10921:10924   */\n      dup3\n        /* \"#utility.yul\":10832:10925   */\n      tag_359\n      jump\t// in\n    tag_502:\n        /* \"#utility.yul\":10950:10952   */\n      0x20\n        /* \"#utility.yul\":10945:10948   */\n      dup3\n        /* \"#utility.yul\":10941:10953   */\n      add\n        /* \"#utility.yul\":10934:10953   */\n      swap1\n      pop\n        /* \"#utility.yul\":10593:10959   */\n      swap2\n      swap1\n      pop\n      jump\t// out\n        /* \"#utility.yul\":10965:11384   */\n    tag_175:\n        /* \"#utility.yul\":11131:11135   */\n      0x00\n        /* \"#utility.yul\":11169:11171   */\n      0x20\n        /* \"#utility.yul\":11158:11167   */\n      dup3\n        /* \"#utility.yul\":11154:11172   */\n      add\n        /* \"#utility.yul\":11146:11172   */\n      swap1\n      pop\n        /* \"#utility.yul\":11218:11227   */\n      dup2\n        /* \"#utility.yul\":11212:11216   */\n      dup2\n        /* \"#utility.yul\":11208:11228   */\n      sub\n        /* \"#utility.yul\":11204:11205   */\n      0x00\n        /* \"#utility.yul\":11193:11202   */\n      dup4\n        /* \"#utility.yul\":11189:11206   */\n      add\n        /* \"#utility.yul\":11182:11229   */\n      mstore\n        /* \"#utility.yul\":11246:11377   */\n      tag_504\n        /* \"#utility.yul\":11372:11376   */\n      dup2\n        /* \"#utility.yul\":11246:11377   */\n      tag_360\n      jump\t// in\n    tag_504:\n        /* \"#utility.yul\":11238:11377   */\n      swap1\n      pop\n        /* \"#utility.yul\":10965:11384   */\n      swap2\n      swap1\n      pop\n      jump\t// out\n        /* \"#utility.yul\":11390:11533   */\n    tag_361:\n        /* \"#utility.yul\":11447:11452   */\n      0x00\n        /* \"#utility.yul\":11478:11484   */\n      dup2\n        /* \"#utility.yul\":11472:11485   */\n      mload\n        /* \"#utility.yul\":11463:11485   */\n      swap1\n      pop\n        /* \"#utility.yul\":11494:11527   */\n      tag_506\n        /* \"#utility.yul\":11521:11526   */\n      dup2\n        /* \"#utility.yul\":11494:11527   */\n      tag_346\n      jump\t// in\n    tag_506:\n        /* \"#utility.yul\":11390:11533   */\n      swap3\n      swap2\n      pop\n      pop\n      jump\t// out\n        /* \"#utility.yul\":11539:11890   */\n    tag_189:\n        /* \"#utility.yul\":11609:11615   */\n      0x00\n        /* \"#utility.yul\":11658:11660   */\n      0x20\n        /* \"#utility.yul\":11646:11655   */\n      dup3\n        /* \"#utility.yul\":11637:11644   */\n      dup5\n        /* \"#utility.yul\":11633:11656   */\n      sub\n        /* \"#utility.yul\":11629:11661   */\n      slt\n        /* \"#utility.yul\":11626:11745   */\n      iszero\n      tag_508\n      jumpi\n        /* \"#utility.yul\":11664:11743   */\n      tag_509\n      tag_339\n      jump\t// in\n    tag_509:\n        /* \"#utility.yul\":11626:11745   */\n    tag_508:\n        /* \"#utility.yul\":11784:11785   */\n      0x00\n        /* \"#utility.yul\":11809:11873   */\n      tag_510\n        /* \"#utility.yul\":11865:11872   */\n      dup5\n        /* \"#utility.yul\":11856:11862   */\n      dup3\n        /* \"#utility.yul\":11845:11854   */\n      dup6\n        /* \"#utility.yul\":11841:11863   */\n      add\n        /* \"#utility.yul\":11809:11873   */\n      tag_361\n      jump\t// in\n    tag_510:\n        /* \"#utility.yul\":11799:11873   */\n      swap2\n      pop\n        /* \"#utility.yul\":11755:11883   */\n      pop\n        /* \"#utility.yul\":11539:11890   */\n      swap3\n      swap2\n      pop\n      pop\n      jump\t// out\n        /* \"#utility.yul\":11896:12059   */\n    tag_362:\n        /* \"#utility.yul\":12036:12051   */\n      0x496e76616c696420696e70757400000000000000000000000000000000000000\n        /* \"#utility.yul\":12032:12033   */\n      0x00\n        /* \"#utility.yul\":12024:12030   */\n      dup3\n        /* \"#utility.yul\":12020:12034   */\n      add\n        /* \"#utility.yul\":12013:12052   */\n      mstore\n        /* \"#utility.yul\":11896:12059   */\n      pop\n      jump\t// out\n        /* \"#utility.yul\":12065:12431   */\n    tag_363:\n        /* \"#utility.yul\":12207:12210   */\n      0x00\n        /* \"#utility.yul\":12228:12295   */\n      tag_513\n        /* \"#utility.yul\":12292:12294   */\n      0x0d\n        /* \"#utility.yul\":12287:12290   */\n      dup4\n        /* \"#utility.yul\":12228:12295   */\n      tag_334\n      jump\t// in\n    tag_513:\n        /* \"#utility.yul\":12221:12295   */\n      swap2\n      pop\n        /* \"#utility.yul\":12304:12397   */\n      tag_514\n        /* \"#utility.yul\":12393:12396   */\n      dup3\n        /* \"#utility.yul\":12304:12397   */\n      tag_362\n      jump\t// in\n    tag_514:\n        /* \"#utility.yul\":12422:12424   */\n      0x20\n        /* \"#utility.yul\":12417:12420   */\n      dup3\n        /* \"#utility.yul\":12413:12425   */\n      add\n        /* \"#utility.yul\":12406:12425   */\n      swap1\n      pop\n        /* \"#utility.yul\":12065:12431   */\n      swap2\n      swap1\n      pop\n      jump\t// out\n        /* \"#utility.yul\":12437:12856   */\n    tag_194:\n        /* \"#utility.yul\":12603:12607   */\n      0x00\n        /* \"#utility.yul\":12641:12643   */\n      0x20\n        /* \"#utility.yul\":12630:12639   */\n      dup3\n        /* \"#utility.yul\":12626:12644   */\n      add\n        /* \"#utility.yul\":12618:12644   */\n      swap1\n      pop\n        /* \"#utility.yul\":12690:12699   */\n      dup2\n        /* \"#utility.yul\":12684:12688   */\n      dup2\n        /* \"#utility.yul\":12680:12700   */\n      sub\n        /* \"#utility.yul\":12676:12677   */\n      0x00\n        /* \"#utility.yul\":12665:12674   */\n      dup4\n        /* \"#utility.yul\":12661:12678   */\n      add\n        /* \"#utility.yul\":12654:12701   */\n      mstore\n        /* \"#utility.yul\":12718:12849   */\n      tag_516\n        /* \"#utility.yul\":12844:12848   */\n      dup2\n        /* \"#utility.yul\":12718:12849   */\n      tag_363\n      jump\t// in\n    tag_516:\n        /* \"#utility.yul\":12710:12849   */\n      swap1\n      pop\n        /* \"#utility.yul\":12437:12856   */\n      swap2\n      swap1\n      pop\n      jump\t// out\n        /* \"#utility.yul\":12862:13034   */\n    tag_364:\n        /* \"#utility.yul\":13002:13026   */\n      0x496e73756666696369656e74206c697175696469747900000000000000000000\n        /* \"#utility.yul\":12998:12999   */\n      0x00\n        /* \"#utility.yul\":12990:12996   */\n      dup3\n        /* \"#utility.yul\":12986:13000   */\n      add\n        /* \"#utility.yul\":12979:13027   */\n      mstore\n        /* \"#utility.yul\":12862:13034   */\n      pop\n      jump\t// out\n        /* \"#utility.yul\":13040:13406   */\n    tag_365:\n        /* \"#utility.yul\":13182:13185   */\n      0x00\n        /* \"#utility.yul\":13203:13270   */\n      tag_519\n        /* \"#utility.yul\":13267:13269   */\n      0x16\n        /* \"#utility.yul\":13262:13265   */\n      dup4\n        /* \"#utility.yul\":13203:13270   */\n      tag_334\n      jump\t// in\n    tag_519:\n        /* \"#utility.yul\":13196:13270   */\n      swap2\n      pop\n        /* \"#utility.yul\":13279:13372   */\n      tag_520\n        /* \"#utility.yul\":13368:13371   */\n      dup3\n        /* \"#utility.yul\":13279:13372   */\n      tag_364\n      jump\t// in\n    tag_520:\n        /* \"#utility.yul\":13397:13399   */\n      0x20\n        /* \"#utility.yul\":13392:13395   */\n      dup3\n        /* \"#utility.yul\":13388:13400   */\n      add\n        /* \"#utility.yul\":13381:13400   */\n      swap1\n      pop\n        /* \"#utility.yul\":13040:13406   */\n      swap2\n      swap1\n      pop\n      jump\t// out\n        /* \"#utility.yul\":13412:13831   */\n    tag_207:\n        /* \"#utility.yul\":13578:13582   */\n      0x00\n        /* \"#utility.yul\":13616:13618   */\n      0x20\n        /* \"#utility.yul\":13605:13614   */\n      dup3\n        /* \"#utility.yul\":13601:13619   */\n      add\n        /* \"#utility.yul\":13593:13619   */\n      swap1\n      pop\n        /* \"#utility.yul\":13665:13674   */\n      dup2\n        /* \"#utility.yul\":13659:13663   */\n      dup2\n        /* \"#utility.yul\":13655:13675   */\n      sub\n        /* \"#utility.yul\":13651:13652   */\n      0x00\n        /* \"#utility.yul\":13640:13649   */\n      dup4\n        /* \"#utility.yul\":13636:13653   */\n      add\n        /* \"#utility.yul\":13629:13676   */\n      mstore\n        /* \"#utility.yul\":13693:13824   */\n      tag_522\n        /* \"#utility.yul\":13819:13823   */\n      dup2\n        /* \"#utility.yul\":13693:13824   */\n      tag_365\n      jump\t// in\n    tag_522:\n        /* \"#utility.yul\":13685:13824   */\n      swap1\n      pop\n        /* \"#utility.yul\":13412:13831   */\n      swap2\n      swap1\n      pop\n      jump\t// out\n        /* \"#utility.yul\":13837:14169   */\n    tag_220:\n        /* \"#utility.yul\":13958:13962   */\n      0x00\n        /* \"#utility.yul\":13996:13998   */\n      0x40\n        /* \"#utility.yul\":13985:13994   */\n      dup3\n        /* \"#utility.yul\":13981:13999   */\n      add\n        /* \"#utility.yul\":13973:13999   */\n      swap1\n      pop\n        /* \"#utility.yul\":14009:14080   */\n      tag_524\n        /* \"#utility.yul\":14077:14078   */\n      0x00\n        /* \"#utility.yul\":14066:14075   */\n      dup4\n        /* \"#utility.yul\":14062:14079   */\n      add\n        /* \"#utility.yul\":14053:14059   */\n      dup6\n        /* \"#utility.yul\":14009:14080   */\n      tag_353\n      jump\t// in\n    tag_524:\n        /* \"#utility.yul\":14090:14162   */\n      tag_525\n        /* \"#utility.yul\":14158:14160   */\n      0x20\n        /* \"#utility.yul\":14147:14156   */\n      dup4\n        /* \"#utility.yul\":14143:14161   */\n      add\n        /* \"#utility.yul\":14134:14140   */\n      dup5\n        /* \"#utility.yul\":14090:14162   */\n      tag_350\n      jump\t// in\n    tag_525:\n        /* \"#utility.yul\":13837:14169   */\n      swap4\n      swap3\n      pop\n      pop\n      pop\n      jump\t// out\n        /* \"#utility.yul\":14175:14617   */\n    tag_229:\n        /* \"#utility.yul\":14324:14328   */\n      0x00\n        /* \"#utility.yul\":14362:14364   */\n      0x60\n        /* \"#utility.yul\":14351:14360   */\n      dup3\n        /* \"#utility.yul\":14347:14365   */\n      add\n        /* \"#utility.yul\":14339:14365   */\n      swap1\n      pop\n        /* \"#utility.yul\":14375:14446   */\n      tag_527\n        /* \"#utility.yul\":14443:14444   */\n      0x00\n        /* \"#utility.yul\":14432:14441   */\n      dup4\n        /* \"#utility.yul\":14428:14445   */\n      add\n        /* \"#utility.yul\":14419:14425   */\n      dup7\n        /* \"#utility.yul\":14375:14446   */\n      tag_353\n      jump\t// in\n    tag_527:\n        /* \"#utility.yul\":14456:14528   */\n      tag_528\n        /* \"#utility.yul\":14524:14526   */\n      0x20\n        /* \"#utility.yul\":14513:14522   */\n      dup4\n        /* \"#utility.yul\":14509:14527   */\n      add\n        /* \"#utility.yul\":14500:14506   */\n      dup6\n        /* \"#utility.yul\":14456:14528   */\n      tag_350\n      jump\t// in\n    tag_528:\n        /* \"#utility.yul\":14538:14610   */\n      tag_529\n        /* \"#utility.yul\":14606:14608   */\n      0x40\n        /* \"#utility.yul\":14595:14604   */\n      dup4\n        /* \"#utility.yul\":14591:14609   */\n      add\n        /* \"#utility.yul\":14582:14588   */\n      dup5\n        /* \"#utility.yul\":14538:14610   */\n      tag_350\n      jump\t// in\n    tag_529:\n        /* \"#utility.yul\":14175:14617   */\n      swap5\n      swap4\n      pop\n      pop\n      pop\n      pop\n      jump\t// out\n        /* \"#utility.yul\":14623:14799   */\n    tag_366:\n        /* \"#utility.yul\":14763:14791   */\n      0x496e73756666696369656e74206f757470757420616d6f756e74000000000000\n        /* \"#utility.yul\":14759:14760   */\n      0x00\n        /* \"#utility.yul\":14751:14757   */\n      dup3\n        /* \"#utility.yul\":14747:14761   */\n      add\n        /* \"#utility.yul\":14740:14792   */\n      mstore\n        /* \"#utility.yul\":14623:14799   */\n      pop\n      jump\t// out\n        /* \"#utility.yul\":14805:15171   */\n    tag_367:\n        /* \"#utility.yul\":14947:14950   */\n      0x00\n        /* \"#utility.yul\":14968:15035   */\n      tag_532\n        /* \"#utility.yul\":15032:15034   */\n      0x1a\n        /* \"#utility.yul\":15027:15030   */\n      dup4\n        /* \"#utility.yul\":14968:15035   */\n      tag_334\n      jump\t// in\n    tag_532:\n        /* \"#utility.yul\":14961:15035   */\n      swap2\n      pop\n        /* \"#utility.yul\":15044:15137   */\n      tag_533\n        /* \"#utility.yul\":15133:15136   */\n      dup3\n        /* \"#utility.yul\":15044:15137   */\n      tag_366\n      jump\t// in\n    tag_533:\n        /* \"#utility.yul\":15162:15164   */\n      0x20\n        /* \"#utility.yul\":15157:15160   */\n      dup3\n        /* \"#utility.yul\":15153:15165   */\n      add\n        /* \"#utility.yul\":15146:15165   */\n      swap1\n      pop\n        /* \"#utility.yul\":14805:15171   */\n      swap2\n      swap1\n      pop\n      jump\t// out\n        /* \"#utility.yul\":15177:15596   */\n    tag_245:\n        /* \"#utility.yul\":15343:15347   */\n      0x00\n        /* \"#utility.yul\":15381:15383   */\n      0x20\n        /* \"#utility.yul\":15370:15379   */\n      dup3\n        /* \"#utility.yul\":15366:15384   */\n      add\n        /* \"#utility.yul\":15358:15384   */\n      swap1\n      pop\n        /* \"#utility.yul\":15430:15439   */\n      dup2\n        /* \"#utility.yul\":15424:15428   */\n      dup2\n        /* \"#utility.yul\":15420:15440   */\n      sub\n        /* \"#utility.yul\":15416:15417   */\n      0x00\n        /* \"#utility.yul\":15405:15414   */\n      dup4\n        /* \"#utility.yul\":15401:15418   */\n      add\n        /* \"#utility.yul\":15394:15441   */\n      mstore\n        /* \"#utility.yul\":15458:15589   */\n      tag_535\n        /* \"#utility.yul\":15584:15588   */\n      dup2\n        /* \"#utility.yul\":15458:15589   */\n      tag_367\n      jump\t// in\n    tag_535:\n        /* \"#utility.yul\":15450:15589   */\n      swap1\n      pop\n        /* \"#utility.yul\":15177:15596   */\n      swap2\n      swap1\n      pop\n      jump\t// out\n        /* \"#utility.yul\":15602:15745   */\n    tag_368:\n        /* \"#utility.yul\":15659:15664   */\n      0x00\n        /* \"#utility.yul\":15690:15696   */\n      dup2\n        /* \"#utility.yul\":15684:15697   */\n      mload\n        /* \"#utility.yul\":15675:15697   */\n      swap1\n      pop\n        /* \"#utility.yul\":15706:15739   */\n      tag_537\n        /* \"#utility.yul\":15733:15738   */\n      dup2\n        /* \"#utility.yul\":15706:15739   */\n      tag_343\n      jump\t// in\n    tag_537:\n        /* \"#utility.yul\":15602:15745   */\n      swap3\n      swap2\n      pop\n      pop\n      jump\t// out\n        /* \"#utility.yul\":15751:16102   */\n    tag_257:\n        /* \"#utility.yul\":15821:15827   */\n      0x00\n        /* \"#utility.yul\":15870:15872   */\n      0x20\n        /* \"#utility.yul\":15858:15867   */\n      dup3\n        /* \"#utility.yul\":15849:15856   */\n      dup5\n        /* \"#utility.yul\":15845:15868   */\n      sub\n        /* \"#utility.yul\":15841:15873   */\n      slt\n        /* \"#utility.yul\":15838:15957   */\n      iszero\n      tag_539\n      jumpi\n        /* \"#utility.yul\":15876:15955   */\n      tag_540\n      tag_339\n      jump\t// in\n    tag_540:\n        /* \"#utility.yul\":15838:15957   */\n    tag_539:\n        /* \"#utility.yul\":15996:15997   */\n      0x00\n        /* \"#utility.yul\":16021:16085   */\n      tag_541\n        /* \"#utility.yul\":16077:16084   */\n      dup5\n        /* \"#utility.yul\":16068:16074   */\n      dup3\n        /* \"#utility.yul\":16057:16066   */\n      dup6\n        /* \"#utility.yul\":16053:16075   */\n      add\n        /* \"#utility.yul\":16021:16085   */\n      tag_368\n      jump\t// in\n    tag_541:\n        /* \"#utility.yul\":16011:16085   */\n      swap2\n      pop\n        /* \"#utility.yul\":15967:16095   */\n      pop\n        /* \"#utility.yul\":15751:16102   */\n      swap3\n      swap2\n      pop\n      pop\n      jump\t// out\n        /* \"#utility.yul\":16108:16282   */\n    tag_369:\n        /* \"#utility.yul\":16248:16274   */\n      0x496e76616c69642065786368616e676520616464726573730000000000000000\n        /* \"#utility.yul\":16244:16245   */\n      0x00\n        /* \"#utility.yul\":16236:16242   */\n      dup3\n        /* \"#utility.yul\":16232:16246   */\n      add\n        /* \"#utility.yul\":16225:16275   */\n      mstore\n        /* \"#utility.yul\":16108:16282   */\n      pop\n      jump\t// out\n        /* \"#utility.yul\":16288:16654   */\n    tag_370:\n        /* \"#utility.yul\":16430:16433   */\n      0x00\n        /* \"#utility.yul\":16451:16518   */\n      tag_544\n        /* \"#utility.yul\":16515:16517   */\n      0x18\n        /* \"#utility.yul\":16510:16513   */\n      dup4\n        /* \"#utility.yul\":16451:16518   */\n      tag_334\n      jump\t// in\n    tag_544:\n        /* \"#utility.yul\":16444:16518   */\n      swap2\n      pop\n        /* \"#utility.yul\":16527:16620   */\n      tag_545\n        /* \"#utility.yul\":16616:16619   */\n      dup3\n        /* \"#utility.yul\":16527:16620   */\n      tag_369\n      jump\t// in\n    tag_545:\n        /* \"#utility.yul\":16645:16647   */\n      0x20\n        /* \"#utility.yul\":16640:16643   */\n      dup3\n        /* \"#utility.yul\":16636:16648   */\n      add\n        /* \"#utility.yul\":16629:16648   */\n      swap1\n      pop\n        /* \"#utility.yul\":16288:16654   */\n      swap2\n      swap1\n      pop\n      jump\t// out\n        /* \"#utility.yul\":16660:17079   */\n    tag_261:\n        /* \"#utility.yul\":16826:16830   */\n      0x00\n        /* \"#utility.yul\":16864:16866   */\n      0x20\n        /* \"#utility.yul\":16853:16862   */\n      dup3\n        /* \"#utility.yul\":16849:16867   */\n      add\n        /* \"#utility.yul\":16841:16867   */\n      swap1\n      pop\n        /* \"#utility.yul\":16913:16922   */\n      dup2\n        /* \"#utility.yul\":16907:16911   */\n      dup2\n        /* \"#utility.yul\":16903:16923   */\n      sub\n        /* \"#utility.yul\":16899:16900   */\n      0x00\n        /* \"#utility.yul\":16888:16897   */\n      dup4\n        /* \"#utility.yul\":16884:16901   */\n      add\n        /* \"#utility.yul\":16877:16924   */\n      mstore\n        /* \"#utility.yul\":16941:17072   */\n      tag_547\n        /* \"#utility.yul\":17067:17071   */\n      dup2\n        /* \"#utility.yul\":16941:17072   */\n      tag_370\n      jump\t// in\n    tag_547:\n        /* \"#utility.yul\":16933:17072   */\n      swap1\n      pop\n        /* \"#utility.yul\":16660:17079   */\n      swap2\n      swap1\n      pop\n      jump\t// out\n        /* \"#utility.yul\":17085:17250   */\n    tag_371:\n        /* \"#utility.yul\":17225:17242   */\n      0x496e76616c696420726573657276650000000000000000000000000000000000\n        /* \"#utility.yul\":17221:17222   */\n      0x00\n        /* \"#utility.yul\":17213:17219   */\n      dup3\n        /* \"#utility.yul\":17209:17223   */\n      add\n        /* \"#utility.yul\":17202:17243   */\n      mstore\n        /* \"#utility.yul\":17085:17250   */\n      pop\n      jump\t// out\n        /* \"#utility.yul\":17256:17622   */\n    tag_372:\n        /* \"#utility.yul\":17398:17401   */\n      0x00\n        /* \"#utility.yul\":17419:17486   */\n      tag_550\n        /* \"#utility.yul\":17483:17485   */\n      0x0f\n        /* \"#utility.yul\":17478:17481   */\n      dup4\n        /* \"#utility.yul\":17419:17486   */\n      tag_334\n      jump\t// in\n    tag_550:\n        /* \"#utility.yul\":17412:17486   */\n      swap2\n      pop\n        /* \"#utility.yul\":17495:17588   */\n      tag_551\n        /* \"#utility.yul\":17584:17587   */\n      dup3\n        /* \"#utility.yul\":17495:17588   */\n      tag_371\n      jump\t// in\n    tag_551:\n        /* \"#utility.yul\":17613:17615   */\n      0x20\n        /* \"#utility.yul\":17608:17611   */\n      dup3\n        /* \"#utility.yul\":17604:17616   */\n      add\n        /* \"#utility.yul\":17597:17616   */\n      swap1\n      pop\n        /* \"#utility.yul\":17256:17622   */\n      swap2\n      swap1\n      pop\n      jump\t// out\n        /* \"#utility.yul\":17628:18047   */\n    tag_314:\n        /* \"#utility.yul\":17794:17798   */\n      0x00\n        /* \"#utility.yul\":17832:17834   */\n      0x20\n        /* \"#utility.yul\":17821:17830   */\n      dup3\n        /* \"#utility.yul\":17817:17835   */\n      add\n        /* \"#utility.yul\":17809:17835   */\n      swap1\n      pop\n        /* \"#utility.yul\":17881:17890   */\n      dup2\n        /* \"#utility.yul\":17875:17879   */\n      dup2\n        /* \"#utility.yul\":17871:17891   */\n      sub\n        /* \"#utility.yul\":17867:17868   */\n      0x00\n        /* \"#utility.yul\":17856:17865   */\n      dup4\n        /* \"#utility.yul\":17852:17869   */\n      add\n        /* \"#utility.yul\":17845:17892   */\n      mstore\n        /* \"#utility.yul\":17909:18040   */\n      tag_553\n        /* \"#utility.yul\":18035:18039   */\n      dup2\n        /* \"#utility.yul\":17909:18040   */\n      tag_372\n      jump\t// in\n    tag_553:\n        /* \"#utility.yul\":17901:18040   */\n      swap1\n      pop\n        /* \"#utility.yul\":17628:18047   */\n      swap2\n      swap1\n      pop\n      jump\t// out\n\n    auxdata: 0xa26469706673582212207159efda554dd21452c0fe4046cb1fc6d231d596c2ca665823e6e8167de6276064736f6c63430008140033\n}\n",
				"bytecode": {
					"linkReferences": {},
					"object": "608060405234801562000010575f80fd5b506040516200293538038062002935833981810160405281019062000036919062000225565b6040518060400160405280600b81526020017f4d756e69737761702d56310000000000000000000000000000000000000000008152506040518060400160405280600781526020017f4d554e492d5631000000000000000000000000000000000000000000000000008152508160039081620000b39190620004b9565b508060049081620000c59190620004b9565b5050505f73ffffffffffffffffffffffffffffffffffffffff168173ffffffffffffffffffffffffffffffffffffffff160362000139576040517f08c379a00000000000000000000000000000000000000000000000000000000081526004016200013090620005fb565b60405180910390fd5b8060055f6101000a81548173ffffffffffffffffffffffffffffffffffffffff021916908373ffffffffffffffffffffffffffffffffffffffff1602179055503360065f6101000a81548173ffffffffffffffffffffffffffffffffffffffff021916908373ffffffffffffffffffffffffffffffffffffffff160217905550506200061b565b5f80fd5b5f73ffffffffffffffffffffffffffffffffffffffff82169050919050565b5f620001ef82620001c4565b9050919050565b6200020181620001e3565b81146200020c575f80fd5b50565b5f815190506200021f81620001f6565b92915050565b5f602082840312156200023d576200023c620001c0565b5b5f6200024c848285016200020f565b91505092915050565b5f81519050919050565b7f4e487b71000000000000000000000000000000000000000000000000000000005f52604160045260245ffd5b7f4e487b71000000000000000000000000000000000000000000000000000000005f52602260045260245ffd5b5f6002820490506001821680620002d157607f821691505b602082108103620002e757620002e66200028c565b5b50919050565b5f819050815f5260205f209050919050565b5f6020601f8301049050919050565b5f82821b905092915050565b5f600883026200034b7fffffffffffffffffffffffffffffffffffffffffffffffffffffffffffffffff826200030e565b6200035786836200030e565b95508019841693508086168417925050509392505050565b5f819050919050565b5f819050919050565b5f620003a16200039b62000395846200036f565b62000378565b6200036f565b9050919050565b5f819050919050565b620003bc8362000381565b620003d4620003cb82620003a8565b8484546200031a565b825550505050565b5f90565b620003ea620003dc565b620003f7818484620003b1565b505050565b5b818110156200041e57620004125f82620003e0565b600181019050620003fd565b5050565b601f8211156200046d576200043781620002ed565b6200044284620002ff565b8101602085101562000452578190505b6200046a6200046185620002ff565b830182620003fc565b50505b505050565b5f82821c905092915050565b5f6200048f5f198460080262000472565b1980831691505092915050565b5f620004a983836200047e565b9150826002028217905092915050565b620004c48262000255565b67ffffffffffffffff811115620004e057620004df6200025f565b5b620004ec8254620002b9565b620004f982828562000422565b5f60209050601f8311600181146200052f575f84156200051a578287015190505b6200052685826200049c565b86555062000595565b601f1984166200053f86620002ed565b5f5b82811015620005685784890151825560018201915060208501945060208101905062000541565b8683101562000588578489015162000584601f8916826200047e565b8355505b6001600288020188555050505b505050505050565b5f82825260208201905092915050565b7f496e76616c696420746f6b656e206164647265737300000000000000000000005f82015250565b5f620005e36015836200059d565b9150620005f082620005ad565b602082019050919050565b5f6020820190508181035f8301526200061481620005d5565b9050919050565b61230c80620006295f395ff3fe608060405260043610610129575f3560e01c806395d89b41116100aa578063a9059cbb1161006e578063a9059cbb146103f3578063c2507ac11461042f578063dd62ed3e1461046b578063e0486c8a146104a7578063f7a7e324146104d7578063f979dcd7146104f357610129565b806395d89b411461031d578063966dae0e146103475780639c8f9f23146103715780639d76ea581461038d578063a457c2d7146103b757610129565b806339509351116100f1578063395093511461022357806351c6590a1461025f57806359bf5d391461027b57806370a08231146102a55780638fc7a25d146102e157610129565b806306fdde031461012d578063095ea7b31461015757806318160ddd1461019357806323b872dd146101bd578063313ce567146101f9575b5f80fd5b348015610138575f80fd5b50610141610523565b60405161014e9190611a5c565b60405180910390f35b348015610162575f80fd5b5061017d60048036038101906101789190611b0d565b6105b3565b60405161018a9190611b65565b60405180910390f35b34801561019e575f80fd5b506101a76105d5565b6040516101b49190611b8d565b60405180910390f35b3480156101c8575f80fd5b506101e360048036038101906101de9190611ba6565b6105de565b6040516101f09190611b65565b60405180910390f35b348015610204575f80fd5b5061020d61060c565b60405161021a9190611c11565b60405180910390f35b34801561022e575f80fd5b5061024960048036038101906102449190611b0d565b610614565b6040516102569190611b65565b60405180910390f35b61027960048036038101906102749190611c2a565b61064a565b005b348015610286575f80fd5b5061028f610859565b60405161029c9190611b8d565b60405180910390f35b3480156102b0575f80fd5b506102cb60048036038101906102c69190611c55565b6108f8565b6040516102d89190611b8d565b60405180910390f35b3480156102ec575f80fd5b5061030760048036038101906103029190611c2a565b61093d565b6040516103149190611b8d565b60405180910390f35b348015610328575f80fd5b5061033161099e565b60405161033e9190611a5c565b60405180910390f35b348015610352575f80fd5b5061035b610a2e565b6040516103689190611c8f565b60405180910390f35b61038b60048036038101906103869190611c2a565b610a53565b005b348015610398575f80fd5b506103a1610bce565b6040516103ae9190611c8f565b60405180910390f35b3480156103c2575f80fd5b506103dd60048036038101906103d89190611b0d565b610bf3565b6040516103ea9190611b65565b60405180910390f35b3480156103fe575f80fd5b5061041960048036038101906104149190611b0d565b610c6e565b6040516104269190611b65565b60405180910390f35b34801561043a575f80fd5b5061045560048036038101906104509190611c2a565b610c90565b6040516104629190611b8d565b60405180910390f35b348015610476575f80fd5b50610491600480360381019061048c9190611ca8565b610cf1565b60405161049e9190611b8d565b60405180910390f35b6104c160048036038101906104bc9190611ce6565b610d73565b6040516104ce9190611b8d565b60405180910390f35b6104f160048036038101906104ec9190611d24565b610ebe565b005b61050d60048036038101906105089190611c2a565b6111bd565b60405161051a9190611b8d565b60405180910390f35b60606003805461053290611da1565b80601f016020809104026020016040519081016040528092919081815260200182805461055e90611da1565b80156105a95780601f10610580576101008083540402835291602001916105a9565b820191905f5260205f20905b81548152906001019060200180831161058c57829003601f168201915b5050505050905090565b5f806105bd6112cc565b90506105ca8185856112d3565b600191505092915050565b5f600254905090565b5f806105e86112cc565b90506105f585828561149a565b61060085858561152b565b60019150509392505050565b5f6012905090565b5f8061061e6112cc565b905061063f8185856106308589610cf1565b61063a9190611dfe565b6112d3565b600191505092915050565b5f610653610859565b03610710575f60055f9054906101000a900473ffffffffffffffffffffffffffffffffffffffff1690508073ffffffffffffffffffffffffffffffffffffffff166323b872dd3330856040518463ffffffff1660e01b81526004016106ba93929190611e31565b6020604051808303815f875af11580156106d6573d5f803e3d5ffd5b505050506040513d601f19601f820116820180604052508101906106fa9190611e90565b505f479050610709338261161b565b5050610856565b5f344761071d9190611ebb565b90505f610728610859565b90505f8282346107389190611eee565b6107429190611f5c565b905080841015610787576040517f08c379a000000000000000000000000000000000000000000000000000000000815260040161077e90611fd6565b60405180910390fd5b60055f9054906101000a900473ffffffffffffffffffffffffffffffffffffffff1673ffffffffffffffffffffffffffffffffffffffff166323b872dd3330846040518463ffffffff1660e01b81526004016107e593929190611e31565b6020604051808303815f875af1158015610801573d5f803e3d5ffd5b505050506040513d601f19601f820116820180604052508101906108259190611e90565b505f83346108316105d5565b61083b9190611eee565b6108459190611f5c565b9050610851338261161b565b505050505b50565b5f60055f9054906101000a900473ffffffffffffffffffffffffffffffffffffffff1673ffffffffffffffffffffffffffffffffffffffff166370a08231306040518263ffffffff1660e01b81526004016108b49190611c8f565b602060405180830381865afa1580156108cf573d5f803e3d5ffd5b505050506040513d601f19601f820116820180604052508101906108f39190612008565b905090565b5f805f8373ffffffffffffffffffffffffffffffffffffffff1673ffffffffffffffffffffffffffffffffffffffff1681526020019081526020015f20549050919050565b5f808211610980576040517f08c379a00000000000000000000000000000000000000000000000000000000081526004016109779061207d565b60405180910390fd5b5f610989610859565b905061099683824761169a565b915050919050565b6060600480546109ad90611da1565b80601f01602080910402602001604051908101604052809291908181526020018280546109d990611da1565b8015610a245780601f106109fb57610100808354040283529160200191610a24565b820191905f5260205f20905b815481529060010190602001808311610a0757829003601f168201915b5050505050905090565b60065f9054906101000a900473ffffffffffffffffffffffffffffffffffffffff1681565b5f8111610a95576040517f08c379a0000000000000000000000000000000000000000000000000000000008152600401610a8c906120e5565b60405180910390fd5b5f610a9e6105d5565b8247610aaa9190611eee565b610ab49190611f5c565b90505f610abf6105d5565b83610ac8610859565b610ad29190611eee565b610adc9190611f5c565b9050610ae8338461173a565b3373ffffffffffffffffffffffffffffffffffffffff166108fc8390811502906040515f60405180830381858888f19350505050158015610b2b573d5f803e3d5ffd5b5060055f9054906101000a900473ffffffffffffffffffffffffffffffffffffffff1673ffffffffffffffffffffffffffffffffffffffff1663a9059cbb33836040518363ffffffff1660e01b8152600401610b88929190612103565b6020604051808303815f875af1158015610ba4573d5f803e3d5ffd5b505050506040513d601f19601f82011682018060405250810190610bc89190611e90565b50505050565b60055f9054906101000a900473ffffffffffffffffffffffffffffffffffffffff1681565b5f80610bfd6112cc565b90505f610c0a8286610cf1565b905083811015610c55578481856040517fa60f030c000000000000000000000000000000000000000000000000000000008152600401610c4c9392919061212a565b60405180910390fd5b610c6282868684036112d3565b60019250505092915050565b5f80610c786112cc565b9050610c8581858561152b565b600191505092915050565b5f808211610cd3576040517f08c379a0000000000000000000000000000000000000000000000000000000008152600401610cca9061207d565b60405180910390fd5b5f610cdc610859565b9050610ce983478361169a565b915050919050565b5f60015f8473ffffffffffffffffffffffffffffffffffffffff1673ffffffffffffffffffffffffffffffffffffffff1681526020019081526020015f205f8373ffffffffffffffffffffffffffffffffffffffff1673ffffffffffffffffffffffffffffffffffffffff1681526020019081526020015f2054905092915050565b5f80610d7d610859565b90505f610d8b85834761169a565b905083811015610dd0576040517f08c379a0000000000000000000000000000000000000000000000000000000008152600401610dc7906121a9565b60405180910390fd5b60055f9054906101000a900473ffffffffffffffffffffffffffffffffffffffff1673ffffffffffffffffffffffffffffffffffffffff166323b872dd3330886040518463ffffffff1660e01b8152600401610e2e93929190611e31565b6020604051808303815f875af1158015610e4a573d5f803e3d5ffd5b505050506040513d601f19601f82011682018060405250810190610e6e9190611e90565b503373ffffffffffffffffffffffffffffffffffffffff166108fc8290811502906040515f60405180830381858888f19350505050158015610eb2573d5f803e3d5ffd5b50809250505092915050565b5f60065f9054906101000a900473ffffffffffffffffffffffffffffffffffffffff1673ffffffffffffffffffffffffffffffffffffffff166306f2bf62836040518263ffffffff1660e01b8152600401610f199190611c8f565b6020604051808303815f875af1158015610f35573d5f803e3d5ffd5b505050506040513d601f19601f82011682018060405250810190610f5991906121db565b90503073ffffffffffffffffffffffffffffffffffffffff168173ffffffffffffffffffffffffffffffffffffffff1614158015610fc357505f73ffffffffffffffffffffffffffffffffffffffff168173ffffffffffffffffffffffffffffffffffffffff1614155b611002576040517f08c379a0000000000000000000000000000000000000000000000000000000008152600401610ff990612250565b60405180910390fd5b5f61100b610859565b90505f61101986834761169a565b905060055f9054906101000a900473ffffffffffffffffffffffffffffffffffffffff1673ffffffffffffffffffffffffffffffffffffffff166323b872dd3330896040518463ffffffff1660e01b815260040161107993929190611e31565b6020604051808303815f875af1158015611095573d5f803e3d5ffd5b505050506040513d601f19601f820116820180604052508101906110b99190611e90565b505f8373ffffffffffffffffffffffffffffffffffffffff1663f979dcd783886040518363ffffffff1660e01b81526004016110f59190611b8d565b60206040518083038185885af1158015611111573d5f803e3d5ffd5b50505050506040513d601f19601f820116820180604052508101906111369190612008565b90508473ffffffffffffffffffffffffffffffffffffffff1663a9059cbb33836040518363ffffffff1660e01b8152600401611173929190612103565b6020604051808303815f875af115801561118f573d5f803e3d5ffd5b505050506040513d601f19601f820116820180604052508101906111b39190611e90565b5050505050505050565b5f806111c7610859565b90505f6111e03434476111da9190611ebb565b8461169a565b905083811015611225576040517f08c379a000000000000000000000000000000000000000000000000000000000815260040161121c906121a9565b60405180910390fd5b60055f9054906101000a900473ffffffffffffffffffffffffffffffffffffffff1673ffffffffffffffffffffffffffffffffffffffff1663a9059cbb33836040518363ffffffff1660e01b8152600401611281929190612103565b6020604051808303815f875af115801561129d573d5f803e3d5ffd5b505050506040513d601f19601f820116820180604052508101906112c19190611e90565b508092505050919050565b5f33905090565b5f73ffffffffffffffffffffffffffffffffffffffff168373ffffffffffffffffffffffffffffffffffffffff1603611343575f6040517fe602df0500000000000000000000000000000000000000000000000000000000815260040161133a9190611c8f565b60405180910390fd5b5f73ffffffffffffffffffffffffffffffffffffffff168273ffffffffffffffffffffffffffffffffffffffff16036113b3575f6040517f94280d620000000000000000000000000000000000000000000000000000000081526004016113aa9190611c8f565b60405180910390fd5b8060015f8573ffffffffffffffffffffffffffffffffffffffff1673ffffffffffffffffffffffffffffffffffffffff1681526020019081526020015f205f8473ffffffffffffffffffffffffffffffffffffffff1673ffffffffffffffffffffffffffffffffffffffff1681526020019081526020015f20819055508173ffffffffffffffffffffffffffffffffffffffff168373ffffffffffffffffffffffffffffffffffffffff167f8c5be1e5ebec7d5bd14f71427d1e84f3dd0314c0f7b2291e5b200ac8c7c3b9258360405161148d9190611b8d565b60405180910390a3505050565b5f6114a58484610cf1565b90507fffffffffffffffffffffffffffffffffffffffffffffffffffffffffffffffff81146115255781811015611517578281836040517ffb8f41b200000000000000000000000000000000000000000000000000000000815260040161150e9392919061212a565b60405180910390fd5b61152484848484036112d3565b5b50505050565b5f73ffffffffffffffffffffffffffffffffffffffff168373ffffffffffffffffffffffffffffffffffffffff160361159b575f6040517f96c6fd1e0000000000000000000000000000000000000000000000000000000081526004016115929190611c8f565b60405180910390fd5b5f73ffffffffffffffffffffffffffffffffffffffff168273ffffffffffffffffffffffffffffffffffffffff160361160b575f6040517fec442f050000000000000000000000000000000000000000000000000000000081526004016116029190611c8f565b60405180910390fd5b6116168383836117b9565b505050565b5f73ffffffffffffffffffffffffffffffffffffffff168273ffffffffffffffffffffffffffffffffffffffff160361168b575f6040517fec442f050000000000000000000000000000000000000000000000000000000081526004016116829190611c8f565b60405180910390fd5b6116965f83836117b9565b5050565b5f80831180156116a957505f82115b6116e8576040517f08c379a00000000000000000000000000000000000000000000000000000000081526004016116df906122b8565b60405180910390fd5b5f6063856116f69190611eee565b90505f83826117059190611eee565b90505f826064876117169190611eee565b6117209190611dfe565b9050808261172e9190611f5c565b93505050509392505050565b5f73ffffffffffffffffffffffffffffffffffffffff168273ffffffffffffffffffffffffffffffffffffffff16036117aa575f6040517f96c6fd1e0000000000000000000000000000000000000000000000000000000081526004016117a19190611c8f565b60405180910390fd5b6117b5825f836117b9565b5050565b5f73ffffffffffffffffffffffffffffffffffffffff168373ffffffffffffffffffffffffffffffffffffffff1603611809578060025f8282546117fd9190611dfe565b925050819055506118d7565b5f805f8573ffffffffffffffffffffffffffffffffffffffff1673ffffffffffffffffffffffffffffffffffffffff1681526020019081526020015f2054905081811015611892578381836040517fe450d38c0000000000000000000000000000000000000000000000000000000081526004016118899392919061212a565b60405180910390fd5b8181035f808673ffffffffffffffffffffffffffffffffffffffff1673ffffffffffffffffffffffffffffffffffffffff1681526020019081526020015f2081905550505b5f73ffffffffffffffffffffffffffffffffffffffff168273ffffffffffffffffffffffffffffffffffffffff160361191e578060025f8282540392505081905550611968565b805f808473ffffffffffffffffffffffffffffffffffffffff1673ffffffffffffffffffffffffffffffffffffffff1681526020019081526020015f205f82825401925050819055505b8173ffffffffffffffffffffffffffffffffffffffff168373ffffffffffffffffffffffffffffffffffffffff167fddf252ad1be2c89b69c2b068fc378daa952ba7f163c4a11628f55a4df523b3ef836040516119c59190611b8d565b60405180910390a3505050565b5f81519050919050565b5f82825260208201905092915050565b5f5b83811015611a095780820151818401526020810190506119ee565b5f8484015250505050565b5f601f19601f8301169050919050565b5f611a2e826119d2565b611a3881856119dc565b9350611a488185602086016119ec565b611a5181611a14565b840191505092915050565b5f6020820190508181035f830152611a748184611a24565b905092915050565b5f80fd5b5f73ffffffffffffffffffffffffffffffffffffffff82169050919050565b5f611aa982611a80565b9050919050565b611ab981611a9f565b8114611ac3575f80fd5b50565b5f81359050611ad481611ab0565b92915050565b5f819050919050565b611aec81611ada565b8114611af6575f80fd5b50565b5f81359050611b0781611ae3565b92915050565b5f8060408385031215611b2357611b22611a7c565b5b5f611b3085828601611ac6565b9250506020611b4185828601611af9565b9150509250929050565b5f8115159050919050565b611b5f81611b4b565b82525050565b5f602082019050611b785f830184611b56565b92915050565b611b8781611ada565b82525050565b5f602082019050611ba05f830184611b7e565b92915050565b5f805f60608486031215611bbd57611bbc611a7c565b5b5f611bca86828701611ac6565b9350506020611bdb86828701611ac6565b9250506040611bec86828701611af9565b9150509250925092565b5f60ff82169050919050565b611c0b81611bf6565b82525050565b5f602082019050611c245f830184611c02565b92915050565b5f60208284031215611c3f57611c3e611a7c565b5b5f611c4c84828501611af9565b91505092915050565b5f60208284031215611c6a57611c69611a7c565b5b5f611c7784828501611ac6565b91505092915050565b611c8981611a9f565b82525050565b5f602082019050611ca25f830184611c80565b92915050565b5f8060408385031215611cbe57611cbd611a7c565b5b5f611ccb85828601611ac6565b9250506020611cdc85828601611ac6565b9150509250929050565b5f8060408385031215611cfc57611cfb611a7c565b5b5f611d0985828601611af9565b9250506020611d1a85828601611af9565b9150509250929050565b5f805f60608486031215611d3b57611d3a611a7c565b5b5f611d4886828701611af9565b9350506020611d5986828701611af9565b9250506040611d6a86828701611ac6565b9150509250925092565b7f4e487b71000000000000000000000000000000000000000000000000000000005f52602260045260245ffd5b5f6002820490506001821680611db857607f821691505b602082108103611dcb57611dca611d74565b5b50919050565b7f4e487b71000000000000000000000000000000000000000000000000000000005f52601160045260245ffd5b5f611e0882611ada565b9150611e1383611ada565b9250828201905080821115611e2b57611e2a611dd1565b5b92915050565b5f606082019050611e445f830186611c80565b611e516020830185611c80565b611e5e6040830184611b7e565b949350505050565b611e6f81611b4b565b8114611e79575f80fd5b50565b5f81519050611e8a81611e66565b92915050565b5f60208284031215611ea557611ea4611a7c565b5b5f611eb284828501611e7c565b91505092915050565b5f611ec582611ada565b9150611ed083611ada565b9250828203905081811115611ee857611ee7611dd1565b5b92915050565b5f611ef882611ada565b9150611f0383611ada565b9250828202611f1181611ada565b91508282048414831517611f2857611f27611dd1565b5b5092915050565b7f4e487b71000000000000000000000000000000000000000000000000000000005f52601260045260245ffd5b5f611f6682611ada565b9150611f7183611ada565b925082611f8157611f80611f2f565b5b828204905092915050565b7f496e73756666696369656e7420746f6b656e20616d6f756e74000000000000005f82015250565b5f611fc06019836119dc565b9150611fcb82611f8c565b602082019050919050565b5f6020820190508181035f830152611fed81611fb4565b9050919050565b5f8151905061200281611ae3565b92915050565b5f6020828403121561201d5761201c611a7c565b5b5f61202a84828501611ff4565b91505092915050565b7f496e76616c696420696e707574000000000000000000000000000000000000005f82015250565b5f612067600d836119dc565b915061207282612033565b602082019050919050565b5f6020820190508181035f8301526120948161205b565b9050919050565b7f496e73756666696369656e74206c6971756964697479000000000000000000005f82015250565b5f6120cf6016836119dc565b91506120da8261209b565b602082019050919050565b5f6020820190508181035f8301526120fc816120c3565b9050919050565b5f6040820190506121165f830185611c80565b6121236020830184611b7e565b9392505050565b5f60608201905061213d5f830186611c80565b61214a6020830185611b7e565b6121576040830184611b7e565b949350505050565b7f496e73756666696369656e74206f757470757420616d6f756e740000000000005f82015250565b5f612193601a836119dc565b915061219e8261215f565b602082019050919050565b5f6020820190508181035f8301526121c081612187565b9050919050565b5f815190506121d581611ab0565b92915050565b5f602082840312156121f0576121ef611a7c565b5b5f6121fd848285016121c7565b91505092915050565b7f496e76616c69642065786368616e6765206164647265737300000000000000005f82015250565b5f61223a6018836119dc565b915061224582612206565b602082019050919050565b5f6020820190508181035f8301526122678161222e565b9050919050565b7f496e76616c6964207265736572766500000000000000000000000000000000005f82015250565b5f6122a2600f836119dc565b91506122ad8261226e565b602082019050919050565b5f6020820190508181035f8301526122cf81612296565b905091905056fea26469706673582212207159efda554dd21452c0fe4046cb1fc6d231d596c2ca665823e6e8167de6276064736f6c63430008140033",
					"opcodes": "PUSH1 0x80 PUSH1 0x40 MSTORE CALLVALUE DUP1 ISZERO PUSH3 0x10 JUMPI PUSH0 DUP1 REVERT JUMPDEST POP PUSH1 0x40 MLOAD PUSH3 0x2935 CODESIZE SUB DUP1 PUSH3 0x2935 DUP4 CODECOPY DUP2 DUP2 ADD PUSH1 0x40 MSTORE DUP2 ADD SWAP1 PUSH3 0x36 SWAP2 SWAP1 PUSH3 0x225 JUMP JUMPDEST PUSH1 0x40 MLOAD DUP1 PUSH1 0x40 ADD PUSH1 0x40 MSTORE DUP1 PUSH1 0xB DUP2 MSTORE PUSH1 0x20 ADD PUSH32 0x4D756E69737761702D5631000000000000000000000000000000000000000000 DUP2 MSTORE POP PUSH1 0x40 MLOAD DUP1 PUSH1 0x40 ADD PUSH1 0x40 MSTORE DUP1 PUSH1 0x7 DUP2 MSTORE PUSH1 0x20 ADD PUSH32 0x4D554E492D563100000000000000000000000000000000000000000000000000 DUP2 MSTORE POP DUP2 PUSH1 0x3 SWAP1 DUP2 PUSH3 0xB3 SWAP2 SWAP1 PUSH3 0x4B9 JUMP JUMPDEST POP DUP1 PUSH1 0x4 SWAP1 DUP2 PUSH3 0xC5 SWAP2 SWAP1 PUSH3 0x4B9 JUMP JUMPDEST POP POP POP PUSH0 PUSH20 0xFFFFFFFFFFFFFFFFFFFFFFFFFFFFFFFFFFFFFFFF AND DUP2 PUSH20 0xFFFFFFFFFFFFFFFFFFFFFFFFFFFFFFFFFFFFFFFF AND SUB PUSH3 0x139 JUMPI PUSH1 0x40 MLOAD PUSH32 0x8C379A000000000000000000000000000000000000000000000000000000000 DUP2 MSTORE PUSH1 0x4 ADD PUSH3 0x130 SWAP1 PUSH3 0x5FB JUMP JUMPDEST PUSH1 0x40 MLOAD DUP1 SWAP2 SUB SWAP1 REVERT JUMPDEST DUP1 PUSH1 0x5 PUSH0 PUSH2 0x100 EXP DUP2 SLOAD DUP2 PUSH20 0xFFFFFFFFFFFFFFFFFFFFFFFFFFFFFFFFFFFFFFFF MUL NOT AND SWAP1 DUP4 PUSH20 0xFFFFFFFFFFFFFFFFFFFFFFFFFFFFFFFFFFFFFFFF AND MUL OR SWAP1 SSTORE POP CALLER PUSH1 0x6 PUSH0 PUSH2 0x100 EXP DUP2 SLOAD DUP2 PUSH20 0xFFFFFFFFFFFFFFFFFFFFFFFFFFFFFFFFFFFFFFFF MUL NOT AND SWAP1 DUP4 PUSH20 0xFFFFFFFFFFFFFFFFFFFFFFFFFFFFFFFFFFFFFFFF AND MUL OR SWAP1 SSTORE POP POP PUSH3 0x61B JUMP JUMPDEST PUSH0 DUP1 REVERT JUMPDEST PUSH0 PUSH20 0xFFFFFFFFFFFFFFFFFFFFFFFFFFFFFFFFFFFFFFFF DUP3 AND SWAP1 POP SWAP2 SWAP1 POP JUMP JUMPDEST PUSH0 PUSH3 0x1EF DUP3 PUSH3 0x1C4 JUMP JUMPDEST SWAP1 POP SWAP2 SWAP1 POP JUMP JUMPDEST PUSH3 0x201 DUP2 PUSH3 0x1E3 JUMP JUMPDEST DUP2 EQ PUSH3 0x20C JUMPI PUSH0 DUP1 REVERT JUMPDEST POP JUMP JUMPDEST PUSH0 DUP2 MLOAD SWAP1 POP PUSH3 0x21F DUP2 PUSH3 0x1F6 JUMP JUMPDEST SWAP3 SWAP2 POP POP JUMP JUMPDEST PUSH0 PUSH1 0x20 DUP3 DUP5 SUB SLT ISZERO PUSH3 0x23D JUMPI PUSH3 0x23C PUSH3 0x1C0 JUMP JUMPDEST JUMPDEST PUSH0 PUSH3 0x24C DUP5 DUP3 DUP6 ADD PUSH3 0x20F JUMP JUMPDEST SWAP2 POP POP SWAP3 SWAP2 POP POP JUMP JUMPDEST PUSH0 DUP2 MLOAD SWAP1 POP SWAP2 SWAP1 POP JUMP JUMPDEST PUSH32 0x4E487B7100000000000000000000000000000000000000000000000000000000 PUSH0 MSTORE PUSH1 0x41 PUSH1 0x4 MSTORE PUSH1 0x24 PUSH0 REVERT JUMPDEST PUSH32 0x4E487B7100000000000000000000000000000000000000000000000000000000 PUSH0 MSTORE PUSH1 0x22 PUSH1 0x4 MSTORE PUSH1 0x24 PUSH0 REVERT JUMPDEST PUSH0 PUSH1 0x2 DUP3 DIV SWAP1 POP PUSH1 0x1 DUP3 AND DUP1 PUSH3 0x2D1 JUMPI PUSH1 0x7F DUP3 AND SWAP2 POP JUMPDEST PUSH1 0x20 DUP3 LT DUP2 SUB PUSH3 0x2E7 JUMPI PUSH3 0x2E6 PUSH3 0x28C JUMP JUMPDEST JUMPDEST POP SWAP2 SWAP1 POP JUMP JUMPDEST PUSH0 DUP2 SWAP1 POP DUP2 PUSH0 MSTORE PUSH1 0x20 PUSH0 KECCAK256 SWAP1 POP SWAP2 SWAP1 POP JUMP JUMPDEST PUSH0 PUSH1 0x20 PUSH1 0x1F DUP4 ADD DIV SWAP1 POP SWAP2 SWAP1 POP JUMP JUMPDEST PUSH0 DUP3 DUP3 SHL SWAP1 POP SWAP3 SWAP2 POP POP JUMP JUMPDEST PUSH0 PUSH1 0x8 DUP4 MUL PUSH3 0x34B PUSH32 0xFFFFFFFFFFFFFFFFFFFFFFFFFFFFFFFFFFFFFFFFFFFFFFFFFFFFFFFFFFFFFFFF DUP3 PUSH3 0x30E JUMP JUMPDEST PUSH3 0x357 DUP7 DUP4 PUSH3 0x30E JUMP JUMPDEST SWAP6 POP DUP1 NOT DUP5 AND SWAP4 POP DUP1 DUP7 AND DUP5 OR SWAP3 POP POP POP SWAP4 SWAP3 POP POP POP JUMP JUMPDEST PUSH0 DUP2 SWAP1 POP SWAP2 SWAP1 POP JUMP JUMPDEST PUSH0 DUP2 SWAP1 POP SWAP2 SWAP1 POP JUMP JUMPDEST PUSH0 PUSH3 0x3A1 PUSH3 0x39B PUSH3 0x395 DUP5 PUSH3 0x36F JUMP JUMPDEST PUSH3 0x378 JUMP JUMPDEST PUSH3 0x36F JUMP JUMPDEST SWAP1 POP SWAP2 SWAP1 POP JUMP JUMPDEST PUSH0 DUP2 SWAP1 POP SWAP2 SWAP1 POP JUMP JUMPDEST PUSH3 0x3BC DUP4 PUSH3 0x381 JUMP JUMPDEST PUSH3 0x3D4 PUSH3 0x3CB DUP3 PUSH3 0x3A8 JUMP JUMPDEST DUP5 DUP5 SLOAD PUSH3 0x31A JUMP JUMPDEST DUP3 SSTORE POP POP POP POP JUMP JUMPDEST PUSH0 SWAP1 JUMP JUMPDEST PUSH3 0x3EA PUSH3 0x3DC JUMP JUMPDEST PUSH3 0x3F7 DUP2 DUP5 DUP5 PUSH3 0x3B1 JUMP JUMPDEST POP POP POP JUMP JUMPDEST JUMPDEST DUP2 DUP2 LT ISZERO PUSH3 0x41E JUMPI PUSH3 0x412 PUSH0 DUP3 PUSH3 0x3E0 JUMP JUMPDEST PUSH1 0x1 DUP2 ADD SWAP1 POP PUSH3 0x3FD JUMP JUMPDEST POP POP JUMP JUMPDEST PUSH1 0x1F DUP3 GT ISZERO PUSH3 0x46D JUMPI PUSH3 0x437 DUP2 PUSH3 0x2ED JUMP JUMPDEST PUSH3 0x442 DUP5 PUSH3 0x2FF JUMP JUMPDEST DUP2 ADD PUSH1 0x20 DUP6 LT ISZERO PUSH3 0x452 JUMPI DUP2 SWAP1 POP JUMPDEST PUSH3 0x46A PUSH3 0x461 DUP6 PUSH3 0x2FF JUMP JUMPDEST DUP4 ADD DUP3 PUSH3 0x3FC JUMP JUMPDEST POP POP JUMPDEST POP POP POP JUMP JUMPDEST PUSH0 DUP3 DUP3 SHR SWAP1 POP SWAP3 SWAP2 POP POP JUMP JUMPDEST PUSH0 PUSH3 0x48F PUSH0 NOT DUP5 PUSH1 0x8 MUL PUSH3 0x472 JUMP JUMPDEST NOT DUP1 DUP4 AND SWAP2 POP POP SWAP3 SWAP2 POP POP JUMP JUMPDEST PUSH0 PUSH3 0x4A9 DUP4 DUP4 PUSH3 0x47E JUMP JUMPDEST SWAP2 POP DUP3 PUSH1 0x2 MUL DUP3 OR SWAP1 POP SWAP3 SWAP2 POP POP JUMP JUMPDEST PUSH3 0x4C4 DUP3 PUSH3 0x255 JUMP JUMPDEST PUSH8 0xFFFFFFFFFFFFFFFF DUP2 GT ISZERO PUSH3 0x4E0 JUMPI PUSH3 0x4DF PUSH3 0x25F JUMP JUMPDEST JUMPDEST PUSH3 0x4EC DUP3 SLOAD PUSH3 0x2B9 JUMP JUMPDEST PUSH3 0x4F9 DUP3 DUP3 DUP6 PUSH3 0x422 JUMP JUMPDEST PUSH0 PUSH1 0x20 SWAP1 POP PUSH1 0x1F DUP4 GT PUSH1 0x1 DUP2 EQ PUSH3 0x52F JUMPI PUSH0 DUP5 ISZERO PUSH3 0x51A JUMPI DUP3 DUP8 ADD MLOAD SWAP1 POP JUMPDEST PUSH3 0x526 DUP6 DUP3 PUSH3 0x49C JUMP JUMPDEST DUP7 SSTORE POP PUSH3 0x595 JUMP JUMPDEST PUSH1 0x1F NOT DUP5 AND PUSH3 0x53F DUP7 PUSH3 0x2ED JUMP JUMPDEST PUSH0 JUMPDEST DUP3 DUP2 LT ISZERO PUSH3 0x568 JUMPI DUP5 DUP10 ADD MLOAD DUP3 SSTORE PUSH1 0x1 DUP3 ADD SWAP2 POP PUSH1 0x20 DUP6 ADD SWAP5 POP PUSH1 0x20 DUP2 ADD SWAP1 POP PUSH3 0x541 JUMP JUMPDEST DUP7 DUP4 LT ISZERO PUSH3 0x588 JUMPI DUP5 DUP10 ADD MLOAD PUSH3 0x584 PUSH1 0x1F DUP10 AND DUP3 PUSH3 0x47E JUMP JUMPDEST DUP4 SSTORE POP JUMPDEST PUSH1 0x1 PUSH1 0x2 DUP9 MUL ADD DUP9 SSTORE POP POP POP JUMPDEST POP POP POP POP POP POP JUMP JUMPDEST PUSH0 DUP3 DUP3 MSTORE PUSH1 0x20 DUP3 ADD SWAP1 POP SWAP3 SWAP2 POP POP JUMP JUMPDEST PUSH32 0x496E76616C696420746F6B656E20616464726573730000000000000000000000 PUSH0 DUP3 ADD MSTORE POP JUMP JUMPDEST PUSH0 PUSH3 0x5E3 PUSH1 0x15 DUP4 PUSH3 0x59D JUMP JUMPDEST SWAP2 POP PUSH3 0x5F0 DUP3 PUSH3 0x5AD JUMP JUMPDEST PUSH1 0x20 DUP3 ADD SWAP1 POP SWAP2 SWAP1 POP JUMP JUMPDEST PUSH0 PUSH1 0x20 DUP3 ADD SWAP1 POP DUP2 DUP2 SUB PUSH0 DUP4 ADD MSTORE PUSH3 0x614 DUP2 PUSH3 0x5D5 JUMP JUMPDEST SWAP1 POP SWAP2 SWAP1 POP JUMP JUMPDEST PUSH2 0x230C DUP1 PUSH3 0x629 PUSH0 CODECOPY PUSH0 RETURN INVALID PUSH1 0x80 PUSH1 0x40 MSTORE PUSH1 0x4 CALLDATASIZE LT PUSH2 0x129 JUMPI PUSH0 CALLDATALOAD PUSH1 0xE0 SHR DUP1 PUSH4 0x95D89B41 GT PUSH2 0xAA JUMPI DUP1 PUSH4 0xA9059CBB GT PUSH2 0x6E JUMPI DUP1 PUSH4 0xA9059CBB EQ PUSH2 0x3F3 JUMPI DUP1 PUSH4 0xC2507AC1 EQ PUSH2 0x42F JUMPI DUP1 PUSH4 0xDD62ED3E EQ PUSH2 0x46B JUMPI DUP1 PUSH4 0xE0486C8A EQ PUSH2 0x4A7 JUMPI DUP1 PUSH4 0xF7A7E324 EQ PUSH2 0x4D7 JUMPI DUP1 PUSH4 0xF979DCD7 EQ PUSH2 0x4F3 JUMPI PUSH2 0x129 JUMP JUMPDEST DUP1 PUSH4 0x95D89B41 EQ PUSH2 0x31D JUMPI DUP1 PUSH4 0x966DAE0E EQ PUSH2 0x347 JUMPI DUP1 PUSH4 0x9C8F9F23 EQ PUSH2 0x371 JUMPI DUP1 PUSH4 0x9D76EA58 EQ PUSH2 0x38D JUMPI DUP1 PUSH4 0xA457C2D7 EQ PUSH2 0x3B7 JUMPI PUSH2 0x129 JUMP JUMPDEST DUP1 PUSH4 0x39509351 GT PUSH2 0xF1 JUMPI DUP1 PUSH4 0x39509351 EQ PUSH2 0x223 JUMPI DUP1 PUSH4 0x51C6590A EQ PUSH2 0x25F JUMPI DUP1 PUSH4 0x59BF5D39 EQ PUSH2 0x27B JUMPI DUP1 PUSH4 0x70A08231 EQ PUSH2 0x2A5 JUMPI DUP1 PUSH4 0x8FC7A25D EQ PUSH2 0x2E1 JUMPI PUSH2 0x129 JUMP JUMPDEST DUP1 PUSH4 0x6FDDE03 EQ PUSH2 0x12D JUMPI DUP1 PUSH4 0x95EA7B3 EQ PUSH2 0x157 JUMPI DUP1 PUSH4 0x18160DDD EQ PUSH2 0x193 JUMPI DUP1 PUSH4 0x23B872DD EQ PUSH2 0x1BD JUMPI DUP1 PUSH4 0x313CE567 EQ PUSH2 0x1F9 JUMPI JUMPDEST PUSH0 DUP1 REVERT JUMPDEST CALLVALUE DUP1 ISZERO PUSH2 0x138 JUMPI PUSH0 DUP1 REVERT JUMPDEST POP PUSH2 0x141 PUSH2 0x523 JUMP JUMPDEST PUSH1 0x40 MLOAD PUSH2 0x14E SWAP2 SWAP1 PUSH2 0x1A5C JUMP JUMPDEST PUSH1 0x40 MLOAD DUP1 SWAP2 SUB SWAP1 RETURN JUMPDEST CALLVALUE DUP1 ISZERO PUSH2 0x162 JUMPI PUSH0 DUP1 REVERT JUMPDEST POP PUSH2 0x17D PUSH1 0x4 DUP1 CALLDATASIZE SUB DUP2 ADD SWAP1 PUSH2 0x178 SWAP2 SWAP1 PUSH2 0x1B0D JUMP JUMPDEST PUSH2 0x5B3 JUMP JUMPDEST PUSH1 0x40 MLOAD PUSH2 0x18A SWAP2 SWAP1 PUSH2 0x1B65 JUMP JUMPDEST PUSH1 0x40 MLOAD DUP1 SWAP2 SUB SWAP1 RETURN JUMPDEST CALLVALUE DUP1 ISZERO PUSH2 0x19E JUMPI PUSH0 DUP1 REVERT JUMPDEST POP PUSH2 0x1A7 PUSH2 0x5D5 JUMP JUMPDEST PUSH1 0x40 MLOAD PUSH2 0x1B4 SWAP2 SWAP1 PUSH2 0x1B8D JUMP JUMPDEST PUSH1 0x40 MLOAD DUP1 SWAP2 SUB SWAP1 RETURN JUMPDEST CALLVALUE DUP1 ISZERO PUSH2 0x1C8 JUMPI PUSH0 DUP1 REVERT JUMPDEST POP PUSH2 0x1E3 PUSH1 0x4 DUP1 CALLDATASIZE SUB DUP2 ADD SWAP1 PUSH2 0x1DE SWAP2 SWAP1 PUSH2 0x1BA6 JUMP JUMPDEST PUSH2 0x5DE JUMP JUMPDEST PUSH1 0x40 MLOAD PUSH2 0x1F0 SWAP2 SWAP1 PUSH2 0x1B65 JUMP JUMPDEST PUSH1 0x40 MLOAD DUP1 SWAP2 SUB SWAP1 RETURN JUMPDEST CALLVALUE DUP1 ISZERO PUSH2 0x204 JUMPI PUSH0 DUP1 REVERT JUMPDEST POP PUSH2 0x20D PUSH2 0x60C JUMP JUMPDEST PUSH1 0x40 MLOAD PUSH2 0x21A SWAP2 SWAP1 PUSH2 0x1C11 JUMP JUMPDEST PUSH1 0x40 MLOAD DUP1 SWAP2 SUB SWAP1 RETURN JUMPDEST CALLVALUE DUP1 ISZERO PUSH2 0x22E JUMPI PUSH0 DUP1 REVERT JUMPDEST POP PUSH2 0x249 PUSH1 0x4 DUP1 CALLDATASIZE SUB DUP2 ADD SWAP1 PUSH2 0x244 SWAP2 SWAP1 PUSH2 0x1B0D JUMP JUMPDEST PUSH2 0x614 JUMP JUMPDEST PUSH1 0x40 MLOAD PUSH2 0x256 SWAP2 SWAP1 PUSH2 0x1B65 JUMP JUMPDEST PUSH1 0x40 MLOAD DUP1 SWAP2 SUB SWAP1 RETURN JUMPDEST PUSH2 0x279 PUSH1 0x4 DUP1 CALLDATASIZE SUB DUP2 ADD SWAP1 PUSH2 0x274 SWAP2 SWAP1 PUSH2 0x1C2A JUMP JUMPDEST PUSH2 0x64A JUMP JUMPDEST STOP JUMPDEST CALLVALUE DUP1 ISZERO PUSH2 0x286 JUMPI PUSH0 DUP1 REVERT JUMPDEST POP PUSH2 0x28F PUSH2 0x859 JUMP JUMPDEST PUSH1 0x40 MLOAD PUSH2 0x29C SWAP2 SWAP1 PUSH2 0x1B8D JUMP JUMPDEST PUSH1 0x40 MLOAD DUP1 SWAP2 SUB SWAP1 RETURN JUMPDEST CALLVALUE DUP1 ISZERO PUSH2 0x2B0 JUMPI PUSH0 DUP1 REVERT JUMPDEST POP PUSH2 0x2CB PUSH1 0x4 DUP1 CALLDATASIZE SUB DUP2 ADD SWAP1 PUSH2 0x2C6 SWAP2 SWAP1 PUSH2 0x1C55 JUMP JUMPDEST PUSH2 0x8F8 JUMP JUMPDEST PUSH1 0x40 MLOAD PUSH2 0x2D8 SWAP2 SWAP1 PUSH2 0x1B8D JUMP JUMPDEST PUSH1 0x40 MLOAD DUP1 SWAP2 SUB SWAP1 RETURN JUMPDEST CALLVALUE DUP1 ISZERO PUSH2 0x2EC JUMPI PUSH0 DUP1 REVERT JUMPDEST POP PUSH2 0x307 PUSH1 0x4 DUP1 CALLDATASIZE SUB DUP2 ADD SWAP1 PUSH2 0x302 SWAP2 SWAP1 PUSH2 0x1C2A JUMP JUMPDEST PUSH2 0x93D JUMP JUMPDEST PUSH1 0x40 MLOAD PUSH2 0x314 SWAP2 SWAP1 PUSH2 0x1B8D JUMP JUMPDEST PUSH1 0x40 MLOAD DUP1 SWAP2 SUB SWAP1 RETURN JUMPDEST CALLVALUE DUP1 ISZERO PUSH2 0x328 JUMPI PUSH0 DUP1 REVERT JUMPDEST POP PUSH2 0x331 PUSH2 0x99E JUMP JUMPDEST PUSH1 0x40 MLOAD PUSH2 0x33E SWAP2 SWAP1 PUSH2 0x1A5C JUMP JUMPDEST PUSH1 0x40 MLOAD DUP1 SWAP2 SUB SWAP1 RETURN JUMPDEST CALLVALUE DUP1 ISZERO PUSH2 0x352 JUMPI PUSH0 DUP1 REVERT JUMPDEST POP PUSH2 0x35B PUSH2 0xA2E JUMP JUMPDEST PUSH1 0x40 MLOAD PUSH2 0x368 SWAP2 SWAP1 PUSH2 0x1C8F JUMP JUMPDEST PUSH1 0x40 MLOAD DUP1 SWAP2 SUB SWAP1 RETURN JUMPDEST PUSH2 0x38B PUSH1 0x4 DUP1 CALLDATASIZE SUB DUP2 ADD SWAP1 PUSH2 0x386 SWAP2 SWAP1 PUSH2 0x1C2A JUMP JUMPDEST PUSH2 0xA53 JUMP JUMPDEST STOP JUMPDEST CALLVALUE DUP1 ISZERO PUSH2 0x398 JUMPI PUSH0 DUP1 REVERT JUMPDEST POP PUSH2 0x3A1 PUSH2 0xBCE JUMP JUMPDEST PUSH1 0x40 MLOAD PUSH2 0x3AE SWAP2 SWAP1 PUSH2 0x1C8F JUMP JUMPDEST PUSH1 0x40 MLOAD DUP1 SWAP2 SUB SWAP1 RETURN JUMPDEST CALLVALUE DUP1 ISZERO PUSH2 0x3C2 JUMPI PUSH0 DUP1 REVERT JUMPDEST POP PUSH2 0x3DD PUSH1 0x4 DUP1 CALLDATASIZE SUB DUP2 ADD SWAP1 PUSH2 0x3D8 SWAP2 SWAP1 PUSH2 0x1B0D JUMP JUMPDEST PUSH2 0xBF3 JUMP JUMPDEST PUSH1 0x40 MLOAD PUSH2 0x3EA SWAP2 SWAP1 PUSH2 0x1B65 JUMP JUMPDEST PUSH1 0x40 MLOAD DUP1 SWAP2 SUB SWAP1 RETURN JUMPDEST CALLVALUE DUP1 ISZERO PUSH2 0x3FE JUMPI PUSH0 DUP1 REVERT JUMPDEST POP PUSH2 0x419 PUSH1 0x4 DUP1 CALLDATASIZE SUB DUP2 ADD SWAP1 PUSH2 0x414 SWAP2 SWAP1 PUSH2 0x1B0D JUMP JUMPDEST PUSH2 0xC6E JUMP JUMPDEST PUSH1 0x40 MLOAD PUSH2 0x426 SWAP2 SWAP1 PUSH2 0x1B65 JUMP JUMPDEST PUSH1 0x40 MLOAD DUP1 SWAP2 SUB SWAP1 RETURN JUMPDEST CALLVALUE DUP1 ISZERO PUSH2 0x43A JUMPI PUSH0 DUP1 REVERT JUMPDEST POP PUSH2 0x455 PUSH1 0x4 DUP1 CALLDATASIZE SUB DUP2 ADD SWAP1 PUSH2 0x450 SWAP2 SWAP1 PUSH2 0x1C2A JUMP JUMPDEST PUSH2 0xC90 JUMP JUMPDEST PUSH1 0x40 MLOAD PUSH2 0x462 SWAP2 SWAP1 PUSH2 0x1B8D JUMP JUMPDEST PUSH1 0x40 MLOAD DUP1 SWAP2 SUB SWAP1 RETURN JUMPDEST CALLVALUE DUP1 ISZERO PUSH2 0x476 JUMPI PUSH0 DUP1 REVERT JUMPDEST POP PUSH2 0x491 PUSH1 0x4 DUP1 CALLDATASIZE SUB DUP2 ADD SWAP1 PUSH2 0x48C SWAP2 SWAP1 PUSH2 0x1CA8 JUMP JUMPDEST PUSH2 0xCF1 JUMP JUMPDEST PUSH1 0x40 MLOAD PUSH2 0x49E SWAP2 SWAP1 PUSH2 0x1B8D JUMP JUMPDEST PUSH1 0x40 MLOAD DUP1 SWAP2 SUB SWAP1 RETURN JUMPDEST PUSH2 0x4C1 PUSH1 0x4 DUP1 CALLDATASIZE SUB DUP2 ADD SWAP1 PUSH2 0x4BC SWAP2 SWAP1 PUSH2 0x1CE6 JUMP JUMPDEST PUSH2 0xD73 JUMP JUMPDEST PUSH1 0x40 MLOAD PUSH2 0x4CE SWAP2 SWAP1 PUSH2 0x1B8D JUMP JUMPDEST PUSH1 0x40 MLOAD DUP1 SWAP2 SUB SWAP1 RETURN JUMPDEST PUSH2 0x4F1 PUSH1 0x4 DUP1 CALLDATASIZE SUB DUP2 ADD SWAP1 PUSH2 0x4EC SWAP2 SWAP1 PUSH2 0x1D24 JUMP JUMPDEST PUSH2 0xEBE JUMP JUMPDEST STOP JUMPDEST PUSH2 0x50D PUSH1 0x4 DUP1 CALLDATASIZE SUB DUP2 ADD SWAP1 PUSH2 0x508 SWAP2 SWAP1 PUSH2 0x1C2A JUMP JUMPDEST PUSH2 0x11BD JUMP JUMPDEST PUSH1 0x40 MLOAD PUSH2 0x51A SWAP2 SWAP1 PUSH2 0x1B8D JUMP JUMPDEST PUSH1 0x40 MLOAD DUP1 SWAP2 SUB SWAP1 RETURN JUMPDEST PUSH1 0x60 PUSH1 0x3 DUP1 SLOAD PUSH2 0x532 SWAP1 PUSH2 0x1DA1 JUMP JUMPDEST DUP1 PUSH1 0x1F ADD PUSH1 0x20 DUP1 SWAP2 DIV MUL PUSH1 0x20 ADD PUSH1 0x40 MLOAD SWAP1 DUP2 ADD PUSH1 0x40 MSTORE DUP1 SWAP3 SWAP2 SWAP1 DUP2 DUP2 MSTORE PUSH1 0x20 ADD DUP3 DUP1 SLOAD PUSH2 0x55E SWAP1 PUSH2 0x1DA1 JUMP JUMPDEST DUP1 ISZERO PUSH2 0x5A9 JUMPI DUP1 PUSH1 0x1F LT PUSH2 0x580 JUMPI PUSH2 0x100 DUP1 DUP4 SLOAD DIV MUL DUP4 MSTORE SWAP2 PUSH1 0x20 ADD SWAP2 PUSH2 0x5A9 JUMP JUMPDEST DUP3 ADD SWAP2 SWAP1 PUSH0 MSTORE PUSH1 0x20 PUSH0 KECCAK256 SWAP1 JUMPDEST DUP2 SLOAD DUP2 MSTORE SWAP1 PUSH1 0x1 ADD SWAP1 PUSH1 0x20 ADD DUP1 DUP4 GT PUSH2 0x58C JUMPI DUP3 SWAP1 SUB PUSH1 0x1F AND DUP3 ADD SWAP2 JUMPDEST POP POP POP POP POP SWAP1 POP SWAP1 JUMP JUMPDEST PUSH0 DUP1 PUSH2 0x5BD PUSH2 0x12CC JUMP JUMPDEST SWAP1 POP PUSH2 0x5CA DUP2 DUP6 DUP6 PUSH2 0x12D3 JUMP JUMPDEST PUSH1 0x1 SWAP2 POP POP SWAP3 SWAP2 POP POP JUMP JUMPDEST PUSH0 PUSH1 0x2 SLOAD SWAP1 POP SWAP1 JUMP JUMPDEST PUSH0 DUP1 PUSH2 0x5E8 PUSH2 0x12CC JUMP JUMPDEST SWAP1 POP PUSH2 0x5F5 DUP6 DUP3 DUP6 PUSH2 0x149A JUMP JUMPDEST PUSH2 0x600 DUP6 DUP6 DUP6 PUSH2 0x152B JUMP JUMPDEST PUSH1 0x1 SWAP2 POP POP SWAP4 SWAP3 POP POP POP JUMP JUMPDEST PUSH0 PUSH1 0x12 SWAP1 POP SWAP1 JUMP JUMPDEST PUSH0 DUP1 PUSH2 0x61E PUSH2 0x12CC JUMP JUMPDEST SWAP1 POP PUSH2 0x63F DUP2 DUP6 DUP6 PUSH2 0x630 DUP6 DUP10 PUSH2 0xCF1 JUMP JUMPDEST PUSH2 0x63A SWAP2 SWAP1 PUSH2 0x1DFE JUMP JUMPDEST PUSH2 0x12D3 JUMP JUMPDEST PUSH1 0x1 SWAP2 POP POP SWAP3 SWAP2 POP POP JUMP JUMPDEST PUSH0 PUSH2 0x653 PUSH2 0x859 JUMP JUMPDEST SUB PUSH2 0x710 JUMPI PUSH0 PUSH1 0x5 PUSH0 SWAP1 SLOAD SWAP1 PUSH2 0x100 EXP SWAP1 DIV PUSH20 0xFFFFFFFFFFFFFFFFFFFFFFFFFFFFFFFFFFFFFFFF AND SWAP1 POP DUP1 PUSH20 0xFFFFFFFFFFFFFFFFFFFFFFFFFFFFFFFFFFFFFFFF AND PUSH4 0x23B872DD CALLER ADDRESS DUP6 PUSH1 0x40 MLOAD DUP5 PUSH4 0xFFFFFFFF AND PUSH1 0xE0 SHL DUP2 MSTORE PUSH1 0x4 ADD PUSH2 0x6BA SWAP4 SWAP3 SWAP2 SWAP1 PUSH2 0x1E31 JUMP JUMPDEST PUSH1 0x20 PUSH1 0x40 MLOAD DUP1 DUP4 SUB DUP2 PUSH0 DUP8 GAS CALL ISZERO DUP1 ISZERO PUSH2 0x6D6 JUMPI RETURNDATASIZE PUSH0 DUP1 RETURNDATACOPY RETURNDATASIZE PUSH0 REVERT JUMPDEST POP POP POP POP PUSH1 0x40 MLOAD RETURNDATASIZE PUSH1 0x1F NOT PUSH1 0x1F DUP3 ADD AND DUP3 ADD DUP1 PUSH1 0x40 MSTORE POP DUP2 ADD SWAP1 PUSH2 0x6FA SWAP2 SWAP1 PUSH2 0x1E90 JUMP JUMPDEST POP PUSH0 SELFBALANCE SWAP1 POP PUSH2 0x709 CALLER DUP3 PUSH2 0x161B JUMP JUMPDEST POP POP PUSH2 0x856 JUMP JUMPDEST PUSH0 CALLVALUE SELFBALANCE PUSH2 0x71D SWAP2 SWAP1 PUSH2 0x1EBB JUMP JUMPDEST SWAP1 POP PUSH0 PUSH2 0x728 PUSH2 0x859 JUMP JUMPDEST SWAP1 POP PUSH0 DUP3 DUP3 CALLVALUE PUSH2 0x738 SWAP2 SWAP1 PUSH2 0x1EEE JUMP JUMPDEST PUSH2 0x742 SWAP2 SWAP1 PUSH2 0x1F5C JUMP JUMPDEST SWAP1 POP DUP1 DUP5 LT ISZERO PUSH2 0x787 JUMPI PUSH1 0x40 MLOAD PUSH32 0x8C379A000000000000000000000000000000000000000000000000000000000 DUP2 MSTORE PUSH1 0x4 ADD PUSH2 0x77E SWAP1 PUSH2 0x1FD6 JUMP JUMPDEST PUSH1 0x40 MLOAD DUP1 SWAP2 SUB SWAP1 REVERT JUMPDEST PUSH1 0x5 PUSH0 SWAP1 SLOAD SWAP1 PUSH2 0x100 EXP SWAP1 DIV PUSH20 0xFFFFFFFFFFFFFFFFFFFFFFFFFFFFFFFFFFFFFFFF AND PUSH20 0xFFFFFFFFFFFFFFFFFFFFFFFFFFFFFFFFFFFFFFFF AND PUSH4 0x23B872DD CALLER ADDRESS DUP5 PUSH1 0x40 MLOAD DUP5 PUSH4 0xFFFFFFFF AND PUSH1 0xE0 SHL DUP2 MSTORE PUSH1 0x4 ADD PUSH2 0x7E5 SWAP4 SWAP3 SWAP2 SWAP1 PUSH2 0x1E31 JUMP JUMPDEST PUSH1 0x20 PUSH1 0x40 MLOAD DUP1 DUP4 SUB DUP2 PUSH0 DUP8 GAS CALL ISZERO DUP1 ISZERO PUSH2 0x801 JUMPI RETURNDATASIZE PUSH0 DUP1 RETURNDATACOPY RETURNDATASIZE PUSH0 REVERT JUMPDEST POP POP POP POP PUSH1 0x40 MLOAD RETURNDATASIZE PUSH1 0x1F NOT PUSH1 0x1F DUP3 ADD AND DUP3 ADD DUP1 PUSH1 0x40 MSTORE POP DUP2 ADD SWAP1 PUSH2 0x825 SWAP2 SWAP1 PUSH2 0x1E90 JUMP JUMPDEST POP PUSH0 DUP4 CALLVALUE PUSH2 0x831 PUSH2 0x5D5 JUMP JUMPDEST PUSH2 0x83B SWAP2 SWAP1 PUSH2 0x1EEE JUMP JUMPDEST PUSH2 0x845 SWAP2 SWAP1 PUSH2 0x1F5C JUMP JUMPDEST SWAP1 POP PUSH2 0x851 CALLER DUP3 PUSH2 0x161B JUMP JUMPDEST POP POP POP POP JUMPDEST POP JUMP JUMPDEST PUSH0 PUSH1 0x5 PUSH0 SWAP1 SLOAD SWAP1 PUSH2 0x100 EXP SWAP1 DIV PUSH20 0xFFFFFFFFFFFFFFFFFFFFFFFFFFFFFFFFFFFFFFFF AND PUSH20 0xFFFFFFFFFFFFFFFFFFFFFFFFFFFFFFFFFFFFFFFF AND PUSH4 0x70A08231 ADDRESS PUSH1 0x40 MLOAD DUP3 PUSH4 0xFFFFFFFF AND PUSH1 0xE0 SHL DUP2 MSTORE PUSH1 0x4 ADD PUSH2 0x8B4 SWAP2 SWAP1 PUSH2 0x1C8F JUMP JUMPDEST PUSH1 0x20 PUSH1 0x40 MLOAD DUP1 DUP4 SUB DUP2 DUP7 GAS STATICCALL ISZERO DUP1 ISZERO PUSH2 0x8CF JUMPI RETURNDATASIZE PUSH0 DUP1 RETURNDATACOPY RETURNDATASIZE PUSH0 REVERT JUMPDEST POP POP POP POP PUSH1 0x40 MLOAD RETURNDATASIZE PUSH1 0x1F NOT PUSH1 0x1F DUP3 ADD AND DUP3 ADD DUP1 PUSH1 0x40 MSTORE POP DUP2 ADD SWAP1 PUSH2 0x8F3 SWAP2 SWAP1 PUSH2 0x2008 JUMP JUMPDEST SWAP1 POP SWAP1 JUMP JUMPDEST PUSH0 DUP1 PUSH0 DUP4 PUSH20 0xFFFFFFFFFFFFFFFFFFFFFFFFFFFFFFFFFFFFFFFF AND PUSH20 0xFFFFFFFFFFFFFFFFFFFFFFFFFFFFFFFFFFFFFFFF AND DUP2 MSTORE PUSH1 0x20 ADD SWAP1 DUP2 MSTORE PUSH1 0x20 ADD PUSH0 KECCAK256 SLOAD SWAP1 POP SWAP2 SWAP1 POP JUMP JUMPDEST PUSH0 DUP1 DUP3 GT PUSH2 0x980 JUMPI PUSH1 0x40 MLOAD PUSH32 0x8C379A000000000000000000000000000000000000000000000000000000000 DUP2 MSTORE PUSH1 0x4 ADD PUSH2 0x977 SWAP1 PUSH2 0x207D JUMP JUMPDEST PUSH1 0x40 MLOAD DUP1 SWAP2 SUB SWAP1 REVERT JUMPDEST PUSH0 PUSH2 0x989 PUSH2 0x859 JUMP JUMPDEST SWAP1 POP PUSH2 0x996 DUP4 DUP3 SELFBALANCE PUSH2 0x169A JUMP JUMPDEST SWAP2 POP POP SWAP2 SWAP1 POP JUMP JUMPDEST PUSH1 0x60 PUSH1 0x4 DUP1 SLOAD PUSH2 0x9AD SWAP1 PUSH2 0x1DA1 JUMP JUMPDEST DUP1 PUSH1 0x1F ADD PUSH1 0x20 DUP1 SWAP2 DIV MUL PUSH1 0x20 ADD PUSH1 0x40 MLOAD SWAP1 DUP2 ADD PUSH1 0x40 MSTORE DUP1 SWAP3 SWAP2 SWAP1 DUP2 DUP2 MSTORE PUSH1 0x20 ADD DUP3 DUP1 SLOAD PUSH2 0x9D9 SWAP1 PUSH2 0x1DA1 JUMP JUMPDEST DUP1 ISZERO PUSH2 0xA24 JUMPI DUP1 PUSH1 0x1F LT PUSH2 0x9FB JUMPI PUSH2 0x100 DUP1 DUP4 SLOAD DIV MUL DUP4 MSTORE SWAP2 PUSH1 0x20 ADD SWAP2 PUSH2 0xA24 JUMP JUMPDEST DUP3 ADD SWAP2 SWAP1 PUSH0 MSTORE PUSH1 0x20 PUSH0 KECCAK256 SWAP1 JUMPDEST DUP2 SLOAD DUP2 MSTORE SWAP1 PUSH1 0x1 ADD SWAP1 PUSH1 0x20 ADD DUP1 DUP4 GT PUSH2 0xA07 JUMPI DUP3 SWAP1 SUB PUSH1 0x1F AND DUP3 ADD SWAP2 JUMPDEST POP POP POP POP POP SWAP1 POP SWAP1 JUMP JUMPDEST PUSH1 0x6 PUSH0 SWAP1 SLOAD SWAP1 PUSH2 0x100 EXP SWAP1 DIV PUSH20 0xFFFFFFFFFFFFFFFFFFFFFFFFFFFFFFFFFFFFFFFF AND DUP2 JUMP JUMPDEST PUSH0 DUP2 GT PUSH2 0xA95 JUMPI PUSH1 0x40 MLOAD PUSH32 0x8C379A000000000000000000000000000000000000000000000000000000000 DUP2 MSTORE PUSH1 0x4 ADD PUSH2 0xA8C SWAP1 PUSH2 0x20E5 JUMP JUMPDEST PUSH1 0x40 MLOAD DUP1 SWAP2 SUB SWAP1 REVERT JUMPDEST PUSH0 PUSH2 0xA9E PUSH2 0x5D5 JUMP JUMPDEST DUP3 SELFBALANCE PUSH2 0xAAA SWAP2 SWAP1 PUSH2 0x1EEE JUMP JUMPDEST PUSH2 0xAB4 SWAP2 SWAP1 PUSH2 0x1F5C JUMP JUMPDEST SWAP1 POP PUSH0 PUSH2 0xABF PUSH2 0x5D5 JUMP JUMPDEST DUP4 PUSH2 0xAC8 PUSH2 0x859 JUMP JUMPDEST PUSH2 0xAD2 SWAP2 SWAP1 PUSH2 0x1EEE JUMP JUMPDEST PUSH2 0xADC SWAP2 SWAP1 PUSH2 0x1F5C JUMP JUMPDEST SWAP1 POP PUSH2 0xAE8 CALLER DUP5 PUSH2 0x173A JUMP JUMPDEST CALLER PUSH20 0xFFFFFFFFFFFFFFFFFFFFFFFFFFFFFFFFFFFFFFFF AND PUSH2 0x8FC DUP4 SWAP1 DUP2 ISZERO MUL SWAP1 PUSH1 0x40 MLOAD PUSH0 PUSH1 0x40 MLOAD DUP1 DUP4 SUB DUP2 DUP6 DUP9 DUP9 CALL SWAP4 POP POP POP POP ISZERO DUP1 ISZERO PUSH2 0xB2B JUMPI RETURNDATASIZE PUSH0 DUP1 RETURNDATACOPY RETURNDATASIZE PUSH0 REVERT JUMPDEST POP PUSH1 0x5 PUSH0 SWAP1 SLOAD SWAP1 PUSH2 0x100 EXP SWAP1 DIV PUSH20 0xFFFFFFFFFFFFFFFFFFFFFFFFFFFFFFFFFFFFFFFF AND PUSH20 0xFFFFFFFFFFFFFFFFFFFFFFFFFFFFFFFFFFFFFFFF AND PUSH4 0xA9059CBB CALLER DUP4 PUSH1 0x40 MLOAD DUP4 PUSH4 0xFFFFFFFF AND PUSH1 0xE0 SHL DUP2 MSTORE PUSH1 0x4 ADD PUSH2 0xB88 SWAP3 SWAP2 SWAP1 PUSH2 0x2103 JUMP JUMPDEST PUSH1 0x20 PUSH1 0x40 MLOAD DUP1 DUP4 SUB DUP2 PUSH0 DUP8 GAS CALL ISZERO DUP1 ISZERO PUSH2 0xBA4 JUMPI RETURNDATASIZE PUSH0 DUP1 RETURNDATACOPY RETURNDATASIZE PUSH0 REVERT JUMPDEST POP POP POP POP PUSH1 0x40 MLOAD RETURNDATASIZE PUSH1 0x1F NOT PUSH1 0x1F DUP3 ADD AND DUP3 ADD DUP1 PUSH1 0x40 MSTORE POP DUP2 ADD SWAP1 PUSH2 0xBC8 SWAP2 SWAP1 PUSH2 0x1E90 JUMP JUMPDEST POP POP POP POP JUMP JUMPDEST PUSH1 0x5 PUSH0 SWAP1 SLOAD SWAP1 PUSH2 0x100 EXP SWAP1 DIV PUSH20 0xFFFFFFFFFFFFFFFFFFFFFFFFFFFFFFFFFFFFFFFF AND DUP2 JUMP JUMPDEST PUSH0 DUP1 PUSH2 0xBFD PUSH2 0x12CC JUMP JUMPDEST SWAP1 POP PUSH0 PUSH2 0xC0A DUP3 DUP7 PUSH2 0xCF1 JUMP JUMPDEST SWAP1 POP DUP4 DUP2 LT ISZERO PUSH2 0xC55 JUMPI DUP5 DUP2 DUP6 PUSH1 0x40 MLOAD PUSH32 0xA60F030C00000000000000000000000000000000000000000000000000000000 DUP2 MSTORE PUSH1 0x4 ADD PUSH2 0xC4C SWAP4 SWAP3 SWAP2 SWAP1 PUSH2 0x212A JUMP JUMPDEST PUSH1 0x40 MLOAD DUP1 SWAP2 SUB SWAP1 REVERT JUMPDEST PUSH2 0xC62 DUP3 DUP7 DUP7 DUP5 SUB PUSH2 0x12D3 JUMP JUMPDEST PUSH1 0x1 SWAP3 POP POP POP SWAP3 SWAP2 POP POP JUMP JUMPDEST PUSH0 DUP1 PUSH2 0xC78 PUSH2 0x12CC JUMP JUMPDEST SWAP1 POP PUSH2 0xC85 DUP2 DUP6 DUP6 PUSH2 0x152B JUMP JUMPDEST PUSH1 0x1 SWAP2 POP POP SWAP3 SWAP2 POP POP JUMP JUMPDEST PUSH0 DUP1 DUP3 GT PUSH2 0xCD3 JUMPI PUSH1 0x40 MLOAD PUSH32 0x8C379A000000000000000000000000000000000000000000000000000000000 DUP2 MSTORE PUSH1 0x4 ADD PUSH2 0xCCA SWAP1 PUSH2 0x207D JUMP JUMPDEST PUSH1 0x40 MLOAD DUP1 SWAP2 SUB SWAP1 REVERT JUMPDEST PUSH0 PUSH2 0xCDC PUSH2 0x859 JUMP JUMPDEST SWAP1 POP PUSH2 0xCE9 DUP4 SELFBALANCE DUP4 PUSH2 0x169A JUMP JUMPDEST SWAP2 POP POP SWAP2 SWAP1 POP JUMP JUMPDEST PUSH0 PUSH1 0x1 PUSH0 DUP5 PUSH20 0xFFFFFFFFFFFFFFFFFFFFFFFFFFFFFFFFFFFFFFFF AND PUSH20 0xFFFFFFFFFFFFFFFFFFFFFFFFFFFFFFFFFFFFFFFF AND DUP2 MSTORE PUSH1 0x20 ADD SWAP1 DUP2 MSTORE PUSH1 0x20 ADD PUSH0 KECCAK256 PUSH0 DUP4 PUSH20 0xFFFFFFFFFFFFFFFFFFFFFFFFFFFFFFFFFFFFFFFF AND PUSH20 0xFFFFFFFFFFFFFFFFFFFFFFFFFFFFFFFFFFFFFFFF AND DUP2 MSTORE PUSH1 0x20 ADD SWAP1 DUP2 MSTORE PUSH1 0x20 ADD PUSH0 KECCAK256 SLOAD SWAP1 POP SWAP3 SWAP2 POP POP JUMP JUMPDEST PUSH0 DUP1 PUSH2 0xD7D PUSH2 0x859 JUMP JUMPDEST SWAP1 POP PUSH0 PUSH2 0xD8B DUP6 DUP4 SELFBALANCE PUSH2 0x169A JUMP JUMPDEST SWAP1 POP DUP4 DUP2 LT ISZERO PUSH2 0xDD0 JUMPI PUSH1 0x40 MLOAD PUSH32 0x8C379A000000000000000000000000000000000000000000000000000000000 DUP2 MSTORE PUSH1 0x4 ADD PUSH2 0xDC7 SWAP1 PUSH2 0x21A9 JUMP JUMPDEST PUSH1 0x40 MLOAD DUP1 SWAP2 SUB SWAP1 REVERT JUMPDEST PUSH1 0x5 PUSH0 SWAP1 SLOAD SWAP1 PUSH2 0x100 EXP SWAP1 DIV PUSH20 0xFFFFFFFFFFFFFFFFFFFFFFFFFFFFFFFFFFFFFFFF AND PUSH20 0xFFFFFFFFFFFFFFFFFFFFFFFFFFFFFFFFFFFFFFFF AND PUSH4 0x23B872DD CALLER ADDRESS DUP9 PUSH1 0x40 MLOAD DUP5 PUSH4 0xFFFFFFFF AND PUSH1 0xE0 SHL DUP2 MSTORE PUSH1 0x4 ADD PUSH2 0xE2E SWAP4 SWAP3 SWAP2 SWAP1 PUSH2 0x1E31 JUMP JUMPDEST PUSH1 0x20 PUSH1 0x40 MLOAD DUP1 DUP4 SUB DUP2 PUSH0 DUP8 GAS CALL ISZERO DUP1 ISZERO PUSH2 0xE4A JUMPI RETURNDATASIZE PUSH0 DUP1 RETURNDATACOPY RETURNDATASIZE PUSH0 REVERT JUMPDEST POP POP POP POP PUSH1 0x40 MLOAD RETURNDATASIZE PUSH1 0x1F NOT PUSH1 0x1F DUP3 ADD AND DUP3 ADD DUP1 PUSH1 0x40 MSTORE POP DUP2 ADD SWAP1 PUSH2 0xE6E SWAP2 SWAP1 PUSH2 0x1E90 JUMP JUMPDEST POP CALLER PUSH20 0xFFFFFFFFFFFFFFFFFFFFFFFFFFFFFFFFFFFFFFFF AND PUSH2 0x8FC DUP3 SWAP1 DUP2 ISZERO MUL SWAP1 PUSH1 0x40 MLOAD PUSH0 PUSH1 0x40 MLOAD DUP1 DUP4 SUB DUP2 DUP6 DUP9 DUP9 CALL SWAP4 POP POP POP POP ISZERO DUP1 ISZERO PUSH2 0xEB2 JUMPI RETURNDATASIZE PUSH0 DUP1 RETURNDATACOPY RETURNDATASIZE PUSH0 REVERT JUMPDEST POP DUP1 SWAP3 POP POP POP SWAP3 SWAP2 POP POP JUMP JUMPDEST PUSH0 PUSH1 0x6 PUSH0 SWAP1 SLOAD SWAP1 PUSH2 0x100 EXP SWAP1 DIV PUSH20 0xFFFFFFFFFFFFFFFFFFFFFFFFFFFFFFFFFFFFFFFF AND PUSH20 0xFFFFFFFFFFFFFFFFFFFFFFFFFFFFFFFFFFFFFFFF AND PUSH4 0x6F2BF62 DUP4 PUSH1 0x40 MLOAD DUP3 PUSH4 0xFFFFFFFF AND PUSH1 0xE0 SHL DUP2 MSTORE PUSH1 0x4 ADD PUSH2 0xF19 SWAP2 SWAP1 PUSH2 0x1C8F JUMP JUMPDEST PUSH1 0x20 PUSH1 0x40 MLOAD DUP1 DUP4 SUB DUP2 PUSH0 DUP8 GAS CALL ISZERO DUP1 ISZERO PUSH2 0xF35 JUMPI RETURNDATASIZE PUSH0 DUP1 RETURNDATACOPY RETURNDATASIZE PUSH0 REVERT JUMPDEST POP POP POP POP PUSH1 0x40 MLOAD RETURNDATASIZE PUSH1 0x1F NOT PUSH1 0x1F DUP3 ADD AND DUP3 ADD DUP1 PUSH1 0x40 MSTORE POP DUP2 ADD SWAP1 PUSH2 0xF59 SWAP2 SWAP1 PUSH2 0x21DB JUMP JUMPDEST SWAP1 POP ADDRESS PUSH20 0xFFFFFFFFFFFFFFFFFFFFFFFFFFFFFFFFFFFFFFFF AND DUP2 PUSH20 0xFFFFFFFFFFFFFFFFFFFFFFFFFFFFFFFFFFFFFFFF AND EQ ISZERO DUP1 ISZERO PUSH2 0xFC3 JUMPI POP PUSH0 PUSH20 0xFFFFFFFFFFFFFFFFFFFFFFFFFFFFFFFFFFFFFFFF AND DUP2 PUSH20 0xFFFFFFFFFFFFFFFFFFFFFFFFFFFFFFFFFFFFFFFF AND EQ ISZERO JUMPDEST PUSH2 0x1002 JUMPI PUSH1 0x40 MLOAD PUSH32 0x8C379A000000000000000000000000000000000000000000000000000000000 DUP2 MSTORE PUSH1 0x4 ADD PUSH2 0xFF9 SWAP1 PUSH2 0x2250 JUMP JUMPDEST PUSH1 0x40 MLOAD DUP1 SWAP2 SUB SWAP1 REVERT JUMPDEST PUSH0 PUSH2 0x100B PUSH2 0x859 JUMP JUMPDEST SWAP1 POP PUSH0 PUSH2 0x1019 DUP7 DUP4 SELFBALANCE PUSH2 0x169A JUMP JUMPDEST SWAP1 POP PUSH1 0x5 PUSH0 SWAP1 SLOAD SWAP1 PUSH2 0x100 EXP SWAP1 DIV PUSH20 0xFFFFFFFFFFFFFFFFFFFFFFFFFFFFFFFFFFFFFFFF AND PUSH20 0xFFFFFFFFFFFFFFFFFFFFFFFFFFFFFFFFFFFFFFFF AND PUSH4 0x23B872DD CALLER ADDRESS DUP10 PUSH1 0x40 MLOAD DUP5 PUSH4 0xFFFFFFFF AND PUSH1 0xE0 SHL DUP2 MSTORE PUSH1 0x4 ADD PUSH2 0x1079 SWAP4 SWAP3 SWAP2 SWAP1 PUSH2 0x1E31 JUMP JUMPDEST PUSH1 0x20 PUSH1 0x40 MLOAD DUP1 DUP4 SUB DUP2 PUSH0 DUP8 GAS CALL ISZERO DUP1 ISZERO PUSH2 0x1095 JUMPI RETURNDATASIZE PUSH0 DUP1 RETURNDATACOPY RETURNDATASIZE PUSH0 REVERT JUMPDEST POP POP POP POP PUSH1 0x40 MLOAD RETURNDATASIZE PUSH1 0x1F NOT PUSH1 0x1F DUP3 ADD AND DUP3 ADD DUP1 PUSH1 0x40 MSTORE POP DUP2 ADD SWAP1 PUSH2 0x10B9 SWAP2 SWAP1 PUSH2 0x1E90 JUMP JUMPDEST POP PUSH0 DUP4 PUSH20 0xFFFFFFFFFFFFFFFFFFFFFFFFFFFFFFFFFFFFFFFF AND PUSH4 0xF979DCD7 DUP4 DUP9 PUSH1 0x40 MLOAD DUP4 PUSH4 0xFFFFFFFF AND PUSH1 0xE0 SHL DUP2 MSTORE PUSH1 0x4 ADD PUSH2 0x10F5 SWAP2 SWAP1 PUSH2 0x1B8D JUMP JUMPDEST PUSH1 0x20 PUSH1 0x40 MLOAD DUP1 DUP4 SUB DUP2 DUP6 DUP9 GAS CALL ISZERO DUP1 ISZERO PUSH2 0x1111 JUMPI RETURNDATASIZE PUSH0 DUP1 RETURNDATACOPY RETURNDATASIZE PUSH0 REVERT JUMPDEST POP POP POP POP POP PUSH1 0x40 MLOAD RETURNDATASIZE PUSH1 0x1F NOT PUSH1 0x1F DUP3 ADD AND DUP3 ADD DUP1 PUSH1 0x40 MSTORE POP DUP2 ADD SWAP1 PUSH2 0x1136 SWAP2 SWAP1 PUSH2 0x2008 JUMP JUMPDEST SWAP1 POP DUP5 PUSH20 0xFFFFFFFFFFFFFFFFFFFFFFFFFFFFFFFFFFFFFFFF AND PUSH4 0xA9059CBB CALLER DUP4 PUSH1 0x40 MLOAD DUP4 PUSH4 0xFFFFFFFF AND PUSH1 0xE0 SHL DUP2 MSTORE PUSH1 0x4 ADD PUSH2 0x1173 SWAP3 SWAP2 SWAP1 PUSH2 0x2103 JUMP JUMPDEST PUSH1 0x20 PUSH1 0x40 MLOAD DUP1 DUP4 SUB DUP2 PUSH0 DUP8 GAS CALL ISZERO DUP1 ISZERO PUSH2 0x118F JUMPI RETURNDATASIZE PUSH0 DUP1 RETURNDATACOPY RETURNDATASIZE PUSH0 REVERT JUMPDEST POP POP POP POP PUSH1 0x40 MLOAD RETURNDATASIZE PUSH1 0x1F NOT PUSH1 0x1F DUP3 ADD AND DUP3 ADD DUP1 PUSH1 0x40 MSTORE POP DUP2 ADD SWAP1 PUSH2 0x11B3 SWAP2 SWAP1 PUSH2 0x1E90 JUMP JUMPDEST POP POP POP POP POP POP POP POP JUMP JUMPDEST PUSH0 DUP1 PUSH2 0x11C7 PUSH2 0x859 JUMP JUMPDEST SWAP1 POP PUSH0 PUSH2 0x11E0 CALLVALUE CALLVALUE SELFBALANCE PUSH2 0x11DA SWAP2 SWAP1 PUSH2 0x1EBB JUMP JUMPDEST DUP5 PUSH2 0x169A JUMP JUMPDEST SWAP1 POP DUP4 DUP2 LT ISZERO PUSH2 0x1225 JUMPI PUSH1 0x40 MLOAD PUSH32 0x8C379A000000000000000000000000000000000000000000000000000000000 DUP2 MSTORE PUSH1 0x4 ADD PUSH2 0x121C SWAP1 PUSH2 0x21A9 JUMP JUMPDEST PUSH1 0x40 MLOAD DUP1 SWAP2 SUB SWAP1 REVERT JUMPDEST PUSH1 0x5 PUSH0 SWAP1 SLOAD SWAP1 PUSH2 0x100 EXP SWAP1 DIV PUSH20 0xFFFFFFFFFFFFFFFFFFFFFFFFFFFFFFFFFFFFFFFF AND PUSH20 0xFFFFFFFFFFFFFFFFFFFFFFFFFFFFFFFFFFFFFFFF AND PUSH4 0xA9059CBB CALLER DUP4 PUSH1 0x40 MLOAD DUP4 PUSH4 0xFFFFFFFF AND PUSH1 0xE0 SHL DUP2 MSTORE PUSH1 0x4 ADD PUSH2 0x1281 SWAP3 SWAP2 SWAP1 PUSH2 0x2103 JUMP JUMPDEST PUSH1 0x20 PUSH1 0x40 MLOAD DUP1 DUP4 SUB DUP2 PUSH0 DUP8 GAS CALL ISZERO DUP1 ISZERO PUSH2 0x129D JUMPI RETURNDATASIZE PUSH0 DUP1 RETURNDATACOPY RETURNDATASIZE PUSH0 REVERT JUMPDEST POP POP POP POP PUSH1 0x40 MLOAD RETURNDATASIZE PUSH1 0x1F NOT PUSH1 0x1F DUP3 ADD AND DUP3 ADD DUP1 PUSH1 0x40 MSTORE POP DUP2 ADD SWAP1 PUSH2 0x12C1 SWAP2 SWAP1 PUSH2 0x1E90 JUMP JUMPDEST POP DUP1 SWAP3 POP POP POP SWAP2 SWAP1 POP JUMP JUMPDEST PUSH0 CALLER SWAP1 POP SWAP1 JUMP JUMPDEST PUSH0 PUSH20 0xFFFFFFFFFFFFFFFFFFFFFFFFFFFFFFFFFFFFFFFF AND DUP4 PUSH20 0xFFFFFFFFFFFFFFFFFFFFFFFFFFFFFFFFFFFFFFFF AND SUB PUSH2 0x1343 JUMPI PUSH0 PUSH1 0x40 MLOAD PUSH32 0xE602DF0500000000000000000000000000000000000000000000000000000000 DUP2 MSTORE PUSH1 0x4 ADD PUSH2 0x133A SWAP2 SWAP1 PUSH2 0x1C8F JUMP JUMPDEST PUSH1 0x40 MLOAD DUP1 SWAP2 SUB SWAP1 REVERT JUMPDEST PUSH0 PUSH20 0xFFFFFFFFFFFFFFFFFFFFFFFFFFFFFFFFFFFFFFFF AND DUP3 PUSH20 0xFFFFFFFFFFFFFFFFFFFFFFFFFFFFFFFFFFFFFFFF AND SUB PUSH2 0x13B3 JUMPI PUSH0 PUSH1 0x40 MLOAD PUSH32 0x94280D6200000000000000000000000000000000000000000000000000000000 DUP2 MSTORE PUSH1 0x4 ADD PUSH2 0x13AA SWAP2 SWAP1 PUSH2 0x1C8F JUMP JUMPDEST PUSH1 0x40 MLOAD DUP1 SWAP2 SUB SWAP1 REVERT JUMPDEST DUP1 PUSH1 0x1 PUSH0 DUP6 PUSH20 0xFFFFFFFFFFFFFFFFFFFFFFFFFFFFFFFFFFFFFFFF AND PUSH20 0xFFFFFFFFFFFFFFFFFFFFFFFFFFFFFFFFFFFFFFFF AND DUP2 MSTORE PUSH1 0x20 ADD SWAP1 DUP2 MSTORE PUSH1 0x20 ADD PUSH0 KECCAK256 PUSH0 DUP5 PUSH20 0xFFFFFFFFFFFFFFFFFFFFFFFFFFFFFFFFFFFFFFFF AND PUSH20 0xFFFFFFFFFFFFFFFFFFFFFFFFFFFFFFFFFFFFFFFF AND DUP2 MSTORE PUSH1 0x20 ADD SWAP1 DUP2 MSTORE PUSH1 0x20 ADD PUSH0 KECCAK256 DUP2 SWAP1 SSTORE POP DUP2 PUSH20 0xFFFFFFFFFFFFFFFFFFFFFFFFFFFFFFFFFFFFFFFF AND DUP4 PUSH20 0xFFFFFFFFFFFFFFFFFFFFFFFFFFFFFFFFFFFFFFFF AND PUSH32 0x8C5BE1E5EBEC7D5BD14F71427D1E84F3DD0314C0F7B2291E5B200AC8C7C3B925 DUP4 PUSH1 0x40 MLOAD PUSH2 0x148D SWAP2 SWAP1 PUSH2 0x1B8D JUMP JUMPDEST PUSH1 0x40 MLOAD DUP1 SWAP2 SUB SWAP1 LOG3 POP POP POP JUMP JUMPDEST PUSH0 PUSH2 0x14A5 DUP5 DUP5 PUSH2 0xCF1 JUMP JUMPDEST SWAP1 POP PUSH32 0xFFFFFFFFFFFFFFFFFFFFFFFFFFFFFFFFFFFFFFFFFFFFFFFFFFFFFFFFFFFFFFFF DUP2 EQ PUSH2 0x1525 JUMPI DUP2 DUP2 LT ISZERO PUSH2 0x1517 JUMPI DUP3 DUP2 DUP4 PUSH1 0x40 MLOAD PUSH32 0xFB8F41B200000000000000000000000000000000000000000000000000000000 DUP2 MSTORE PUSH1 0x4 ADD PUSH2 0x150E SWAP4 SWAP3 SWAP2 SWAP1 PUSH2 0x212A JUMP JUMPDEST PUSH1 0x40 MLOAD DUP1 SWAP2 SUB SWAP1 REVERT JUMPDEST PUSH2 0x1524 DUP5 DUP5 DUP5 DUP5 SUB PUSH2 0x12D3 JUMP JUMPDEST JUMPDEST POP POP POP POP JUMP JUMPDEST PUSH0 PUSH20 0xFFFFFFFFFFFFFFFFFFFFFFFFFFFFFFFFFFFFFFFF AND DUP4 PUSH20 0xFFFFFFFFFFFFFFFFFFFFFFFFFFFFFFFFFFFFFFFF AND SUB PUSH2 0x159B JUMPI PUSH0 PUSH1 0x40 MLOAD PUSH32 0x96C6FD1E00000000000000000000000000000000000000000000000000000000 DUP2 MSTORE PUSH1 0x4 ADD PUSH2 0x1592 SWAP2 SWAP1 PUSH2 0x1C8F JUMP JUMPDEST PUSH1 0x40 MLOAD DUP1 SWAP2 SUB SWAP1 REVERT JUMPDEST PUSH0 PUSH20 0xFFFFFFFFFFFFFFFFFFFFFFFFFFFFFFFFFFFFFFFF AND DUP3 PUSH20 0xFFFFFFFFFFFFFFFFFFFFFFFFFFFFFFFFFFFFFFFF AND SUB PUSH2 0x160B JUMPI PUSH0 PUSH1 0x40 MLOAD PUSH32 0xEC442F0500000000000000000000000000000000000000000000000000000000 DUP2 MSTORE PUSH1 0x4 ADD PUSH2 0x1602 SWAP2 SWAP1 PUSH2 0x1C8F JUMP JUMPDEST PUSH1 0x40 MLOAD DUP1 SWAP2 SUB SWAP1 REVERT JUMPDEST PUSH2 0x1616 DUP4 DUP4 DUP4 PUSH2 0x17B9 JUMP JUMPDEST POP POP POP JUMP JUMPDEST PUSH0 PUSH20 0xFFFFFFFFFFFFFFFFFFFFFFFFFFFFFFFFFFFFFFFF AND DUP3 PUSH20 0xFFFFFFFFFFFFFFFFFFFFFFFFFFFFFFFFFFFFFFFF AND SUB PUSH2 0x168B JUMPI PUSH0 PUSH1 0x40 MLOAD PUSH32 0xEC442F0500000000000000000000000000000000000000000000000000000000 DUP2 MSTORE PUSH1 0x4 ADD PUSH2 0x1682 SWAP2 SWAP1 PUSH2 0x1C8F JUMP JUMPDEST PUSH1 0x40 MLOAD DUP1 SWAP2 SUB SWAP1 REVERT JUMPDEST PUSH2 0x1696 PUSH0 DUP4 DUP4 PUSH2 0x17B9 JUMP JUMPDEST POP POP JUMP JUMPDEST PUSH0 DUP1 DUP4 GT DUP1 ISZERO PUSH2 0x16A9 JUMPI POP PUSH0 DUP3 GT JUMPDEST PUSH2 0x16E8 JUMPI PUSH1 0x40 MLOAD PUSH32 0x8C379A000000000000000000000000000000000000000000000000000000000 DUP2 MSTORE PUSH1 0x4 ADD PUSH2 0x16DF SWAP1 PUSH2 0x22B8 JUMP JUMPDEST PUSH1 0x40 MLOAD DUP1 SWAP2 SUB SWAP1 REVERT JUMPDEST PUSH0 PUSH1 0x63 DUP6 PUSH2 0x16F6 SWAP2 SWAP1 PUSH2 0x1EEE JUMP JUMPDEST SWAP1 POP PUSH0 DUP4 DUP3 PUSH2 0x1705 SWAP2 SWAP1 PUSH2 0x1EEE JUMP JUMPDEST SWAP1 POP PUSH0 DUP3 PUSH1 0x64 DUP8 PUSH2 0x1716 SWAP2 SWAP1 PUSH2 0x1EEE JUMP JUMPDEST PUSH2 0x1720 SWAP2 SWAP1 PUSH2 0x1DFE JUMP JUMPDEST SWAP1 POP DUP1 DUP3 PUSH2 0x172E SWAP2 SWAP1 PUSH2 0x1F5C JUMP JUMPDEST SWAP4 POP POP POP POP SWAP4 SWAP3 POP POP POP JUMP JUMPDEST PUSH0 PUSH20 0xFFFFFFFFFFFFFFFFFFFFFFFFFFFFFFFFFFFFFFFF AND DUP3 PUSH20 0xFFFFFFFFFFFFFFFFFFFFFFFFFFFFFFFFFFFFFFFF AND SUB PUSH2 0x17AA JUMPI PUSH0 PUSH1 0x40 MLOAD PUSH32 0x96C6FD1E00000000000000000000000000000000000000000000000000000000 DUP2 MSTORE PUSH1 0x4 ADD PUSH2 0x17A1 SWAP2 SWAP1 PUSH2 0x1C8F JUMP JUMPDEST PUSH1 0x40 MLOAD DUP1 SWAP2 SUB SWAP1 REVERT JUMPDEST PUSH2 0x17B5 DUP3 PUSH0 DUP4 PUSH2 0x17B9 JUMP JUMPDEST POP POP JUMP JUMPDEST PUSH0 PUSH20 0xFFFFFFFFFFFFFFFFFFFFFFFFFFFFFFFFFFFFFFFF AND DUP4 PUSH20 0xFFFFFFFFFFFFFFFFFFFFFFFFFFFFFFFFFFFFFFFF AND SUB PUSH2 0x1809 JUMPI DUP1 PUSH1 0x2 PUSH0 DUP3 DUP3 SLOAD PUSH2 0x17FD SWAP2 SWAP1 PUSH2 0x1DFE JUMP JUMPDEST SWAP3 POP POP DUP2 SWAP1 SSTORE POP PUSH2 0x18D7 JUMP JUMPDEST PUSH0 DUP1 PUSH0 DUP6 PUSH20 0xFFFFFFFFFFFFFFFFFFFFFFFFFFFFFFFFFFFFFFFF AND PUSH20 0xFFFFFFFFFFFFFFFFFFFFFFFFFFFFFFFFFFFFFFFF AND DUP2 MSTORE PUSH1 0x20 ADD SWAP1 DUP2 MSTORE PUSH1 0x20 ADD PUSH0 KECCAK256 SLOAD SWAP1 POP DUP2 DUP2 LT ISZERO PUSH2 0x1892 JUMPI DUP4 DUP2 DUP4 PUSH1 0x40 MLOAD PUSH32 0xE450D38C00000000000000000000000000000000000000000000000000000000 DUP2 MSTORE PUSH1 0x4 ADD PUSH2 0x1889 SWAP4 SWAP3 SWAP2 SWAP1 PUSH2 0x212A JUMP JUMPDEST PUSH1 0x40 MLOAD DUP1 SWAP2 SUB SWAP1 REVERT JUMPDEST DUP2 DUP2 SUB PUSH0 DUP1 DUP7 PUSH20 0xFFFFFFFFFFFFFFFFFFFFFFFFFFFFFFFFFFFFFFFF AND PUSH20 0xFFFFFFFFFFFFFFFFFFFFFFFFFFFFFFFFFFFFFFFF AND DUP2 MSTORE PUSH1 0x20 ADD SWAP1 DUP2 MSTORE PUSH1 0x20 ADD PUSH0 KECCAK256 DUP2 SWAP1 SSTORE POP POP JUMPDEST PUSH0 PUSH20 0xFFFFFFFFFFFFFFFFFFFFFFFFFFFFFFFFFFFFFFFF AND DUP3 PUSH20 0xFFFFFFFFFFFFFFFFFFFFFFFFFFFFFFFFFFFFFFFF AND SUB PUSH2 0x191E JUMPI DUP1 PUSH1 0x2 PUSH0 DUP3 DUP3 SLOAD SUB SWAP3 POP POP DUP2 SWAP1 SSTORE POP PUSH2 0x1968 JUMP JUMPDEST DUP1 PUSH0 DUP1 DUP5 PUSH20 0xFFFFFFFFFFFFFFFFFFFFFFFFFFFFFFFFFFFFFFFF AND PUSH20 0xFFFFFFFFFFFFFFFFFFFFFFFFFFFFFFFFFFFFFFFF AND DUP2 MSTORE PUSH1 0x20 ADD SWAP1 DUP2 MSTORE PUSH1 0x20 ADD PUSH0 KECCAK256 PUSH0 DUP3 DUP3 SLOAD ADD SWAP3 POP POP DUP2 SWAP1 SSTORE POP JUMPDEST DUP2 PUSH20 0xFFFFFFFFFFFFFFFFFFFFFFFFFFFFFFFFFFFFFFFF AND DUP4 PUSH20 0xFFFFFFFFFFFFFFFFFFFFFFFFFFFFFFFFFFFFFFFF AND PUSH32 0xDDF252AD1BE2C89B69C2B068FC378DAA952BA7F163C4A11628F55A4DF523B3EF DUP4 PUSH1 0x40 MLOAD PUSH2 0x19C5 SWAP2 SWAP1 PUSH2 0x1B8D JUMP JUMPDEST PUSH1 0x40 MLOAD DUP1 SWAP2 SUB SWAP1 LOG3 POP POP POP JUMP JUMPDEST PUSH0 DUP2 MLOAD SWAP1 POP SWAP2 SWAP1 POP JUMP JUMPDEST PUSH0 DUP3 DUP3 MSTORE PUSH1 0x20 DUP3 ADD SWAP1 POP SWAP3 SWAP2 POP POP JUMP JUMPDEST PUSH0 JUMPDEST DUP4 DUP2 LT ISZERO PUSH2 0x1A09 JUMPI DUP1 DUP3 ADD MLOAD DUP2 DUP5 ADD MSTORE PUSH1 0x20 DUP2 ADD SWAP1 POP PUSH2 0x19EE JUMP JUMPDEST PUSH0 DUP5 DUP5 ADD MSTORE POP POP POP POP JUMP JUMPDEST PUSH0 PUSH1 0x1F NOT PUSH1 0x1F DUP4 ADD AND SWAP1 POP SWAP2 SWAP1 POP JUMP JUMPDEST PUSH0 PUSH2 0x1A2E DUP3 PUSH2 0x19D2 JUMP JUMPDEST PUSH2 0x1A38 DUP2 DUP6 PUSH2 0x19DC JUMP JUMPDEST SWAP4 POP PUSH2 0x1A48 DUP2 DUP6 PUSH1 0x20 DUP7 ADD PUSH2 0x19EC JUMP JUMPDEST PUSH2 0x1A51 DUP2 PUSH2 0x1A14 JUMP JUMPDEST DUP5 ADD SWAP2 POP POP SWAP3 SWAP2 POP POP JUMP JUMPDEST PUSH0 PUSH1 0x20 DUP3 ADD SWAP1 POP DUP2 DUP2 SUB PUSH0 DUP4 ADD MSTORE PUSH2 0x1A74 DUP2 DUP5 PUSH2 0x1A24 JUMP JUMPDEST SWAP1 POP SWAP3 SWAP2 POP POP JUMP JUMPDEST PUSH0 DUP1 REVERT JUMPDEST PUSH0 PUSH20 0xFFFFFFFFFFFFFFFFFFFFFFFFFFFFFFFFFFFFFFFF DUP3 AND SWAP1 POP SWAP2 SWAP1 POP JUMP JUMPDEST PUSH0 PUSH2 0x1AA9 DUP3 PUSH2 0x1A80 JUMP JUMPDEST SWAP1 POP SWAP2 SWAP1 POP JUMP JUMPDEST PUSH2 0x1AB9 DUP2 PUSH2 0x1A9F JUMP JUMPDEST DUP2 EQ PUSH2 0x1AC3 JUMPI PUSH0 DUP1 REVERT JUMPDEST POP JUMP JUMPDEST PUSH0 DUP2 CALLDATALOAD SWAP1 POP PUSH2 0x1AD4 DUP2 PUSH2 0x1AB0 JUMP JUMPDEST SWAP3 SWAP2 POP POP JUMP JUMPDEST PUSH0 DUP2 SWAP1 POP SWAP2 SWAP1 POP JUMP JUMPDEST PUSH2 0x1AEC DUP2 PUSH2 0x1ADA JUMP JUMPDEST DUP2 EQ PUSH2 0x1AF6 JUMPI PUSH0 DUP1 REVERT JUMPDEST POP JUMP JUMPDEST PUSH0 DUP2 CALLDATALOAD SWAP1 POP PUSH2 0x1B07 DUP2 PUSH2 0x1AE3 JUMP JUMPDEST SWAP3 SWAP2 POP POP JUMP JUMPDEST PUSH0 DUP1 PUSH1 0x40 DUP4 DUP6 SUB SLT ISZERO PUSH2 0x1B23 JUMPI PUSH2 0x1B22 PUSH2 0x1A7C JUMP JUMPDEST JUMPDEST PUSH0 PUSH2 0x1B30 DUP6 DUP3 DUP7 ADD PUSH2 0x1AC6 JUMP JUMPDEST SWAP3 POP POP PUSH1 0x20 PUSH2 0x1B41 DUP6 DUP3 DUP7 ADD PUSH2 0x1AF9 JUMP JUMPDEST SWAP2 POP POP SWAP3 POP SWAP3 SWAP1 POP JUMP JUMPDEST PUSH0 DUP2 ISZERO ISZERO SWAP1 POP SWAP2 SWAP1 POP JUMP JUMPDEST PUSH2 0x1B5F DUP2 PUSH2 0x1B4B JUMP JUMPDEST DUP3 MSTORE POP POP JUMP JUMPDEST PUSH0 PUSH1 0x20 DUP3 ADD SWAP1 POP PUSH2 0x1B78 PUSH0 DUP4 ADD DUP5 PUSH2 0x1B56 JUMP JUMPDEST SWAP3 SWAP2 POP POP JUMP JUMPDEST PUSH2 0x1B87 DUP2 PUSH2 0x1ADA JUMP JUMPDEST DUP3 MSTORE POP POP JUMP JUMPDEST PUSH0 PUSH1 0x20 DUP3 ADD SWAP1 POP PUSH2 0x1BA0 PUSH0 DUP4 ADD DUP5 PUSH2 0x1B7E JUMP JUMPDEST SWAP3 SWAP2 POP POP JUMP JUMPDEST PUSH0 DUP1 PUSH0 PUSH1 0x60 DUP5 DUP7 SUB SLT ISZERO PUSH2 0x1BBD JUMPI PUSH2 0x1BBC PUSH2 0x1A7C JUMP JUMPDEST JUMPDEST PUSH0 PUSH2 0x1BCA DUP7 DUP3 DUP8 ADD PUSH2 0x1AC6 JUMP JUMPDEST SWAP4 POP POP PUSH1 0x20 PUSH2 0x1BDB DUP7 DUP3 DUP8 ADD PUSH2 0x1AC6 JUMP JUMPDEST SWAP3 POP POP PUSH1 0x40 PUSH2 0x1BEC DUP7 DUP3 DUP8 ADD PUSH2 0x1AF9 JUMP JUMPDEST SWAP2 POP POP SWAP3 POP SWAP3 POP SWAP3 JUMP JUMPDEST PUSH0 PUSH1 0xFF DUP3 AND SWAP1 POP SWAP2 SWAP1 POP JUMP JUMPDEST PUSH2 0x1C0B DUP2 PUSH2 0x1BF6 JUMP JUMPDEST DUP3 MSTORE POP POP JUMP JUMPDEST PUSH0 PUSH1 0x20 DUP3 ADD SWAP1 POP PUSH2 0x1C24 PUSH0 DUP4 ADD DUP5 PUSH2 0x1C02 JUMP JUMPDEST SWAP3 SWAP2 POP POP JUMP JUMPDEST PUSH0 PUSH1 0x20 DUP3 DUP5 SUB SLT ISZERO PUSH2 0x1C3F JUMPI PUSH2 0x1C3E PUSH2 0x1A7C JUMP JUMPDEST JUMPDEST PUSH0 PUSH2 0x1C4C DUP5 DUP3 DUP6 ADD PUSH2 0x1AF9 JUMP JUMPDEST SWAP2 POP POP SWAP3 SWAP2 POP POP JUMP JUMPDEST PUSH0 PUSH1 0x20 DUP3 DUP5 SUB SLT ISZERO PUSH2 0x1C6A JUMPI PUSH2 0x1C69 PUSH2 0x1A7C JUMP JUMPDEST JUMPDEST PUSH0 PUSH2 0x1C77 DUP5 DUP3 DUP6 ADD PUSH2 0x1AC6 JUMP JUMPDEST SWAP2 POP POP SWAP3 SWAP2 POP POP JUMP JUMPDEST PUSH2 0x1C89 DUP2 PUSH2 0x1A9F JUMP JUMPDEST DUP3 MSTORE POP POP JUMP JUMPDEST PUSH0 PUSH1 0x20 DUP3 ADD SWAP1 POP PUSH2 0x1CA2 PUSH0 DUP4 ADD DUP5 PUSH2 0x1C80 JUMP JUMPDEST SWAP3 SWAP2 POP POP JUMP JUMPDEST PUSH0 DUP1 PUSH1 0x40 DUP4 DUP6 SUB SLT ISZERO PUSH2 0x1CBE JUMPI PUSH2 0x1CBD PUSH2 0x1A7C JUMP JUMPDEST JUMPDEST PUSH0 PUSH2 0x1CCB DUP6 DUP3 DUP7 ADD PUSH2 0x1AC6 JUMP JUMPDEST SWAP3 POP POP PUSH1 0x20 PUSH2 0x1CDC DUP6 DUP3 DUP7 ADD PUSH2 0x1AC6 JUMP JUMPDEST SWAP2 POP POP SWAP3 POP SWAP3 SWAP1 POP JUMP JUMPDEST PUSH0 DUP1 PUSH1 0x40 DUP4 DUP6 SUB SLT ISZERO PUSH2 0x1CFC JUMPI PUSH2 0x1CFB PUSH2 0x1A7C JUMP JUMPDEST JUMPDEST PUSH0 PUSH2 0x1D09 DUP6 DUP3 DUP7 ADD PUSH2 0x1AF9 JUMP JUMPDEST SWAP3 POP POP PUSH1 0x20 PUSH2 0x1D1A DUP6 DUP3 DUP7 ADD PUSH2 0x1AF9 JUMP JUMPDEST SWAP2 POP POP SWAP3 POP SWAP3 SWAP1 POP JUMP JUMPDEST PUSH0 DUP1 PUSH0 PUSH1 0x60 DUP5 DUP7 SUB SLT ISZERO PUSH2 0x1D3B JUMPI PUSH2 0x1D3A PUSH2 0x1A7C JUMP JUMPDEST JUMPDEST PUSH0 PUSH2 0x1D48 DUP7 DUP3 DUP8 ADD PUSH2 0x1AF9 JUMP JUMPDEST SWAP4 POP POP PUSH1 0x20 PUSH2 0x1D59 DUP7 DUP3 DUP8 ADD PUSH2 0x1AF9 JUMP JUMPDEST SWAP3 POP POP PUSH1 0x40 PUSH2 0x1D6A DUP7 DUP3 DUP8 ADD PUSH2 0x1AC6 JUMP JUMPDEST SWAP2 POP POP SWAP3 POP SWAP3 POP SWAP3 JUMP JUMPDEST PUSH32 0x4E487B7100000000000000000000000000000000000000000000000000000000 PUSH0 MSTORE PUSH1 0x22 PUSH1 0x4 MSTORE PUSH1 0x24 PUSH0 REVERT JUMPDEST PUSH0 PUSH1 0x2 DUP3 DIV SWAP1 POP PUSH1 0x1 DUP3 AND DUP1 PUSH2 0x1DB8 JUMPI PUSH1 0x7F DUP3 AND SWAP2 POP JUMPDEST PUSH1 0x20 DUP3 LT DUP2 SUB PUSH2 0x1DCB JUMPI PUSH2 0x1DCA PUSH2 0x1D74 JUMP JUMPDEST JUMPDEST POP SWAP2 SWAP1 POP JUMP JUMPDEST PUSH32 0x4E487B7100000000000000000000000000000000000000000000000000000000 PUSH0 MSTORE PUSH1 0x11 PUSH1 0x4 MSTORE PUSH1 0x24 PUSH0 REVERT JUMPDEST PUSH0 PUSH2 0x1E08 DUP3 PUSH2 0x1ADA JUMP JUMPDEST SWAP2 POP PUSH2 0x1E13 DUP4 PUSH2 0x1ADA JUMP JUMPDEST SWAP3 POP DUP3 DUP3 ADD SWAP1 POP DUP1 DUP3 GT ISZERO PUSH2 0x1E2B JUMPI PUSH2 0x1E2A PUSH2 0x1DD1 JUMP JUMPDEST JUMPDEST SWAP3 SWAP2 POP POP JUMP JUMPDEST PUSH0 PUSH1 0x60 DUP3 ADD SWAP1 POP PUSH2 0x1E44 PUSH0 DUP4 ADD DUP7 PUSH2 0x1C80 JUMP JUMPDEST PUSH2 0x1E51 PUSH1 0x20 DUP4 ADD DUP6 PUSH2 0x1C80 JUMP JUMPDEST PUSH2 0x1E5E PUSH1 0x40 DUP4 ADD DUP5 PUSH2 0x1B7E JUMP JUMPDEST SWAP5 SWAP4 POP POP POP POP JUMP JUMPDEST PUSH2 0x1E6F DUP2 PUSH2 0x1B4B JUMP JUMPDEST DUP2 EQ PUSH2 0x1E79 JUMPI PUSH0 DUP1 REVERT JUMPDEST POP JUMP JUMPDEST PUSH0 DUP2 MLOAD SWAP1 POP PUSH2 0x1E8A DUP2 PUSH2 0x1E66 JUMP JUMPDEST SWAP3 SWAP2 POP POP JUMP JUMPDEST PUSH0 PUSH1 0x20 DUP3 DUP5 SUB SLT ISZERO PUSH2 0x1EA5 JUMPI PUSH2 0x1EA4 PUSH2 0x1A7C JUMP JUMPDEST JUMPDEST PUSH0 PUSH2 0x1EB2 DUP5 DUP3 DUP6 ADD PUSH2 0x1E7C JUMP JUMPDEST SWAP2 POP POP SWAP3 SWAP2 POP POP JUMP JUMPDEST PUSH0 PUSH2 0x1EC5 DUP3 PUSH2 0x1ADA JUMP JUMPDEST SWAP2 POP PUSH2 0x1ED0 DUP4 PUSH2 0x1ADA JUMP JUMPDEST SWAP3 POP DUP3 DUP3 SUB SWAP1 POP DUP2 DUP2 GT ISZERO PUSH2 0x1EE8 JUMPI PUSH2 0x1EE7 PUSH2 0x1DD1 JUMP JUMPDEST JUMPDEST SWAP3 SWAP2 POP POP JUMP JUMPDEST PUSH0 PUSH2 0x1EF8 DUP3 PUSH2 0x1ADA JUMP JUMPDEST SWAP2 POP PUSH2 0x1F03 DUP4 PUSH2 0x1ADA JUMP JUMPDEST SWAP3 POP DUP3 DUP3 MUL PUSH2 0x1F11 DUP2 PUSH2 0x1ADA JUMP JUMPDEST SWAP2 POP DUP3 DUP3 DIV DUP5 EQ DUP4 ISZERO OR PUSH2 0x1F28 JUMPI PUSH2 0x1F27 PUSH2 0x1DD1 JUMP JUMPDEST JUMPDEST POP SWAP3 SWAP2 POP POP JUMP JUMPDEST PUSH32 0x4E487B7100000000000000000000000000000000000000000000000000000000 PUSH0 MSTORE PUSH1 0x12 PUSH1 0x4 MSTORE PUSH1 0x24 PUSH0 REVERT JUMPDEST PUSH0 PUSH2 0x1F66 DUP3 PUSH2 0x1ADA JUMP JUMPDEST SWAP2 POP PUSH2 0x1F71 DUP4 PUSH2 0x1ADA JUMP JUMPDEST SWAP3 POP DUP3 PUSH2 0x1F81 JUMPI PUSH2 0x1F80 PUSH2 0x1F2F JUMP JUMPDEST JUMPDEST DUP3 DUP3 DIV SWAP1 POP SWAP3 SWAP2 POP POP JUMP JUMPDEST PUSH32 0x496E73756666696369656E7420746F6B656E20616D6F756E7400000000000000 PUSH0 DUP3 ADD MSTORE POP JUMP JUMPDEST PUSH0 PUSH2 0x1FC0 PUSH1 0x19 DUP4 PUSH2 0x19DC JUMP JUMPDEST SWAP2 POP PUSH2 0x1FCB DUP3 PUSH2 0x1F8C JUMP JUMPDEST PUSH1 0x20 DUP3 ADD SWAP1 POP SWAP2 SWAP1 POP JUMP JUMPDEST PUSH0 PUSH1 0x20 DUP3 ADD SWAP1 POP DUP2 DUP2 SUB PUSH0 DUP4 ADD MSTORE PUSH2 0x1FED DUP2 PUSH2 0x1FB4 JUMP JUMPDEST SWAP1 POP SWAP2 SWAP1 POP JUMP JUMPDEST PUSH0 DUP2 MLOAD SWAP1 POP PUSH2 0x2002 DUP2 PUSH2 0x1AE3 JUMP JUMPDEST SWAP3 SWAP2 POP POP JUMP JUMPDEST PUSH0 PUSH1 0x20 DUP3 DUP5 SUB SLT ISZERO PUSH2 0x201D JUMPI PUSH2 0x201C PUSH2 0x1A7C JUMP JUMPDEST JUMPDEST PUSH0 PUSH2 0x202A DUP5 DUP3 DUP6 ADD PUSH2 0x1FF4 JUMP JUMPDEST SWAP2 POP POP SWAP3 SWAP2 POP POP JUMP JUMPDEST PUSH32 0x496E76616C696420696E70757400000000000000000000000000000000000000 PUSH0 DUP3 ADD MSTORE POP JUMP JUMPDEST PUSH0 PUSH2 0x2067 PUSH1 0xD DUP4 PUSH2 0x19DC JUMP JUMPDEST SWAP2 POP PUSH2 0x2072 DUP3 PUSH2 0x2033 JUMP JUMPDEST PUSH1 0x20 DUP3 ADD SWAP1 POP SWAP2 SWAP1 POP JUMP JUMPDEST PUSH0 PUSH1 0x20 DUP3 ADD SWAP1 POP DUP2 DUP2 SUB PUSH0 DUP4 ADD MSTORE PUSH2 0x2094 DUP2 PUSH2 0x205B JUMP JUMPDEST SWAP1 POP SWAP2 SWAP1 POP JUMP JUMPDEST PUSH32 0x496E73756666696369656E74206C697175696469747900000000000000000000 PUSH0 DUP3 ADD MSTORE POP JUMP JUMPDEST PUSH0 PUSH2 0x20CF PUSH1 0x16 DUP4 PUSH2 0x19DC JUMP JUMPDEST SWAP2 POP PUSH2 0x20DA DUP3 PUSH2 0x209B JUMP JUMPDEST PUSH1 0x20 DUP3 ADD SWAP1 POP SWAP2 SWAP1 POP JUMP JUMPDEST PUSH0 PUSH1 0x20 DUP3 ADD SWAP1 POP DUP2 DUP2 SUB PUSH0 DUP4 ADD MSTORE PUSH2 0x20FC DUP2 PUSH2 0x20C3 JUMP JUMPDEST SWAP1 POP SWAP2 SWAP1 POP JUMP JUMPDEST PUSH0 PUSH1 0x40 DUP3 ADD SWAP1 POP PUSH2 0x2116 PUSH0 DUP4 ADD DUP6 PUSH2 0x1C80 JUMP JUMPDEST PUSH2 0x2123 PUSH1 0x20 DUP4 ADD DUP5 PUSH2 0x1B7E JUMP JUMPDEST SWAP4 SWAP3 POP POP POP JUMP JUMPDEST PUSH0 PUSH1 0x60 DUP3 ADD SWAP1 POP PUSH2 0x213D PUSH0 DUP4 ADD DUP7 PUSH2 0x1C80 JUMP JUMPDEST PUSH2 0x214A PUSH1 0x20 DUP4 ADD DUP6 PUSH2 0x1B7E JUMP JUMPDEST PUSH2 0x2157 PUSH1 0x40 DUP4 ADD DUP5 PUSH2 0x1B7E JUMP JUMPDEST SWAP5 SWAP4 POP POP POP POP JUMP JUMPDEST PUSH32 0x496E73756666696369656E74206F757470757420616D6F756E74000000000000 PUSH0 DUP3 ADD MSTORE POP JUMP JUMPDEST PUSH0 PUSH2 0x2193 PUSH1 0x1A DUP4 PUSH2 0x19DC JUMP JUMPDEST SWAP2 POP PUSH2 0x219E DUP3 PUSH2 0x215F JUMP JUMPDEST PUSH1 0x20 DUP3 ADD SWAP1 POP SWAP2 SWAP1 POP JUMP JUMPDEST PUSH0 PUSH1 0x20 DUP3 ADD SWAP1 POP DUP2 DUP2 SUB PUSH0 DUP4 ADD MSTORE PUSH2 0x21C0 DUP2 PUSH2 0x2187 JUMP JUMPDEST SWAP1 POP SWAP2 SWAP1 POP JUMP JUMPDEST PUSH0 DUP2 MLOAD SWAP1 POP PUSH2 0x21D5 DUP2 PUSH2 0x1AB0 JUMP JUMPDEST SWAP3 SWAP2 POP POP JUMP JUMPDEST PUSH0 PUSH1 0x20 DUP3 DUP5 SUB SLT ISZERO PUSH2 0x21F0 JUMPI PUSH2 0x21EF PUSH2 0x1A7C JUMP JUMPDEST JUMPDEST PUSH0 PUSH2 0x21FD DUP5 DUP3 DUP6 ADD PUSH2 0x21C7 JUMP JUMPDEST SWAP2 POP POP SWAP3 SWAP2 POP POP JUMP JUMPDEST PUSH32 0x496E76616C69642065786368616E676520616464726573730000000000000000 PUSH0 DUP3 ADD MSTORE POP JUMP JUMPDEST PUSH0 PUSH2 0x223A PUSH1 0x18 DUP4 PUSH2 0x19DC JUMP JUMPDEST SWAP2 POP PUSH2 0x2245 DUP3 PUSH2 0x2206 JUMP JUMPDEST PUSH1 0x20 DUP3 ADD SWAP1 POP SWAP2 SWAP1 POP JUMP JUMPDEST PUSH0 PUSH1 0x20 DUP3 ADD SWAP1 POP DUP2 DUP2 SUB PUSH0 DUP4 ADD MSTORE PUSH2 0x2267 DUP2 PUSH2 0x222E JUMP JUMPDEST SWAP1 POP SWAP2 SWAP1 POP JUMP JUMPDEST PUSH32 0x496E76616C696420726573657276650000000000000000000000000000000000 PUSH0 DUP3 ADD MSTORE POP JUMP JUMPDEST PUSH0 PUSH2 0x22A2 PUSH1 0xF DUP4 PUSH2 0x19DC JUMP JUMPDEST SWAP2 POP PUSH2 0x22AD DUP3 PUSH2 0x226E JUMP JUMPDEST PUSH1 0x20 DUP3 ADD SWAP1 POP SWAP2 SWAP1 POP JUMP JUMPDEST PUSH0 PUSH1 0x20 DUP3 ADD SWAP1 POP DUP2 DUP2 SUB PUSH0 DUP4 ADD MSTORE PUSH2 0x22CF DUP2 PUSH2 0x2296 JUMP JUMPDEST SWAP1 POP SWAP2 SWAP1 POP JUMP INVALID LOG2 PUSH5 0x6970667358 0x22 SLT KECCAK256 PUSH18 0x59EFDA554DD21452C0FE4046CB1FC6D231D5 SWAP7 0xC2 0xCA PUSH7 0x5823E6E8167DE6 0x27 PUSH1 0x64 PUSH20 0x6F6C634300081400330000000000000000000000 "
				},
				"gasEstimates": {
					"creation": {
						"codeDepositCost": "1794400",
						"executionCost": "infinite",
						"totalCost": "infinite"
					},
					"external": {
						"addLiquidity(uint256)": "infinite",
						"allowance(address,address)": "infinite",
						"approve(address,uint256)": "infinite",
						"balanceOf(address)": "2918",
						"decimals()": "450",
						"decreaseAllowance(address,uint256)": "infinite",
						"ethToTokenSwap(uint256)": "infinite",
						"factoryAddress()": "2553",
						"getEthAmount(uint256)": "infinite",
						"getReserve()": "infinite",
						"getTokenAmount(uint256)": "infinite",
						"increaseAllowance(address,uint256)": "infinite",
						"name()": "infinite",
						"removeLiquidity(uint256)": "infinite",
						"symbol()": "infinite",
						"tokenAddress()": "2597",
						"tokenToEthSwap(uint256,uint256)": "infinite",
						"tokenToTokenSwap(uint256,uint256,address)": "infinite",
						"totalSupply()": "2500",
						"transfer(address,uint256)": "infinite",
						"transferFrom(address,address,uint256)": "infinite"
					},
					"internal": {
						"getAmount(uint256,uint256,uint256)": "infinite"
					}
				},
				"methodIdentifiers": {
					"addLiquidity(uint256)": "51c6590a",
					"allowance(address,address)": "dd62ed3e",
					"approve(address,uint256)": "095ea7b3",
					"balanceOf(address)": "70a08231",
					"decimals()": "313ce567",
					"decreaseAllowance(address,uint256)": "a457c2d7",
					"ethToTokenSwap(uint256)": "f979dcd7",
					"factoryAddress()": "966dae0e",
					"getEthAmount(uint256)": "8fc7a25d",
					"getReserve()": "59bf5d39",
					"getTokenAmount(uint256)": "c2507ac1",
					"increaseAllowance(address,uint256)": "39509351",
					"name()": "06fdde03",
					"removeLiquidity(uint256)": "9c8f9f23",
					"symbol()": "95d89b41",
					"tokenAddress()": "9d76ea58",
					"tokenToEthSwap(uint256,uint256)": "e0486c8a",
					"tokenToTokenSwap(uint256,uint256,address)": "f7a7e324",
					"totalSupply()": "18160ddd",
					"transfer(address,uint256)": "a9059cbb",
					"transferFrom(address,address,uint256)": "23b872dd"
				}
			},
			"storageLayout": {
				"storage": [
					{
						"astId": 702,
						"contract": "contracts/Exchange.sol:Exchange",
						"label": "_balances",
						"offset": 0,
						"slot": "0",
						"type": "t_mapping(t_address,t_uint256)"
					},
					{
						"astId": 708,
						"contract": "contracts/Exchange.sol:Exchange",
						"label": "_allowances",
						"offset": 0,
						"slot": "1",
						"type": "t_mapping(t_address,t_mapping(t_address,t_uint256))"
					},
					{
						"astId": 710,
						"contract": "contracts/Exchange.sol:Exchange",
						"label": "_totalSupply",
						"offset": 0,
						"slot": "2",
						"type": "t_uint256"
					},
					{
						"astId": 712,
						"contract": "contracts/Exchange.sol:Exchange",
						"label": "_name",
						"offset": 0,
						"slot": "3",
						"type": "t_string_storage"
					},
					{
						"astId": 714,
						"contract": "contracts/Exchange.sol:Exchange",
						"label": "_symbol",
						"offset": 0,
						"slot": "4",
						"type": "t_string_storage"
					},
					{
						"astId": 11,
						"contract": "contracts/Exchange.sol:Exchange",
						"label": "tokenAddress",
						"offset": 0,
						"slot": "5",
						"type": "t_address"
					},
					{
						"astId": 13,
						"contract": "contracts/Exchange.sol:Exchange",
						"label": "factoryAddress",
						"offset": 0,
						"slot": "6",
						"type": "t_address"
					}
				],
				"types": {
					"t_address": {
						"encoding": "inplace",
						"label": "address",
						"numberOfBytes": "20"
					},
					"t_mapping(t_address,t_mapping(t_address,t_uint256))": {
						"encoding": "mapping",
						"key": "t_address",
						"label": "mapping(address => mapping(address => uint256))",
						"numberOfBytes": "32",
						"value": "t_mapping(t_address,t_uint256)"
					},
					"t_mapping(t_address,t_uint256)": {
						"encoding": "mapping",
						"key": "t_address",
						"label": "mapping(address => uint256)",
						"numberOfBytes": "32",
						"value": "t_uint256"
					},
					"t_string_storage": {
						"encoding": "bytes",
						"label": "string",
						"numberOfBytes": "32"
					},
					"t_uint256": {
						"encoding": "inplace",
						"label": "uint256",
						"numberOfBytes": "32"
					}
				}
			},
			"userdoc": {
				"kind": "user",
				"methods": {},
				"version": 1
			}
		}
	}
}